:100000000C942C0B0C94540B0C94540B0C94540B1C
:100010000C94540B0C94540B0C94540B0C94540BE4
:100020000C94540B0C94540B0C94540B0C94540BD4
:100030000C943D630C94540B0C94540B0C94FC0CDA
:100040000C944F0C0C94540B0C94E95F0C941A60B4
:100050000C94540B0C94540B0C94540B0C94540BA4
:100060000C94540B0C94610C0C94540B0C94540B86
:100070000C94540B0C94540B0C94540B0C94540B84
:100080000C94540B0C94540B0C94540B9265A76570
:10009000AB65AF65B365B765BD65C365CA65CE655C
:1000A000D665DC65E165E665EB65F165F765FC65E0
:1000B000076615660102030401020403010302043A
:1000C0000103040201040203010403020201030408
:1000D00002010403020301040203040102040103F8
:1000E00002040301030102040301040203020104E8
:1000F00003020401030401020304020104010203D8
:1001000004010302040201030402030104030102C7
:100110000403020152554420454C452054485220C6
:1001200041494C205255442054485220454C4520CA
:1001300041494C2041494C20454C452054485220CF
:100140005255442041494C2054485220454C4520AA
:10015000525544200003010200040506076D656E38
:1001600075537461636B206F766572666C6F770090
:100170006D656E75537461636B20756E6465726630
:100180006C6F7700707265737320616E79204B65B8
:100190007900414C455254004D4553534147450069
:1001A0004C4F4144494E4700506C65617365207265
:1001B00065736574207468656D005377697463684E
:1001C0006573206E6F74206F666600204F6C64202C
:1001D00056657273696F6E20454550524F4D202011
:1001E00020434845434B2053455454494E47532FD1
:1001F00043414C494200416C61726D732044697304
:1002000061626C6564005265736574207468726F16
:1002100074746C65005468726F74746C65206E6FD2
:10022000742069646C6500507265737320616E7927
:10023000206B657920746F20736B697000414C45A9
:10024000525400454550524F4D206C6F77206D65DC
:100250006D004F4646414253525573525525454C09
:1002600073454C25544873544825414C73414C25E3
:1002700050312050312550322050322550332050FB
:10028000332500544852525544454C454944304961
:10029000443149443241494C47454154524E5357E9
:1002A00031535732535733535734535735535736C7
:1002B000535737535738535739535741535742536E
:1002C0005743004F4646004F4E20002D2D2D002D48
:1002D0002D2D2043483120434832204348332043CA
:1002E000483420434835204348362043483720438C
:1002F000483820434839204348313043483131435E
:10030000483132434831334348313443483135432F
:1003100048313600503120205032202050332020E8
:100320004D41582046554C4C435943314359433273
:100330004359433350504D3150504D3250504D334E
:1003400050504D3450504D3550504D3650504D3723
:1003500050504D38434831204348322043483320E1
:10036000434834204348352043483620434837200B
:1003700043483820434839204348313043483131DD
:1003800043483132434831334348313443483135AF
:100390004348313655502020444F574E002D2D2DC7
:1003A0002D00564552533A2056312E30382D47569F
:1003B00000444154453A2030312E30332E32303112
:1003C000320054494D453A2031353A30333A3337CB
:1003D00000204D4F443A204D41564C494E4B00129F
:1003E000081200081C0808081C0800000822004920
:1003F0000022080000000000227F220000000822E6
:1004000000490022080000082200490022080000DC
:1004100000227F220000000000082200490022087C
:100420000000081C0808081C0800FB3D603FB131B3
:10043000E849554E293DC3331C48142E892C6D358F
:100440001630D33A043B933B153C4D415620504166
:1004500052414D530000016F666670706D6D61769C
:1004600000524F5441525920535749544348455321
:100470000000054D6F64650042616E644761700065
:10048000506F745363726F6C6C00416C61726D20BD
:100490005761726E696E67004D656D6F7279205796
:1004A00061726E696E670053776974636820576183
:1004B000726E696E67005468726F74746C65205751
:1004C00061726E696E670053706C6173682073634C
:1004D0007265656E004F4646004C69676874206F10
:1004E0006666206166746572004C69676874207383
:1004F000776974636800466C617368206F6E206270
:10050000656570004265657020636F756E74646F19
:10051000776E004D696E7574652062656570005474
:1005200068726F74746C65207265766572736500AD
:1005300053494E474F534D5046494C540046696C01
:100540007465722041444300496E61637469766941
:10055000747920616C61726D004D617620737973DE
:1005600074656D206964003139323030333834308D
:100570003035373630300042617564207261746501
:100580000042617474657279207761726E696E677A
:1005900000436F6E747261737400486170746963B4
:1005A00020537472656E67746800537065616B6583
:1005B00072205069746368004265657065725069A5
:1005C00053706B7250636D57617600536F756E6434
:1005D000204D6F6465005175696574204E6F4B65E1
:1005E00079207853686F727453686F7274204E6FFD
:1005F000726D20204C6F6E672020784C6F6E6720E4
:1006000000426565706572004F776E6572204E61BD
:100610006D6500524144494F2053455455500043A5
:10062000616C004D756C7469706C6965720063680B
:1006300031636832636833636834006F6666202B09
:100640003D203A3D006D6F646520202025207372A7
:10065000632020737700536C6176650054524149E2
:100660004E45520000030303030056455253494FC1
:100670004E005472696D2D202B00204D656E752043
:100680004578697420446F776E2020205570526938
:10069000676874204C6566740044494147004247CE
:1006A00000414E4100205B4D454E555D2057484569
:1006B0004E20444F4E452000204D4F564520535468
:1006C00049434B532F504F54532000202020534573
:1006D00054204D4944504F494E5420202000205B67
:1006E0004D454E555D20544F2053544152542020C7
:1006F0000053544152542043414C494252415449C1
:100700004F4E200043414C4942524154494F4E0004
:1007100066726565004D4F44454C53454C00444559
:100720004C455445204D4F44454C2020205B4D45C1
:100730004E555D00543254685472696700547261BA
:10074000696E657200452E204C696D6974730050A6
:100750004F534E45470053686966742053656C00DB
:1007600050504D2046724C656E202020206D536500
:10077000630075536563003443482036434820388E
:1007800043482031304348313243483134434831C3
:100790003643480050504D202020505858202020EB
:1007A00044534D3220200050726F746F00524554F4
:1007B00041313233004265657020436E74005472DB
:1007C000696D205377004578702020204578466970
:1007D0006E6546696E6520204D656469756D436F71
:1007E00061727365005472696D20496E6300542D07
:1007F0004578706F00542D5472696D00436F756EAB
:100800007420446F776E436F756E7420557020208E
:100810000054696D657220005472696767657200E3
:1008200054696D6572004E616D65005345545550B5
:10083000000009010000000000000602004475707D
:100840006C69636174696E67206D6F64656C005BD1
:100850004D454E555D20205B455849545D00594536
:100860005320202020204E4F0044454C4554452025
:100870004D4F44454C004455504C4943415445204C
:100880004D4F44454C00204142434445464748496A
:100890004A4B4C4D4E4F5051525354555657585940
:1008A0005A6162636465666768696A6B6C6D6E6FD6
:1008B000707172737475767778797A303132333437
:1008C00035363738395F2D2E006578702020252089
:1008D0002073773120737732004558504F2F4452A0
:1008E00000000344522048696768004452204C6F5E
:1008F00077004452204D69640044725377320044BB
:100900007253773100576569676874004578706F76
:10091000004558504F2F445200002B2A52004D4999
:10092000584552005072657373205B455849545DB9
:1009300020746F2061626F7274004D6178206D6960
:10094000786572732072656163683A200044454C93
:10095000455445204D4958205B4D454E555D00534B
:100960006C6F772020557000536C6F772020446F98
:10097000776E0044656C61792055700044656C6148
:100980007920446F776E0041646420202020204D40
:10099000756C7469706C795265706C616365200068
:1009A0004D756C747078004F4646005761726E69E1
:1009B0006E67005377697463680043757276657378
:1009C000004F4E204F4646005472696D004F464618
:1009D0004F4E2000466C4D6F64657472696D004F18
:1009E000666673657400466D5472696D56616C007D
:1009F00057656967687400536F7572636500454495
:100A00004954204D49582000494E53455254204DD9
:100A1000495820002D2D2D2D202020763E6F667305
:100A20002020763C6F667320207C767C3E6F667358
:100A30007C767C3C6F6673414E44202020204F52D0
:100A40002020202020584F522020202076313D3D6C
:100A50007632207631213D76322076313E76322054
:100A60002076313C7632202076313E3D763220763B
:100A7000313C3D76322000535700435553544F4D7F
:100A800020535749544348455300000253414645BB
:100A90005459205357495443484553000002434F8B
:100AA0005059205452494D205B4D454E555D002D07
:100AB0002D2D494E56004C494D4954530000030317
:100AC00003030303030303030303030303030043B9
:100AD0005600435552564553005052455345540015
:100AE000454449542D3E0043555256450009002DBA
:100AF0002D2D494E56004F46464F4E20002D2D2D90
:100B0000783E30783C307C787C663E30663C307C89
:100B1000667C633120633220633320633420633585
:100B200020633620633720633820633920633130F7
:100B3000633131633132633133633134633135636F
:100B4000313600454550524F4D206F766572666CC8
:100B50006F7700454550524F4D206F766572666C39
:100B60006F770067656E7772697465206572726F62
:100B70007200454550524F4D20466F726D6174743E
:100B8000696E670042616420454570726F6D204454
:100B9000617461004D4F44454C2020202020004DC1
:100BA0004520202020202020200050085000000058
:100BB00000000000006F000007000700147F147F92
:100BC00014242A7F2A1223130864623649552250BE
:100BD0000005030000001C2241000041221C0014FB
:100BE000083E081408083E080800503000000808B5
:100BF00008080800606000002010080402003E4958
:100C0000453E0000427F400062514946004149494B
:100C100036001814127F0027454539003E494932F5
:100C200000017905030036494936000649291E00AE
:100C30000036360000005636000008142241141415
:100C40001414144122140800020151090600060977
:100C500009067E0909097E7F494949363E414141DD
:100C6000227F4141221C7F494949417F09090901ED
:100C70003E4149497A7F0808087F00417F410020B2
:100C800040413F017F081422417F404040407F02A5
:100C90000C027F7F0408107F3E4141413E7F0909DD
:100CA00009063E4151215E7F0919294626494949D5
:100CB0003201017F01013F4040403F1F2040201F83
:100CC0003F4030403F631408146307087008076111
:100CD00051494543007F4141000204081020004172
:100CE000417F0004020102044040404040000102F4
:100CF000040020545454787F4844443838444444D1
:100D000020384444487F3854545418087E0901025E
:100D10000C5252523E7F0804047800447D4000206B
:100D200040443D007F1028440000417F40007C0487
:100D30001804787C0804047838444444387C14143B
:100D40001408081414187C7C0804040848545454EB
:100D500020043F4440203C4040207C1C2040201C7C
:100D60003C4020403C44281028440C5050503C4407
:100D700064544C44000836410000007F00000041EC
:100D80003608000808221C08081C220808A06080F9
:100D90000000000000000000000000000000FFFF55
:100DA0000000000000001F3F00003F1F0000303027
:100DB000FFFF3030FFFF30303078CCCCFFFFCCCCA1
:100DC0008C0C060F0F86C0E070381C0C3CFEC7E38D
:100DD000F33B1E0C00000000333B1F0F000000001F
:100DE0000000F0F81C0E07030000000003070E1CB3
:100DF000F8F000003030E0C0FCFCC0E03030C0C093
:100E0000C0C0FCFCC0C0C0C000000000000000006A
:100E10000000C0C0C0C0C0C0C0C0C0C00000000052
:100E200000000000000000000080C0E070381C0CD2
:100E30000000000000000000000000000000383842
:100E4000000000000000000000000000000003039C
:100E50003F3F03033F3F03030C0C0C0C3F3F0C0CC4
:100E600007030C0E07030100183C3C180F1F383114
:100E700033331E1E3333000000000000000000006A
:100E8000000003070E1C38300000000030381C0E34
:100E900007030000030301000F0F0001030300001C
:100EA00000000F0F000000000000333B1F0F000088
:100EB0000000000000000000000000000000183CDE
:100EC0003C18000000000C0E0703010000000000A9
:100ED0000000FCFE87C3E377FEFC00000C0EFFFF62
:100EE0000000000000000C0E0783C3E77E3C0000FA
:100EF0000303C3C3C3E7FE3C0000C0E070381C0E10
:100F0000FFFF00003F3F33333373E3C30000FCFEB9
:100F1000C7C3C3C78E0C00000303C3E3733B1F0F9B
:100F200000003CFEE7C3C3E7FE3C00003C7EE7C395
:100F3000C3E7FEFC0000183C3C1800000000000065
:100F4000183C3C18000000000000C0E0F0381C0E07
:100F500007033030303030303030303003070E1C73
:100F600038F0E0C000000C0E07030383C3E77E3CAB
:100F700000000F1F3B3130381F0F000030303F3F63
:100F80003030000000003C3E37333130303000005C
:100F90003030303030391F0F0000030303030303E8
:100FA0003F3F00000C1C383030381F0F00000F1F6F
:100FB000383030391F0F000000003F3F00000000B4
:100FC00000000F1F393030391F0F0000000030388B
:100FD0001C0E07030000060F0F06000000000000B3
:100FE000333B1F0F000000000000000103070E1C30
:100FF00038300303030303030303030330381C0ED9
:10100000070301000000000000003333010000006E
:1010100000003C7EE7C3C3E77E3CF0F8DCCEC7C7E8
:10102000CEDCF8F0FFFFC3C3C3C3C3E7FE3CFCFE46
:101030000703030303070E0CFFFF030303070E1C44
:10104000F8F0FFFFC3C3C3C3C3C30303FFFFC3C39E
:10105000C3C3C3C30303FCFE0703C3C3C3C7CECCD0
:10106000FFFFC0C0C0C0C0C0FFFF00000303FFFF00
:1010700003030000000000000303FFFF0303FFFF62
:10108000C0E0F0381C0E0703FFFF00000000000066
:101090000000FFFF0E1CF8F81C0EFFFFFFFF38706A
:1010A000E0C08000FFFFFCFE070303030307FEFC14
:1010B000000000000000000000003F3F00000000B2
:1010C00000003F3F3F3F3030303030391F0F0F1F9F
:1010D0003830303030381C0C3F3F303030381C0E48
:1010E00007033F3F30303030303030303F3F00007A
:1010F0000000000000000F1F3830303030303F3F1C
:101100003F3F0000000000003F3F000030303F3F05
:10111000303000000C1C383030381F0F00003F3FCB
:10112000000103070E1C38303F3F30303030303084
:1011300030303F3F0000000000003F3F3F3F0000D5
:10114000000103033F3F0F1F3830303030381F0F8E
:10115000FFFFC3C3C3C3C3E77E3CFCFE0703030317
:101160000307FEFCFFFFC3C3C3C3C3E77E3C3C7E53
:10117000E7C3C3C3C3C78E0C03030303FFFF03030B
:101180000303FFFF000000000000FFFFFFFF00005F
:1011900000000000FFFFFFFF000000000000FFFF55
:1011A0000F1F38F0E0E0F0381F0F3F7FE0C0808075
:1011B000C0E07F3F03030383C3E3733B1F0F0000C3
:1011C000FFFF0303030300000C1C3870E0C0800025
:1011D0000000000003030303FFFF000030381C0E73
:1011E00007070E1C3830000000000000000000005F
:1011F0003F3F00000000000000000F1F3830333771
:101200001E1C3F333F3F000003070E1C38300C1CF0
:101210003830303030391F0F000000003F3F0000F1
:1012200000000F1F3830303030381F0F03070E1CFE
:1012300038381C0E07030F1F38381F1F38381F0F90
:101240003C3E0703010103073E3C000000013F3F15
:10125000010000003C3E3733313030303030000088
:101260003F3F303030300000000000000001030735
:101270000E0C0000303030303F3F00000000000016
:10128000000000000000303030303030303030307E
:10129000000003070E1C38300000000030303030F2
:1012A0003070E0C0FFFFC0E070303070E0C0C0E0E0
:1012B0007030303030300000C0E070303070E0C04E
:1012C000FFFFC0E0703030303070E0C0C0C0FCFEC6
:1012D000C7C303070E0CF0F89C0C0C0C0C0CFCFCA8
:1012E000FFFFC0E070303070E0C000003030F3F33A
:1012F00000000000000000003030F3F30000FFFFAA
:101300000080C0E07030000000000303FFFF000019
:101310000000F0F03070E0E07070E0C0F0F0C0E08D
:1013200070303070E0C0C0E0703030303070E0C0FD
:10133000000000000000000000000C1E3F333333AB
:1013400033333F3F3F3F3030303030381F0F0F1FB7
:101350003830303030381C0C0F1F383030303030DF
:101360003F3F0F1F3B3333333333030300003F3F13
:10137000000000000000000133333333333B1F0F04
:101380003F3F0000000000003F3F000030303F3F83
:10139000303000000C1C383030381F0F00003F3F49
:1013A00003070F1C38300000000030303F3F303062
:1013B00000003F3F0000030300003F3F3F3F0000AD
:1013C000000000003F3F0F1F3830303030381F0F13
:1013D000F0F03030303030F0E0C0C0E0F03030308D
:1013E000E0C0F0F0F0F0C0E070303070E0C0C0E07D
:1013F000F0303030303000003030FFFF303000004F
:101400000000F0F0000000000000F0F0F0F000003C
:1014100000000000F0F0F0F0000000000000F0F02C
:101420003070E0C08080C0E07030F0F080000000DC
:101430000000F0F03030303030B0F0F070300000AC
:10144000C0E03C3E0703000000000000FFFF00007A
:101450000000000003073E3CE0C00000C0C0C0C068
:101460000C1CF8F0E0C0C0E0F0F81C0CC0C0C0C01C
:101470003F3F0303030303030100000103030303CE
:1014800003033F3F3F3F00000000000000003031F9
:1014900033333333333F1E0C00000F1F38303038E6
:1014A0001C0C0F1F383030381C0C3F3F03070E1C3C
:1014B00038381C0E07030F1F38381C1C38381F0F14
:1014C00030381C0F07070F1C38300001333333331B
:1014D000333B1F0F30383C3E373331303030000063
:1014E00000010F1F38300000000000003F3F0000E7
:1014F0000000000030381F0F010000000000000055
:101500000C0E07030100000103070E0C0000000091
:1015100040800804201002010102030401030204B8
:1015200004020301040302014D41564C4E4B0020BE
:10153000202054546D00457870457846466E654DC0
:10154000656443727300560048444700414C5400A0
:10155000434F4F520048444F500053415400202005
:101560004E4F3244334400475053004750530044D9
:10157000524F500042415454004D4F444500494E93
:10158000464F53005354414220204143524F2020A4
:1015900053494D504C45414C544920205741592006
:1015A00050544755494445444C4F49544552525470
:1015B0004C202020434952434C45504F53495449F5
:1015C0004C414E442020004D41564C494E4B004268
:1015D0004154545F4341504143495459004241549E
:1015E000545F4D4F4E49544F5200494E5F564F4C39
:1015F00054004C4F575F564F4C54004E41565F4C71
:101600004154004E41565F4C4F4E00484C445F4C95
:10161000415400484C445F4C4F4E005448525F4187
:101620004C54005354425F524C4C00524154455F5D
:10163000524C4C005354425F50495400524154455F
:101640005F504954005354425F594157005241542E
:10165000455F59415700E60C11241FBECFEFD0E182
:10166000DEBFCDBF11E0A0E0B1E0E2ECF3EE02C0DE
:1016700005900D92AA33B107D9F710E1AAE3B1E0C2
:1016800001C01D92A03CB107E1F716E1C8E5D6E123
:1016900004C02297FE010E94A271C635D107C9F786
:1016A0000E9465130C94DF710C9400009AE0899FEE
:1016B0009001112421553E4FC901089595E0899F5D
:1016C0009001112421513D4FC901089583E892E012
:1016D00008958C3038F4E82FF0E0EE0FFF1FEC5E39
:1016E000FA4F2CC0803188F4E82FF0E0EE0FFF1F96
:1016F000DF01AC5ABE4FEE54FB4F0190F081E02D5C
:101700008D919C91E81BF90B0BC0843160F4E82F9C
:10171000F0E0EE0FFF1FEE54FB4F0190F081E02D43
:10172000EE0FFF1F0EC0843218F0E0E0F0E009C0B9
:10173000E82FF0E0EE0FFF1FE650FB4F0190F08125
:10174000E02DCF0108950895E091BD04F0E0EE0F83
:10175000FF1FEB54FB4F80819181089580916300BE
:1017600090E09695879581708093DC04089510929F
:10177000C7041092C9041092C8041092C6040895B8
:10178000E5E5F1E0E80FF11DE491F0E0EE0FFF1F59
:10179000E152FB4F20813181C9010895AFEDB4E0E2
:1017A000EFEEF4E060E0862F806487B9369A2089F6
:1017B00031898D919C91119796958795820F931FF2
:1017C0008E7F11969C938E9340815181240F351FFB
:1017D00036952795318B208B349BFECF349A84B17C
:1017E00095B1840F951F96958795819391936F5F1F
:1017F00012966830C1F60895EFEDF4E050E013C0A2
:1018000067B9369A349BFECF349A84B195B1280FCC
:10181000391F4F5F4430A1F73695279521933193B7
:101820005F5F583031F020E030E040E0652F6064C9
:10183000E7CF0895EFEDF4E020E0822F806487B9D0
:10184000369A349BFECF349A84B195B1880F991F94
:10185000819391932F5F283081F708958EE587B9A2
:10186000369A349BFECF349A84B195B10496409158
:10187000090150910A019A01F3E0220F331FFA95F2
:10188000E1F7241B350B820F931FE3E096958795B4
:10189000EA95E1F790930A018093090108957894FD
:1018A0001F920F920FB60F9211248F938091DB0439
:1018B0008F5F8093DB048F910F900FBE0F901F906E
:1018C000189578941F920F920FB60F9211242F93B0
:1018D0003F934F935F936F937F938F939F93AF93B8
:1018E000BF93EF93FF932091800030918100F89493
:1018F00080917D008F7D80937D0078948091DD04C0
:101900009091DE04A901481B590B569547953093D9
:10191000DE042093DD042091DA04822F8150883088
:1019200048F5CA01815293408757954000F5E22F50
:10193000F0E0EE0FFF1FE853FB4F4C5D55408091E8
:101940008401992787FD90950A96BC01469FC001A6
:10195000479F900D569F900D11246AE070E00E9401
:101960005071718360832F5F2093DA040BC0109253
:10197000DA0408C0415A5F404F5D5E4218F481E0CE
:101980008093DA04F89480917D00806280937D00DA
:101990007894FF91EF91BF91AF919F918F917F913B
:1019A0006F915F914F913F912F910F900FBE0F90CC
:1019B0001F901895E1ECF0E101C0319680818535EA
:1019C000E1F39F01205C3041C90108958AE694E06B
:1019D0000E943F6408959C01E091BD04F0E0EE0F89
:1019E000FF1FED54FB4F318320838FEBF9010995E5
:1019F00089E00E942C66089578941F920F920FB68A
:101A00000F9211242F933F934F935F936F937F9384
:101A10008F939F93AF93BF93EF93FF93F89487B700
:101A20008D7F87BF789481B78E5F81BF8AE694E00F
:101A30000E946F64809111018150809311018F5F2A
:101A400061F48DE4809311010E94365E0E94136C54
:101A50008091E50E82608093E50EF89487B78260EE
:101A600087BF7894FF91EF91BF91AF919F918F9134
:101A70007F916F915F914F913F912F910F900FBE8A
:101A80000F901F901895AF92BF92CF92DF92EF9276
:101A9000FF920F931F93CF93DF93C82EB42E85E050
:101AA000841708F4FAC0CC2009F4F8C096E1C916EE
:101AB00021F0EAEECE1619F4F0C061E0EFC02C2D53
:101AC000332727FD3095C90137FF04C088279927A0
:101AD000821B930B8A3074F41C143CF08DE090E070
:101AE000821B930B0E94C35D24C0C9010D960E9406
:101AF000C35D1DC08A50E82EFF24D701AA0FBB1F6B
:101B0000AE0DBF1DAB56BE4FA85ABD4F8C91A85508
:101B1000B240882309F4C1C0F5E0BF1669F487EA32
:101B200094E0E80EF91EF70180811C1414F4682F6C
:101B3000B5C061E06827B2C0FD01EA5AFD4FD08010
:101B4000ED01C95ADD4FA880853008F4B3C0883054
:101B500028F400E010E0E0E0F0E00AC08D2D8150B4
:101B60000E94690B8C01888181500E94690BFC01E5
:101B7000E701CC0FDD1FCE0DDF1DC351DC4F2881E7
:101B8000283088F42530E8F5223009F467C0233086
:101B900020F4213009F071C05CC02330D1F0243032
:101BA00009F06BC022C02A3009F453C02B3038F43E
:101BB000283009F444C0293009F05FC045C02C30FA
:101BC00009F451C02C3008F449C02D3009F055C03B
:101BD0004FC020E0C80117FF03C0909581959F4F2B
:101BE000E817F9070CF04CC04AC020E0C80117FF05
:101BF00003C0909581959F4F8E179F070CF040C0B2
:101C00003EC01B2D1F5F8D2D60E0412F0E94430DB4
:101C1000082F8A2D60E0412F0E94430D9881953056
:101C200019F4002351F104C0963029F4002339F54A
:101C3000882329F522C020E0081709F521C020E0FB
:101C40000E171F07E9F41BC020E00E171F07B9F499
:101C500017C020E0E017F1079CF411C020E00E1738
:101C60001F0774F40CC020E00E171F074CF007C0CC
:101C700020E0E017F10724F002C020E001C021E0DD
:101C800087EA94E0E80EF91EF70120831C1414F48F
:101C9000622F04C061E0622701C060E0862FDF91FF
:101CA000CF911F910F91FF90EF90DF90CF90BF9059
:101CB000AF9008958D2D81500E94690B8C01988101
:101CC00089E29802F0011124F595E795F595E795DD
:101CD00097FD915C96FB990F990B90F9892F9927A5
:101CE00087FD9095E81BF90B43CF8F929F92AF929F
:101CF000BF92CF92DF92EF92FF920F931F93CF93F9
:101D0000DF93182F7B014A015901C02E84FD04C0C6
:101D100064E0D62E05E005C01F70106655E0D52E94
:101D200004E08D2D8066181761F08D2D80641817E2
:101D300041F090914305992359F0133611F0133473
:101D400039F4E701219685E00E942C66802F16C0A9
:101D5000802F8066181761F0802F8064181741F07B
:101D6000992309F471C0123619F0123409F06CC0CD
:101D7000E701219786E00E942C668D2D90E00E945D
:101D8000C35D882351F0CC27DD27CE19DF09802FD2
:101D90000E94255E8D2D0E94255E8114910491F490
:101DA00081E0A816B10471F4103661F41092430575
:101DB000C0E0D0E0E114F10411F4C1E0D0E080E62D
:101DC0000E94255E8091C1049091C204C81BD90B6A
:101DD000AC16BD0644F4812F0E94255E85E00E946A
:101DE0002C66E5010AC0C815D9053CF4812F0E9474
:101DF000255E86E00E942C66E401CE15DF05A1F089
:101E0000209751F4812F0E94165EF7FE02C085E0F4
:101E100001C086E00E942C668C2D83700E943B528C
:101E200081E08093BE0402C01092BE04CE01DF9117
:101E3000CF911F910F91FF90EF90DF90CF90BF90C7
:101E4000AF909F908F900895E701A7CF0F937727CA
:101E500067FD7095552747FD5095332727FD309531
:101E60000E94750E0F9108950F93772767FD709567
:101E7000552747FD5095332727FD309501E00E94F7
:101E8000750E0F9108950F93772767FD709555276D
:101E900047FD5095332727FD309502E00E94750ECF
:101EA0000F9108951F93CF93DF93682F782F7F7042
:101EB00076502091A70122306CF0332727FD309512
:101EC0002150304081E090E002C0880F991F2A9590
:101ED000E2F7282F783008F09FC0872F8595A82F2C
:101EE000B0E0FD01EE0FFF1FE050FF4F0190F081C9
:101EF000E02D1081222311F0422F10C0412F5527D1
:101F000047FD509557FF03C0509541955F4F242FD3
:101F100047FD2D5F422F459545954F5F20917E01EE
:101F200030E02170307082E090E0821B930B8A17C2
:101F30009B0711F050E00CC08091A6018F7011F446
:101F400050E002C044E051E08091800180FD419565
:101F5000812F992787FD9095242F332727FD3095D2
:101F600070FF04C0E901C80FD91F03C0EC01C21BF8
:101F7000D30B209721F0812F8D2787FF0CC055238D
:101F800051F4112341F01082862F0E94255E88E0D3
:101F90000E942C6640C0CE0184589F4F893F910516
:101FA000B0F4C08386E00E943B52CE0183589F4F1D
:101FB0008B3F910580F59E01D7FF03C03095219599
:101FC0003F4F3595279535952795422F1EC01C16F6
:101FD0001D0614F083E801C08DE7808386E00E942F
:101FE0003B52CE0183589F4F8B3F9105A0F4CE0109
:101FF000D7FF03C0909581959F4F64E070E00E94E9
:102000005071AB01509541955F4F445C8AE694E076
:1020100067E00E94786560E0862FDF91CF911F9185
:102020000895EF92FF920F931F93F89420912C0E36
:1020300030912D0E789440E0809112059091130517
:102040002817390709F041E04093C304F8948091C0
:102050002C0E90912D0E7894909313058093120579
:1020600088E495E060E00E94711A8091C30488239F
:1020700009F419C18091C60480FF14C09091C7046F
:10208000892F8F5F8093C704843660F093569093B6
:10209000C7048091C8049091C90401969093C90423
:1020A0008093C80480E00E944E520E94255D0E94E9
:1020B000335D0E94520FE82E8091C4049091C504B4
:1020C000009729F001979093C5048093C404EE20F3
:1020D00089F08091820190E024EF31E0AC01429FD1
:1020E000C001439F900D529F900D11249093C50401
:1020F0008093C40480916B0160E040E00E94430D36
:10210000882339F48091C4049091C504892B09F483
:10211000C8C0C79A20912005309121058091BF0445
:102120009091C004821B930B60E270E00E9450719A
:102130007093C2046093C1046115710591F08091A0
:10214000100590911105821B930B62E070E00E94D4
:1021500050717093C2046093C1043093C004209303
:10216000BF0430931105209310058091800185FFF5
:1021700004C01092C2041092C104E091BD04F0E0CA
:10218000EE0FFF1FED54FB4F0190F081E02D8E2DDF
:1021900009950E94F25C8091630090E09695879586
:1021A00081708093DC04882321F0809165008F7E0C
:1021B00003C080916500806180936500F8948091F0
:1021C0002C0E90912D0E78948F719070029709F0DB
:1021D0006AC0ECE5F1E0E491F0E0EE0FFF1FE152A0
:1021E000FB4F60817181882777FD8095982F0E9431
:1021F000FA6F2BE734E146ED50E40E94AE707B01AC
:102200008C0160916A012AE06202B001112480E031
:1022100090E00E94F86F9B01AC01C801B7010E94D9
:10222000F76E0E94C76FDC01CB0164E670E00E948C
:10223000507180910801680F711D759567956093C5
:10224000080180910F05805E80930F05882399F423
:1022500080916901681778F4623368F083E10E9425
:102260002C668091800183FF06C082E390E090930A
:10227000C5048093C40480910F058038A1F4809137
:10228000EE0E882381F083E10E942C66809180010C
:1022900083FF09C082E390E09093C5048093C40457
:1022A00002C0C79837CF1F910F91FF90EF9008950C
:1022B000E0918101F0E0EE0FFF1FE55FFE4F01901E
:1022C000F081E02D09958EE587B90E9411100E94DA
:1022D0002E0C8091E50E833019F4A8951092E50E2E
:1022E00008950F931F938C010E94255D82E260E0A8
:1022F00048E951E024E00E942B5A80E068E1A801FF
:102300000E945E5A0E94F25C809168010E94E85C23
:102310001F910F91089586B380958E77E1F70E9403
:10232000305D0895FF920F931F938C01F62E0E944B
:10233000255D82E260E042E951E024E00E942B5AF0
:1023400080E068E1A8010E945E5A8CE168E344E8FD
:1023500051E00E945E5A0E94F25CFF2011F089E178
:1023600002C0809168010E94E85C84E00E942C66B3
:102370000E948B1186B380958E77C9F48091E50E0B
:10238000833019F4A8951092E50E80916B0160E0FE
:1023900040E00E94430D882331F48091820188231C
:1023A00011F4FF2011F0C79AE5CFC798E3CF1F9132
:1023B0000F91FF900895CF93DF93EC019091BD04AE
:1023C000892F8F5F8093BD04853040F09093BD04CA
:1023D0008DE591E060E00E9492110FC089E00E94BB
:1023E0002C66E091BD04F0E0EE0FFF1FED54FB4FB3
:1023F000D183C0838FEBFE010995DF91CF910895C2
:102400009091BD04992319F4882331F418C08823CE
:1024100019F4892F815001C080E08093BD0489E0C8
:102420000E942C66E091BD04F0E0EE0FFF1FED541A
:10243000FB4F0190F081E02D8EEB0995089580E728
:1024400091E060E00E94921108958091A604882393
:1024500051F08BEC91E060E00E9492118091A60413
:102460008E7F8093A604089580917D0187FD07C02B
:10247000887329F486EF91E060E00E94921108953C
:1024800080917D0182FD0AC00E945155883C9105D2
:1024900028F483E492E060E00E94921108951F9373
:1024A000CF93DF9386B380958E7721E030E0682F5D
:1024B00070E0422FCB01022E02C0959587950A94B9
:1024C000E2F780FD06C04F5F2F5F3F4F2830310598
:1024D00081F7142F11501630A8F5812F0E94F45265
:1024E000882381F110936701812F0E94425481E07B
:1024F0000E943B520E94255D86E160E040EA51E087
:1025000024E00E942B5AC5E9D1E01AE0812F68E14E
:10251000499124E00E943559155F1837B9F70E9498
:10252000F25C809168010E94E85C80916B018823D5
:1025300021F480918201882311F0C79A01C0C798C5
:102540000E948B11DF91CF911F910895EF92FF921E
:102550000F931F938C017B010E94255D82E260E056
:102560004DE352E024E00E942B5A80E060E2A80193
:102570000E945E5A80E068E2A7010E945E5A80E0F5
:1025800060E347E252E00E945E5A0E94F25C809152
:1025900068010E94E85C0E948B111F910F91FF90CF
:1025A000EF9008951F9380917D0181FD2EC08AEBED
:1025B00091E068EA71E00E94A6121EE00BC01131A2
:1025C00041F0812F8D5060E040E00E94430D882350
:1025D00029F41F5F163198F31631B9F086B3809550
:1025E0008E7799F406C080918201882359F0C79AAA
:1025F0000AC080916B0160E040E00E94430D882397
:10260000B1F7F1CFC7981EE0DCCF1F9108950F936B
:102610001F93CF93DF9380917D0180FD51C0809106
:102620007E0190E081709070C2E0D0E0C81BD90BB1
:10263000FE01EE0FFF1FE65CFE4F01811281005F7D
:102640001F4F87859089081B190B0E941A0CEC2FCD
:10265000F0E0EB5AFE4F8491C82FD0E0CC0FDD1F85
:10266000C152DB4F88819981081719074CF586B351
:1026700080958E7729F512C00E941A0C8881998165
:1026800008171907ECF486B380958E77C9F40DC04E
:1026900080918201882391F0C79AEECF85E192E084
:1026A00066E072E00E94A612E7CF80916B0160E0C5
:1026B00040E00E94430D882379F7EACFC798DCCF2A
:1026C000DF91CF911F910F9108951F939FEF9ABBB8
:1026D0001BBA81E887BB8EE788BB8EE384BB81ECA5
:1026E00085BB11BA92BB88E082B987EF83B910929B
:1026F00061001092620084E1809364008BEF80930C
:1027000065000E94AD5C0E94EE6E80E487B985E8AA
:1027100086B987E083BF8CE981BF87B7836087BFB5
:102720001FBC8AE08EBD10928B0082E880938A00E5
:1027300080917D00806280937D00EDB7FEB7329777
:1027400085E502C08083319740E1E03CF40709F061
:10275000C8F778948FE196E29093B4048093B30421
:1027600089E10E94E85C0E947A54109167010E94FE
:102770004F1280918901813039F48091800184FD6C
:1027800003C080E00E942C660E9440120E941A0C36
:102790000E9407130E94D2120E9434120E94251236
:1027A0000E948B1180EF90E090930A0180930901C1
:1027B0000E942F632DE088E190E00FB6F894A89571
:1027C00081BD0FBE21BD88E495E060E00E94711AD2
:1027D0008BEF9DE30E94DB1181E00E94001280914B
:1027E00068010E94E85C8091820190E024EF31E072
:1027F000AC01429FC001439F900D529F900D112448
:102800009093C5048093C40480916701181729F040
:1028100081E00E943B520E94E4520E94EE6E80EDE5
:1028200097E09BBD8ABD80E186BF87B7806187BF87
:102830000E945811FDCFEF92FF920F931F93082F24
:10284000F62E142FE22E442329F0463139F04A3E69
:1028500081F408C08A5F4BEC52E007C08A5F47EC06
:1028600052E003C08A5F43EC52E02E2D0E942B5AA7
:102870001CC0441F4427441F405E0E943559802FCE
:102880008A5F212F332727FD309537FF03C030950E
:1028900021953F4F43E02402A001112440585D4F91
:1028A0006F2D23E00E2D0E94F0591F910F91FF9084
:1028B000EF900895DF92EF92FF920F931F93F82EFF
:1028C000E62ED42E1091A001812F992787FD909597
:1028D00097FF03C0909581959F4F80319CF443E012
:1028E0008402A00111244E5A5D4F8F2D6E2D23E0DE
:1028F0000D2D0E94F0591F3F4CF58F2D86506E2DE7
:1029000041E221C0853274F411161CF4412F4F505E
:1029100002C0412F415F8F2D86506E2D2D2D0E94BC
:102920001B1414C011161CF4412F445202C0412F35
:102930004C5D8F2D86506E2D2D2D0E941B148F2DDA
:102940008E5E6E2D4DE62D2D0E9435591F910F91F3
:10295000FF90EF90DF9008950F93022F50E0440F07
:10296000551F440F551F41535D4F24E00E94F059FD
:102970000F9108950F93782F342F022F442319F4C9
:102980004DE953E023C04530B8F480917E0190E0DA
:10299000880F991F880F991F41E050E0481B590B81
:1029A000431B5109440F551F440F551F5095419526
:1029B0005F4F4C5E5E4F09C0473258F450E0440F01
:1029C000551F440F551F40505D4F872F24E00E9434
:1029D000F0590F9108950F931F93062F122F206225
:1029E00050E00E947C5C17FD07C08091FE0D602FB7
:1029F00046E7212F0E9435591F910F910895242FEA
:102A0000409108010E94EB140895AF92BF92CF92BB
:102A1000DF92EF92FF920F931F93CF93DF93F82EE5
:102A2000B62EEA01122FA02E57FF10C022FD02C0C1
:102A30008FE001C08CE19F2D981B892F6B2D4DE2FB
:102A4000212F0E943559D095C195DF4F2A2D212382
:102A50008F2D6B2D4AE30E943559812F90E0F4E0D1
:102A6000CF2ED12CC822D92212FD02C0E0E001C035
:102A7000E2E0CE016CE370E00E9450719B014427BC
:102A800037FD4095542F10618E2F8F0D6B2D012F28
:102A9000E2E0EE2E0E943C5BCD2811F4E1E101C0A2
:102AA000ECE1CE016CE370E00E9450719C01442780
:102AB00037FD4095542F80E1A82A8E2F8F0D6B2D66
:102AC0000A2D72E0E72E0E943C5BDF91CF911F91AF
:102AD0000F91FF90EF90DF90CF90BF90AF9008954F
:102AE00099E289029001112435952795359527950E
:102AF00087FD815C86FB880F880B80F9992787FD0D
:102B00009095281B390BC90108958DEF9AE008951F
:102B1000EFEAF1E090E080818150803108F49F5F1E
:102B20003A9682E0EF3EF807B1F7892F08956F9249
:102B30007F928F929F92AF92BF92CF92DF92EF924D
:102B4000FF920F931F933B017C0100E010E088246B
:102B5000992464E670E080E090E0661977098809BE
:102B60009909A80197010E9411715B016C0182E330
:102B700090E0A0E0B0E0A80EB91ECA1EDB1EC8019E
:102B8000B7010E9411710E941171BC018827992719
:102B9000A40193010E94117124E096958795779581
:102BA00067952A95D1F7A60EB71EC81ED91EC60175
:102BB000B50124E630E040E050E00E946371C901B5
:102BC0001F910F91FF90EF90DF90CF90BF90AF904B
:102BD0009F908F907F906F900895FF920F931F9317
:102BE0009C01AB016115710531F1FF2497FF05C010
:102BF000FF24F394309521953F4F57FF10C000E01C
:102C000014E066277727641B750BC801821B930BA2
:102C10000E9497159801281B390BC90104C0C901EE
:102C2000BA010E949715FF2011F49C0104C02227CD
:102C30003327281B390BC9011F910F91FF9008956D
:102C4000282FE6E8F8E080E09491921731F0319671
:102C5000992311F08F5FF8CF80E00895823410F04F
:102C600080E20895E82FF0E0EA57F74F8491089545
:102C700010929B061092940610929306109298065A
:102C800010929706109296061092950610929A0648
:102C9000109299060895AF92BF92CF92DF92EF9271
:102CA000FF920F931F93CF93DF935B016C0100E0C2
:102CB00010E8C0E0D0E8EE24FF249E0140E050E0A0
:102CC000CA01B9010E941171A616B706C806D90635
:102CD00010F4C027D127169507950894E11CF11C24
:102CE00080E1E816F10461F4CE01DF91CF911F91EC
:102CF0000F91FF90EF90DF90CF90BF90AF9008952D
:102D0000C02BD12BDACF9C0140E0683008F041E0C5
:102D100070E0442371F0CB010897FC0163E0EE0FF3
:102D2000FF1F6A95E1F7E80FF91FDF01AD55BC4FB2
:102D30000AC0FB01EE0FFF1FEE0FFF1FE60FF71F8C
:102D4000DF01A558BC4FFD01808120503C4F37FD6D
:102D50000EC068E02030360784F0442319F484E084
:102D600090E002C088E090E0A80FB91F8C919927ED
:102D700087FD9095582F442733C0442331F0432FCB
:102D8000B9017070660F771F04C0432F4695B901D3
:102D90007170842F90E0FD01E80FF91F8181992760
:102DA00087FD90959B0135952795829FA001839F74
:102DB000500D929F500D11242081332727FD30950F
:102DC00080E092E0861B970B95958795BC01269F26
:102DD000C001279F900D369F900D1124480F591F59
:102DE000CA0169E170E00E945071CB010895482F3B
:102DF00018161CF0109242050895282F332727FD3E
:102E0000309580914205281B3109862F90E082176A
:102E1000930724F4461B409342050895069728170C
:102E2000390724F44A5F461B4093420508950F93E7
:102E3000982F83E0489FA00111244151554F00E095
:102E4000211101E0892F23E00E94F0590F9108958C
:102E50000F93982F83E0489FA00111244A50554FAB
:102E600000E0211101E0892F23E00E94F0590F9129
:102E70000895FF920F931F93F82E162F042F80E8CA
:102E800060E0412F50E0202F0E947C5C1A3010F44B
:102E900085E701C08FE660E04FE2202F0E943559A0
:102EA0001A3010F485E701C08FE64F2D50E04F5FD8
:102EB0005F4F60E0202F0E947C5C1F910F91FF907C
:102EC0000895FF920F931F93CF93DF93082F1091D4
:102ED000A001812F992787FD909597FF03C09095BA
:102EE00081959F4FF82E24E228170CF03FC02091C7
:102EF0009C0830919D0880919A0890919B08282BFE
:102F0000392B80919E0890919F08282B392B809116
:102F1000990890E0282B392B8091960890E0282B77
:102F2000392B232B39F41092960817FF03C081E048
:102F30008093960811161CF4812F845202C0812FB1
:102F40008C5D60E040E00E94430D282F882361F0F3
:102F500080919608882341F490E080919908882315
:102F600009F491E09093990820939608C0919C08E9
:102F7000D0919D082196D0939D08C0939C08E09124
:102F80009A08F0919B08E00FF11DF0939B08E093E5
:102F90009A08F89480912C0E90912D0E789420919F
:102FA0009E0830919F08821B930B8436910508F48C
:102FB0005EC12C593F4F30939F0820939E08CF014C
:102FC000BE010E943C71062F862F90E0AC014C9F01
:102FD000C0014D9F900D5C9F900D1124E81BF90BD3
:102FE000F0939B08E0939A0810929D0810929C0819
:102FF0005FE05F151CF01092990810C084E28F15F5
:103000006CF011161CF4812F8F5002C0812F815F4C
:1030100060E040E00E94430D809399088091910602
:103020009091920601969093920680939106E0917A
:103030009306F09194063196F0939406E0939306EC
:10304000002349F0809197069091980601969093FD
:1030500098068093970680919908882349F080917B
:103060009506909196060196909396068093950604
:1030700006954091990650919A06400F511D509324
:103080009A06409399066091A2017091A3017093F2
:103090009D0660939C063091A001832F992787FDA0
:1030A000909597FF03C0909581959F4F882319F4C1
:1030B00010929B0622C0813021F4CB018E1B9F0B06
:1030C00018C0803170F480FF07C0CA01E4E0969513
:1030D0008795EA95E1F709C0809197069091980647
:1030E00004C08091950690919606AB01481B590B40
:1030F000CA0190939D0680939C0680919B06813027
:1031000041F0813018F0823001F50FC03323E9F02F
:1031100019C080919C0690919D0618161906ACF076
:103120006115710591F082E00EC080919C0690912E
:103130009D06855C9F4F1CF483E080939B06611580
:10314000710519F481E080939B0620919C063091D3
:103150009D0680919708909198088217930709F42B
:1031600070C080919B06813009F05CC08091800125
:1031700082FF3CC0672BD1F12E31310519F48EE06E
:103180000E942C6680919C0690919D06449719F4AC
:103190008FE00E942C6680919C0690919D060A9774
:1031A00019F480E10E942C6680919C0690919D0606
:1031B00004971CF481E10E942C668091800183FFBA
:1031C00015C080919C0690919D068E31910541F02D
:1031D0008431910529F08A30910511F0049734F477
:1031E00082E390E09093C5048093C40480918001B1
:1031F00081FF27C08091A10120919C0630919D06FE
:1032000080FF07C08091A2019091A301821B930BC4
:1032100001C0C9016CE370E00E943C71892B89F404
:1032200081E003C0823069F481E10E942C668091C4
:10323000800183FF06C082E390E09093C5048093F1
:10324000C40420919C0630919D06309398082093E9
:1032500097088091A10180FF0AC08091A2019091FE
:10326000A301821B930B90939D0680939C06DF9194
:10327000CF911F910F91FF9008958091A001992700
:1032800087FD909597FF03C0909581959F4F823061
:103290004CF180313CF5982F95958A3034F4892F84
:1032A0000E94035FE82FF0E004C0E92FFF27E7FD4D
:1032B000F0953197EE0FFF1FEC5EFA4F20813181C0
:1032C0008091A00187FF05C080E094E0821B930BF2
:1032D00003C0C90180509C4F26E0969587952A959A
:1032E000E1F702C080E090E00E94611783E00E9455
:1032F000035FE82FF0E0EE0FFF1FEE5EFA4F019044
:10330000F081E02DE050FC4FA6E0F695E795AA95F8
:10331000E1F78091A10182FF0AC0E530F10538F0A4
:103320008091C604882319F483E08093C6046091D9
:103330009208709193086F5F7F4F7093930860932A
:10334000920840919008509191084E0F5F1F509342
:10335000910840939008F89480912C0E90912D0E36
:1033600078942091940830919508821B930B885E85
:10337000934060F1F89480912C0E90912D0E7894EA
:103380009093950880939408109291081092900859
:103390001092930810929208809117079091180745
:1033A0000196909318078093170720911607E22F34
:1033B000F0E0E256F94FCA010E943C7160832F5F32
:1033C00020931607283710F01092160708950F93D0
:1033D0001F93CF93DF9386E291E0E8E6F5E0DF010B
:1033E0009C011D9221503040E1F790918E06CFEA6A
:1033F000D1E000E010E051E060E04881442309F4AE
:1034000040E1041750F5202F712F352F2F5F872FA4
:1034100090E0FC01EE0FFF1FE80FF91FEE0FFF1FFA
:10342000DF01A859BA4F11962C9311978C918160A6
:103430008C93E659FA4F30833F5F14966C937F5F0D
:10344000241720F3802F8095042F952F9F5F980FCE
:10345000180F140F940F592F515078817723D1F101
:10346000812F90E09C01220F331F280F391FD901B3
:10347000AA0FBB1FA859BA4F11964C9311971596D6
:103480006C9315978C9182608C9313965C93139731
:103490005F5F8A85F9013196781741F4EE0FFF1FBF
:1034A000E859FA4F108214961C920AC0EE0FFF1FC3
:1034B000E859FA4F50835F5F6F5F14966C936150C9
:1034C000952F6F5F2A96603219F450938E0604C0D0
:1034D0001F5F93CF90938E06DF91CF911F910F9135
:1034E00008952F923F924F925F926F927F928F92A8
:1034F0009F92AF92BF92CF92DF92EF92FF920F9383
:103500001F93DF93CF93CDB7DEB76C970FB6F894C8
:10351000DEBF0FBECDBF9B8F8A8F6C8F8091C3049F
:10352000882309F470C080914405882319F08150E4
:103530008093440580917F01863F09F464C08091A7
:103540000801823308F45FC08091A5078F5F8093E4
:10355000A507803158F08091A6079091A7070196A2
:103560009093A7078093A6071092A50720911907AB
:1035700030911A0780911B0790911C07280F391F63
:1035800080911D0790911E07280F391F80911F07FA
:1035900090912007280F391F8091A8079091A907C3
:1035A000A901481B590BCA0157FF03C0909581958B
:1035B0009F4F8150914044F03093A9072093A80772
:1035C0001092A7071092A6074091A6075091A7074F
:1035D00080917F01992787FD90950A9627E731E032
:1035E000BC01629FC001639F900D729F900D1124DA
:1035F0008417950740F4437050704130510519F419
:1036000082E10E942C6680917E01782F71707F5F2D
:10361000798B81FD03C083E0888B01C0188A90906C
:10362000AD01992009F44BC09989E92FF0E0EE0F24
:10363000FF1FEC5EFA4FE080F1800027F7FC009559
:10364000102FA889EA2FF0E0EE0FFF1FEC5EFA4F73
:1036500020813181442737FD4095542FCA01B9019B
:103660000E9411715B016C01C801B701A8019701AB
:103670000E941171A60EB71EC81ED91E692D70E0DA
:1036800080E090E00AE0660F771F881F991F0A9577
:10369000D1F724E630E040E050E00E948571B901A6
:1036A000CA010E9411716A157B058C059D0538F4CD
:1036B000C601B5010E944B169C8B8B8B02C01C8AE5
:1036C0001B8AEB89FC89BF0180E090E024E630E0B2
:1036D00040E050E00E9411716E8B7F8B888F998F34
:1036E0001BE3612E11E0712EBBE44B2EB3E05B2E89
:1036F0001D8ACC24DD2488249924FC8D2F2E33248C
:1037000021E022223324BC2C8C2D0E94C00B9C0172
:10371000D3018D919C911197281B390B121613061A
:103720002CF45C96ED91FC915D9705C0D3011E963B
:10373000ED91FC911F97E436F10514F4E4E6F0E016
:10374000B901882777FD8095982FAAE0660F771F2B
:10375000881F991FAA95D1F79F01442737FD4095EF
:10376000542F0E9485717901BCEF21303B0724F46E
:10377000E12CFCEFFF2E07C0E4E020303E071CF0F8
:10378000E12CE4E0FE2E8091800180FF10C080914A
:103790007E0190E08170907022E030E0281B390BB0
:1037A000C216D30621F4F094E194F108F394F401E5
:1037B000EC5EFA4FF182E082C7010F964F97F0F46A
:1037C00034E0C316D1047CF48B2D8F5F0E94035F1D
:1037D00090E0019741E050E002C0440F551F8A95E8
:1037E000E2F7CA0108C081E090E00C2C02C0880F0B
:1037F000991F0A94E2F75D89582B5D8B63E06B1586
:1038000008F47CC1222009F05BC08091A10181FFF6
:1038100057C08601000F111F0C581E4FD80111967A
:103820008C911197807C09F44BC08C91859585957E
:10383000859561E040E00E94430D882309F440C073
:10384000D801EC91E770F0E0EE0FFF1FDF01A45903
:10385000BE4FE653FB4F808191812D913C91821B9D
:10386000930B62E070E00E945071F601EE0FFF1FB3
:10387000EB58FE4F4081842F880F880F85958595E2
:10388000992787FD9095FC016E9FC0016F9F900D59
:103890007E9F900D11246FE170E00E945071CB016A
:1038A000880F991F880F991F42954695469543703A
:1038B000413021F0423021F47C0102C0E80EF91EB3
:1038C0002B893C89232B01F13989B31619F04889DA
:1038D000B416D1F46091AD0170E080E090E00AE0B0
:1038E000660F771F881F991F0A95D1F79701442704
:1038F00037FD4095542F0E9411712E893F89488DC4
:10390000598D0E9485717901D2018C9160E040E06F
:103910000E94430D882311F400E00BC0F201818165
:1039200060E040E00E94430D882311F002E001C0F6
:1039300001E080917E0190E08170907012E0A12EF4
:10394000B12CA81AB90AAC14BD0461F58091A60186
:10395000807F41F1C70180509C4F62E070E00E947F
:103960005071CB01E02FF0E0EE0FFF1FEE0FFF1FB5
:10397000A601440F551F9A0173E0220F331F7A9559
:10398000E1F7241B350BE20FF31FE15CFC4F608174
:10399000772767FD70950E94ED15DC01AA0FBB1F0C
:1039A00010E026C010E01E141F040CF011E0802F60
:1039B00090E09601220F331FF90143E0EE0FFF1F45
:1039C0004A95E1F7E21BF30B880F991F880F991FA7
:1039D000E80FF91FEB56FE4FE10FF11DE655FE4FC4
:1039E0006081772767FD7095C7010E94ED15DC01A6
:1039F000E02FF0E0EE0FFF1FEE0FFF1F9601220FEA
:103A0000331FC90103E0880F991F0A95E1F7821B54
:103A1000930BE80FF91FEB56FE4FE10FF11DE45534
:103A2000FE4F6081772767FD70956C597F4F88271F
:103A300077FD8095982F9D01442737FD4095542FA1
:103A40000E94117124E630E040E050E00E94857150
:103A50007901AC14BD04D9F59091A601892F807F1E
:103A600009F43FC720E03CEFE20EF31E3AC7F50130
:103A7000EE0FFF1FE050FF4F0190F081E02D6081BD
:103A80008091800180FD6195772767FD7095872F74
:103A9000972F63587F4F8F4F9F4F20E034E02E19B0
:103AA0003F09442737FD4095542F0E94117120E0B3
:103AB00038E040E050E00E948571C901DA018030B1
:103AC00038E0930730E0A30730E0B30761F4F40176
:103AD000E050FF4F0190F081E02D8081282F3327A7
:103AE00027FD309501C09C01220F331FE1E0F0E07B
:103AF000EC0FFD1FE80DF91D31832083F401E75E13
:103B0000F84FF182E0820894C11CD11C42E050E0E1
:103B1000640E751E840E951E6EE070E0460E571EF4
:103B200077E0C716D10409F0EECD1091AA018D8976
:103B30001823212F30E08091AA0790E08227932755
:103B400082239323892B19F08AE00E942C6610931C
:103B5000AA0780E094E0909328078093270790932A
:103B60002A0780932907F1E32F2EF7E03F2EB101BA
:103B700040E050E0FA01E653FB4FDA01A65CBE4F8D
:103B800080819181D2962D913C91D397821B930B8A
:103B9000880F991FDB018D939D93BD014E5F5F4F91
:103BA0004830510539F78091D2049091D304880FA1
:103BB000991F90933A07809339078091D40490918C
:103BC000D504880F991F90933C0780933B07809101
:103BD000D6049091D704880F991F90933E07809345
:103BE0003D078091D8049091D904880F991F909334
:103BF000400780933F07E5E6F7E0FA87E987A1E40D
:103C0000B7E0808191818D939D93349627E0E53ACA
:103C1000F207B9F75090AD01552009F489C03989F0
:103C2000832E9924880C991C49E157E0840E951E37
:103C3000D401ED90FC900027F7FC0095102FB88977
:103C40006B2E7724660C771C640E751EF3012081A1
:103C50003181442737FD4095542FCA01B9010E9494
:103C600011715B016C01C801B701A80197010E94A5
:103C70001171A60EB71EC81ED91E652D70E080E01A
:103C800090E01AE0660F771F881F991F1A95D1F7E9
:103C900024E630E040E050E00E948571B901CA019D
:103CA0000E9411716A157B058C059D0508F040C0C6
:103CB000C601B5010E944B16A0E0B0E0BC01CD01E9
:103CC00024E630E040E050E00E9411715B016C019D
:103CD000E090AD01FF2400E010E0BAE0EE0CFF1C24
:103CE000001F111FBA95D1F7D4012D913C914427A3
:103CF00037FD4095542FC801B7010E941171A601EC
:103D000095010E948571F40131832083D3012D91A7
:103D10003C91442737FD4095542FC801B7010E94BC
:103D20001171A60195010E948571F30131832083F1
:103D3000B090AB018B2D807E09F4E3C02989E22F7E
:103D4000F0E0EE0FFF1FDF01A75EB84F6D917C9191
:103D5000DE011196EA0FFB1F408151813889832FC4
:103D600090E0880F991FFC01E75EF84F0190F08109
:103D7000E02DA80FB91F2D913C918C8D81FF05C0BE
:103D8000CC24DD24EE24FF2406C06A01C60ED71E13
:103D90007901EE0EFF1EE091AC01EE2319F400E074
:103DA00010E007C0F0E0EE0FFF1FE95EF84F008162
:103DB0001181B2FE04C0D094C194D108D394B3FE53
:103DC00004C0F094E194F108F394B4FE03C010959C
:103DD00001951F4F8091AB01829586958770823047
:103DE00079F1833020F4813009F08BC007C0833033
:103DF00009F45BC0843009F084C06FC0C70160E083
:103E000072E00E945071FB01C70168E070E00E94FF
:103E100050719B01C70160E870E00E945071D701AA
:103E2000A21BB30B9D01261B370B2E1B3F0BC8019A
:103E30008C199D0990932C0780932B07C60121C0F4
:103E4000C60160E072E00E945071FB01C60168E0AB
:103E500070E00E9450719B01C60160E870E00E9412
:103E60005071A601421B530B9A01261B370B2E1BC8
:103E70003F0BC8018E199F0990932C0780932B0745
:103E8000C70162E070E00E945071600F711FCB01AA
:103E9000820F931F90932E0780932D07621B730B45
:103EA0007093300760932F072CC0C8018C199D09AF
:103EB00090932C0780932B07C8018C0D9D1D9C01AE
:103EC0002E0D3F1D30932E0720932D078E199F092D
:103ED0009093300780932F0714C0C8018C199D0957
:103EE00090932C0780932B07C8018E0D9F1D9093F4
:103EF0002E0780932D070E191F091093300700938A
:103F00002F078091C304882311F00E943D1980E49B
:103F1000E5E6F7E0DF011D928A95E9F7BC8DB1FF78
:103F200028C0A9E1B7E0FE01319620E030E042E090
:103F300050E080917E0190E081709070BA01681B22
:103F4000790B6217730729F011961C921E92118249
:103F500010822F5F3F4F129632962430310549F779
:103F6000D1011D921D921D01B9E32B16B7E03B064E
:103F7000B9F787E793E090930101809300010196E0
:103F80009093030180930201019690930501809321
:103F90000401019690930701809306013BEE632E86
:103FA00037E0732E2BEA222E27E0322E9BE6492E95
:103FB00098E0592E1A8A1F868F850E94560B5C0145
:103FC000FC0180818150803108F039C3838161E038
:103FD00040E00E94430DD2019C918823E9F4192FFF
:103FE0001C92F5019181892F8850823028F09532FA
:103FF00019F0963209F012C3D50117968C918E7084
:10400000843009F40BC3993019F0CC24DD2450C05E
:10401000C12C8CEFD82E4CC010E0992309F411E08C
:1040200081E0F2018083D50111963C91832F81506C
:10403000A82FB0E0FD01EE0FFF1FE75EF84FC08034
:10404000D180843158F0EF858E1740F4AA0FBB1F42
:10405000AA0FBB1FAB59B84FCD90DC90D501179676
:104060002C91822F807381F0822F8295837090E053
:104070000197E1E0F0E002C0EE0FFF1F8A95E2F742
:10408000CF01FA89F82BFA8B26FF12C0353080F465
:10409000E32FF0E0EE0FFF1FE250FF4F28E030E08B
:1040A000A20EB31EB182A08248EF5FEFA40EB51E30
:1040B000D50111969C91892F8552823008F054C009
:1040C000F2018081882311F0112321F480911A01DB
:1040D0008F3F21F520911A01953211F04FEF01C069
:1040E00041E030E0240F2770822F992787FD9095BB
:1040F000FC01EE0FFF1FE80FF91FEE0FFF1FE65C3C
:10410000FB4F8081807F21F0822F0E94BD600AC01A
:104110003F5F383039F78FEF0E94BD6080911A0100
:1041200087FD7CC280911A01992787FD9095FC013B
:10413000EE0FFF1FE80FF91FEE0FFF1FEB56FE4FAC
:10414000EB55FD4F8081E55AF24086FF05C0E655EC
:10415000FD4F80818093570E80E09091570E69E16A
:1041600070E00E9450716B01D50117968C911797E2
:1041700086FD08C018968C91882321F00E94701546
:10418000C80ED91EF5018681882321F485818823F4
:1041900009F45DC1D3016D917D918D919C911123A5
:1041A00089F420E031E040E050E00E9485715095B4
:1041B0004095309521953F4F4F4F5F4F4601820EFE
:1041C000931E5AC0F50187818E70843049F5E081D5
:1041D000F0E0EE0FFF1FE15CF84F608171818827EE
:1041E00077FD8095982F20E034E640E050E00E9473
:1041F0001171D3016D937D938D939C931397F5016A
:104200002281222369F0332727FD3095432F532F36
:104210000E948571D3012D933D934D935C93139729
:10422000F301608171818281938120E031E040E07F
:1042300050E00E94857150954095309521953F4FF3
:104240004F4F5F4F4601820E931E81149104A1F0DF
:10425000D50115968C9197FE82958F7090E0FC01A8
:1042600024E630E0E29FC001E39F900DF29F900DA5
:104270001124D1018D939C93F1012081318121156D
:10428000310599F08091C304882321F021503040FA
:1042900031832083D1018D919C91892B31F0F301E1
:1042A0006081718182819381BCC08114910409F481
:1042B000CEC0D50116968C911697882309F4B9C003
:1042C0008091C304882309F475C012962C9122238F
:1042D00029F460E070E080E293E017C0332727FD07
:1042E000309537FF03C0309521953F4F332727FD89
:1042F0003095432F532F60E070E080E293E00E94FE
:104300008571C901DA01BC01CD01F50126811814BE
:1043100019040CF52F70422F50E041155105D9F1C9
:10432000A4E6B0E04A9F90014B9F300D5A9F300D9C
:104330001124442737FD4095542F0E94857179013F
:104340008A01F30180819181A281B381E80EF91E77
:104350000A1F1B1F29C022952F70422F50E04115C4
:104360005105C9F0A4E6B0E04A9F90014B9F300D83
:104370005A9F300D1124442737FD4095542F0E9439
:104380008571F301E080F18002811381E21AF30A62
:10439000040B150B09C0C601AA2797FDA095BA2FDB
:1043A000EE24F82E092F1A2FD301ED92FD920D93D2
:1043B0001C931397F301608171818281938176014F
:1043C0000027F7FC0095102F1814190464F420E05E
:1043D00031E040E050E00E948571E216F3060407E8
:1043E000150764F019C020E031E040E050E00E9481
:1043F00085712E153F054007510774F4C601AA27A1
:1044000097FDA095BA2FBA2FA92F982F8827F301CF
:1044100080839183A283B383D3016D917D918D912C
:104420009C9120E031E040E050E00E9485716901FC
:104430000EC0C601AA2797FDA095BA2FBA2FA92FA3
:10444000982F8827F30180839183A283B383D501BA
:1044500014966C91633079F1643028F4613051F036
:104460006230B0F449C0653089F1653058F166308A
:10447000B9F52FC0F5018181893039F4D7FC2CC002
:1044800020E03EEFC20ED31E0FC0D7FE35C02EC0B7
:10449000D50111968C91893051F41C141D044CF1F6
:1044A000E0E0F2E0CE0EDF1ECC0CDD1C25C01C14BB
:1044B0001D04E4F021C0D7FE1FC0D094C194D108E0
:1044C000D3941AC01C141D04A4F010C0D7FE0EC053
:1044D00003C01C141D046CF0C12C4CEFD42E0CC076
:1044E0006750C6010E9483166C0106C0CC24DD24EF
:1044F00003C0C12C34E0D32ED50117968C911797A9
:1045000080FD14C01196EC91EE2381F0E53070F43B
:10451000F0E03197EE0FFF1F21E030E02C0F3D1F40
:10452000E20FF31F80819181C80ED91EB601882742
:1045300077FD8095982FD50112962C91332727FD72
:104540003095432F532F0E9411716B017C01F501AF
:10455000278126952770213089F08081223009F04B
:1045600049C0E82FF0E0EE0FFF1FEE0FFF1FEF59DD
:10457000F84FC082D182E282F38250C0D5012C91E3
:10458000022F10E0000F111F000F111F0F59184FBD
:10459000C701B60124E630E040E050E00E9485719A
:1045A000CA01B901F80120813181428153810E9401
:1045B0001171D8016D937D938D939C931397F501A1
:1045C0006081062F10E0000F111F000F111F0F59FF
:1045D000184FD8016D917D918D919C9120E034E030
:1045E00040E050E00E948571F801208331834283CE
:1045F000538314C0E82FF0E0EE0FFF1FEE0FFF1FF4
:10460000EF59F84F80819181A281B3818C0D9D1D5E
:10461000AE1DBF1D80839183A283B383FF85FF5F9F
:10462000FF8724E030E0620E731E42E050E0240E6B
:10463000351E0894411C511CF03209F0BDCCF89491
:1046400000912C0E10912D0E7894FA88F0FE05C082
:10465000002319F48BE00E942C66F1FE0BC0C80108
:1046600090708034910519F08834910519F48CE02C
:104670000E942C66F2FE0EC0C80190708038910531
:1046800031F08838910519F08039910519F48DE0E1
:104690000E942C66EFEE2E2EE2E03E2E62E174E0E8
:1046A0007C876B871E861D86A985BA858D909D9017
:1046B000AD90BC90C501B40124E630E040E050E08C
:1046C0000E948571E985FA85208331834283538373
:1046D000ED85FE85EE5DFA4FC90120839183D101FE
:1046E00013962D913C91149711968C91BAE08B0200
:1046F00030011124E8EEF3E06E0E7F1ED1018C91A3
:10470000BAE08B0220011124E8E1FCEF4E0E5F1E9F
:10471000C301562D492F261537051CF4C901522F08
:10472000492F852F942F8C01041515050CF4820157
:1047300081149104A104B10469F19801442737FD63
:104740004095542F181419041A041B0454F4B3018F
:10475000882777FD8095982F621B730B840B950B30
:104760000BC0C201AA2797FDA095BA2F281B390BB1
:104770004A0B5B0BCA01B901A50194010E9411719A
:1047800020EA36E841E050E00E948571C901DA0173
:104790004C015D01C80175E0959587957A95E1F723
:1047A000800F911F9801232F330F330B2595820F14
:1047B000931F000F012F001F110B801B910B6C0129
:1047C000EE24D7FCE094FE2CC30145E09595879537
:1047D0004A95E1F7860D971DA20135E0559547955D
:1047E0003A95E1F7B201660F672F661F770B440D0C
:1047F000551D9301232F330F330B2595820F931FE4
:10480000660C672C661C7708861997098C0122278D
:1048100017FD2095322FC80CD91CEA1CFB1C0C1567
:104820001D052E053F0514F468017901461B570B41
:104830007595679575956795460F571FCA01AA2705
:1048400097FDA095BA2F87017601E816F9060A07A9
:104850001B0714F47C018D01D10112968C918823E1
:1048600041F010950095F094E094E11CF11C011DBD
:10487000111DEB85FC858081882389F060E040E094
:104880000E94430D882359F0AB85BC8511968C910D
:104890000E9470157C010027F7FC0095102FF894FA
:1048A000EA8DFB8D2D853E85E20FF31FF182E082BC
:1048B000789449855A854C5F5F4F5A8749872E5FA8
:1048C0003F4F3E872D8765E070E0260E371E8B85B3
:1048D0009C8502969C878B87455A574009F0E4CE09
:1048E00004C09F7009F0C3C8F2C86C960FB6F89464
:1048F000DEBF0FBECDBFCF91DF911F910F91FF9013
:10490000EF90DF90CF90BF90AF909F908F907F906F
:104910006F905F904F903F902F9008950E94881560
:10492000803210F480E008958BE49AE20E94DB115B
:1049300081E00895EF92FF920F931F93DF93CF933F
:10494000CDB7DEB7C054D0400FB6F894DEBF0FBE6F
:10495000CDBF7E010894E11CF11CC70163E00E94F9
:10496000711A8E010F5D1F4FC80161E00E94711A1C
:10497000E1EFF2E0B7017801018112818081DB0172
:104980004D915C91D7012D913C91882321F0CA0172
:10499000821B930B03C0C901841B950B800F911FD1
:1049A000B3E0883E9B071CF088EE93E006C02CEF36
:1049B0008931920714F488E19CEF928381833596C4
:1049C0006E5F7F4F82E090E0E80EF91E93E0E134E5
:1049D000F90791F680917E0190E08170907022E05D
:1049E00030E0281B390B16AA2130310511F0109246
:1049F00078032230310511F01092790310927A0376
:104A000086E00E943B5282E00E942C66C05CDF4F31
:104A10000FB6F894DEBF0FBECDBFCF91DF911F91CF
:104A20000F91FF90EF900895DF92EF92FF920F9316
:104A30001F93CF93DF938FE161E247E10E94DE5A3B
:104A40008FE167E347E10E94DA5A85E361E247E1DB
:104A50000E94DE5A8FE161E247E10E94DA5A8BE45C
:104A600061E247E10E94DE5A8BE467E347E10E947E
:104A7000DA5A81E661E247E10E94DE5A8BE461E2A4
:104A800047E10E94DA5A8AE26BE243E00E94DE5A72
:104A900089E26CE243E00E94DA5A86E56BE243E089
:104AA0000E94DE5A85E56CE243E00E94DA5A80916A
:104AB000140590911505880F991F9C0143E0220F62
:104AC000331F4A95E1F7820F931F60E078E00E9460
:104AD0005071D62E8091160590911705880F991F59
:104AE0009C0113E0220F331F1A95E1F7820F931FE9
:104AF00060E078E00E9450718B01109501951F4F86
:104B0000B8E2FB2EFD0CAAE2EA2EE00E8F2D6E2DF0
:104B100045E00E94DE5A025D8F2D602F45E00E9425
:104B2000DA5A8D2D845D6E2D45E00E94DE5A8F2D60
:104B30006E2D45E00E94DA5A80911A0590911B056E
:104B4000880F991F9C01E3E0220F331FEA95E1F7DC
:104B5000820F931F60E078E00E945071D62E809102
:104B6000180590911905880F991F9C0163E0220F89
:104B7000331F6A95E1F7820F931F60E078E00E948F
:104B800050718B01109501951F4F54E5F52EFD0CCA
:104B90004AE2E42EE00E8F2D6E2D45E00E94DE5A93
:104BA000025D8F2D602F45E00E94DA5A8D2D885AC4
:104BB0006E2D45E00E94DE5A8F2D6E2D45E00E943D
:104BC000DA5ACCE1D5E03AE3F32E28E3E22E6991FC
:104BD0007991882777FD8095982F26E130E040E095
:104BE00050E00E9411716050784A8F4F9F4F20E033
:104BF00038E040E050E00E948571122F1F5F0E2DBB
:104C0000011B8F2D602F412F0E94DE5A8F2D8F5F49
:104C1000602F412F0E94DE5A8F2D8E5F602F412F13
:104C20000E94DE5A85E0F80E89E4F81681F6DF91DD
:104C3000CF911F910F91FF90EF90DF9008954F92C9
:104C40005F926F927F928F929F92AF92BF92CF921C
:104C5000DF92EF92FF920F931F93DF93CF930F9208
:104C6000CDB7DEB7F0907C019FE0F922813809F4DE
:104C700076C0823890F4833209F43FC0843230F435
:104C80008032E1F0823209F08CC046C0813609F4EE
:104C90005AC0803809F085C01CC0843801F18538BD
:104CA00038F4823809F449C0833809F07AC043C027
:104CB0008538E9F08F3B09F074C067C0A5E0FA16AB
:104CC00009F06FC08091C60491E089278093C604E3
:104CD0005AC00E94A40B0E94DB1180E805C08BEF34
:104CE0009DE30E94DB1184E80E94255E5AC08DE698
:104CF00095E30E94DB1185E8F7CF8F2D8F5F8093BE
:104D00007C01863010F010927C0181E00E943B52C1
:104D100085E00E942C6645C0FF2029F0FA94F092AD
:104D20007C01F39403C085E080937C0181E00E94C4
:104D30003B5286E0EECF83E8D7CF8DEC99E60E9418
:104D4000EB0C82E8D1CF80919B06823021F483E086
:104D500080939B0618C0B5E0FB1619F512C010929F
:104D60009B06109294061092930610929806109249
:104D70009706109296061092950610929A06109237
:104D800099060E94B70B89E0C4CF81E00E94255E9E
:104D900083E00E94255E82E00E94255E81E0809390
:104DA0008F088091A90160E040E00E94430D8823B4
:104DB00031F080918F08882311F40E949A24809109
:104DC000A90160E040E00E94430D80938F0880912C
:104DD0007C01803108F090C035E9C32E31E0D32E3C
:104DE0001AE0812F60E0F60141916F0124E00E94FA
:104DF0003559155F1837A9F78CE00E942E6120E025
:104E0000C22E21E0D22E882499249FE1B92EF401EC
:104E1000EA5EFE4FE080D601ED91FC91E081E7FD76
:104E2000ED5FE595E595E43E0CF4E4EE0E2FED31F3
:104E30000CF00CE1F401EE5EFE4F80818823F9F066
:104E40008E2D64E046E30E94DE5A80917E0190E060
:104E50008825992580FD04C08091A6018F7061F49A
:104E60008E2D81506EE143E00E94DE5A8E2D8F5FC1
:104E70006EE143E00E94DE5A9B2D901B14C08E2DE4
:104E80008B516BE346E30E94DA5A1E2D1150812F9D
:104E90006AE343E00E94DA5A812F6CE343E00E9408
:104EA000DA5AE00E9BE31E2D1350092F0350812F79
:104EB000602F47E099830E94DE5A99819D5F812F80
:104EC000692F47E00E94DA5A8E2D8D5F602F47E0F0
:104ED0000E94DE5A812F602F47E00E94DA5A089420
:104EE000811C911CE2E0F0E0CE0EDF1EF4E08F1694
:104EF000910409F08CCF27C080E060E045E951E0E3
:104F00002AE001E10E94F059909108018091690125
:104F1000981710F040E001C042E084E560E00E9494
:104F2000FF1480919B06882371F0823011F000E01D
:104F300001C002E040919C0650919D068FE660E022
:104F4000202F0E94051581E08F1508F49AC088E48F
:104F5000A82E85E0B82ECC24DD240BE1602E712C28
:104F600019E1812E912C2C2DD5014D905C90FF20C4
:104F700029F0B1E0FB1609F077C02BC0C6018370A1
:104F80009070869D8001879D100D969D100D1124B7
:104F90002695269530E02B5F3F4FB3E0220F331F5D
:104FA000BA95E1F7C20160E270E00E945071FB0126
:104FB000C20160E870E00E9450716E1B7F0B460ECC
:104FC000571E802F8F5D622FA20120E20E947C5C21
:104FD0004BC0243010F01EE501C012E29601237090
:104FE0003070C901880F991F880F991F820F931F76
:104FF000082F0A5D920157FE04C022273327241987
:105000003509289DC001299D900D389D900D1124D2
:1050100080509E4F892F990F990B85958595E82E85
:10502000E9E1E81714F4E9E1EE2E812F8951602FB0
:1050300043E325E50E94A85A602F6250812F45E086
:105040000E94DE5A1414150414F41F5F01C01E19C7
:105050000F5F812F602F4E2D0E94DA5A0250812F50
:10506000602F4E2D0E94DA5A0894C11CD11C82E098
:1050700090E0A80EB91E98E0C916D10409F073CFCC
:1050800062C0A4E0AF1508F454C00E941425B2E039
:10509000FB1621F476E0C72E90E009C086E0F89E6A
:1050A000802D1124982F99506AEFC62EC80ED92E44
:1050B00083E098025001112410E216C00E94660B92
:1050C0007C018D2D60E040E00E94430D082FEA0C2A
:1050D000FB1C8AE0612FA70123E00E94F059E3E066
:1050E000F0E0AE0EBF1E185FD394183339F7DC2CF6
:1050F00083E0FC2DF8025001112410E216C00E943A
:10510000660B7C018D2D60E040E00E94430D082F6E
:10511000EA0CFB1C85E6612FA70123E00E94F059F1
:1051200083E090E0A80EB91E185FD394183339F7C6
:105130000AC04091C8045091C9048CE368E224E09D
:1051400004E00E9405150F90CF91DF911F910F9100
:10515000FF90EF90DF90CF90BF90AF909F908F9097
:105160007F906F905F904F900895DF92EF92FF9243
:105170000F931F93CF93DF93F82ED62E122F80E03C
:105180000E945E5AC12FD0E0112707FD109520E044
:10519000C017D10709F421E086E66D2D4F2D0E943E
:1051A0002817C017D10739F48E2D6F2D40E021E06C
:1051B0000E94340FF82E8F2DDF91CF911F910F9108
:1051C000FF90EF90DF9008956F927F928F929F9261
:1051D000AF92BF92CF92DF92EF92FF920F931F9305
:1051E000DF93CF93CDB7DEB7682E862F742E122FA4
:1051F000302F6E2D0A2D222329F0442309F436C1C5
:1052000022E035C120E0033609F041C08C2D90E04A
:10521000880F991FFC0143E0EE0FFF1F4A95E1F74D
:10522000E81BF90BE55BFC4F832F40810E941B14A8
:10523000112309F421C1772039F48091C1049091A0
:10524000C204892B09F418C18C2D90E0880F991F96
:10525000FC0113E0EE0FFF1F1A95E1F7E81BF90BB5
:10526000E55BFC4F862D60814AEE26E10E94430FEC
:105270002C2D30E0220F331FF901A3E0EE0FFF1FAA
:10528000AA95E1F7E21BF30BE55BFC4FEDC002369C
:1052900009F041C08C2D90E0880F991FFC0173E04C
:1052A000EE0FFF1F7A95E1F7E81BF90BE45BFC4F6B
:1052B000832F40810E941B14112309F4DDC0772045
:1052C00039F48091C1049091C204892B09F4D4C0AF
:1052D0008C2D90E0880F991FFC0153E0EE0FFF1F0B
:1052E0005A95E1F7E81BF90BE45BFC4F862D6081D2
:1052F0004AEE26E10E94430F2C2D30E0220F331F8F
:10530000F90193E0EE0FFF1F9A95E1F7E21BF30B13
:10531000E45BFC4FA9C0A02EBB248989E82EFF24A2
:10532000882009F05AC08C2D90E0880F991FFC014D
:10533000B3E0EE0FFF1FBA95E1F7E81BF90BC501CB
:10534000880F991F880F991FE80FF91FEE0DFF1D99
:10535000E15CFC4F4081552747FD5095832F0E940B
:105360007C5C112309F488C0772039F48091C10452
:105370009091C204892B09F47FC08C2D90E0880F96
:10538000991FFC0163E0EE0FFF1F6A95E1F7E81B30
:10539000F90B8501000F111F000F111FE00FF11F06
:1053A000EE0DFF1DE15CFC4F862D60814CE924E68B
:1053B0000E94430F2C2D30E0220F331FF90193E0A0
:1053C000EE0FFF1F9A95E1F7E21BF30BE00FF11FC1
:1053D000EE0DFF1DE15CFC4F47C0DD249924F50173
:1053E000EE0FFF1FC601A3E0880F991FAA95E1F7F2
:1053F0008C199D09E80FF91FE80DF91DEE0FFF1F2D
:10540000EE0DFF1DE15CFC4F4081552747FD509597
:105410004C595F4F832F0E947C5C112369F17720E8
:1054200031F48091C1049091C204892B29F1850146
:10543000000F111FC60153E0880F991F5A95E1F71D
:105440008C199D09080F191F080D191D000F111F38
:105450000E0D1F1D015C1C4F862DF80160814CE96B
:1054600020E00E94430FF801808306C021E08823DA
:1054700009F4C9CE21E0C7CECF91DF911F910F91E2
:10548000FF90EF90DF90CF90BF90AF909F908F9064
:105490007F906F9008951F93182F80E060E14AE39A
:1054A00059E00E945E5A0E948815482F88E760E103
:1054B00050E020E00E947C5C80E060E244E259E041
:1054C0000E945E5A113651F481E60E94255E81E009
:1054D0000E94001288EE99E40E94DB111F9108954A
:1054E0007F928F929F92AF92BF92CF92DF92EF9274
:1054F000FF920F931F93CF93DF93EC01D62EB42E20
:105500004901702E00911C0510911D0580911D0907
:1055100090911E09801B910B60E470E00E94507115
:10552000262F60934605E0911E05F0911F0580919E
:105530001B0990911C098E1B9F0B60E470E00E9478
:10554000507160934705222321F010931E090093A8
:105550001D09662321F0F0931C09E0931B0980913B
:105560004505882321F48091800185FF06C01092B3
:105570004605109247051092450540914605442383
:1055800051F480914705882331F48091C1049091B2
:10559000C204892B89F08091820190E024EF31E0F0
:1055A000BC01629FC001639F900D729F900D1124FA
:1055B0009093C5048093C4048114910409F461C0DC
:1055C0008881882311F040E058C0442341F1809144
:1055D0004305882321F57B2D741B472F77FD40E081
:1055E000272D30E0842F992787FD90958217930708
:1055F00014F0472D4150242F332727FD30958B2D54
:1056000090E02817390749F0F901EE0FFF1FE80D68
:10561000F91D859194910E94EB0C1092460585E648
:10562000D81689F4BB2011F4272D01C02B2D81E061
:1056300090E0821B9109880F991FF401E81BF90B78
:105640008591949117C0E4E6DE16B1F42B2D30E07D
:10565000872D90E001972817390714F080E002C0E9
:105660008B2D8F5FE82FF0E0EE0FFF1FE80DF91D87
:10567000859194910E94EB0C41E08B2D672D0E9447
:105680003917E114F10411F460E009C088819C2D00
:105690008C1508F4982FF701E90FF11D64918091A2
:1056A0004305882309F064C080914705882309F4E5
:1056B00038C04881481B47FD40E0242F332727FD91
:1056C00030958A2D90E0281739070CF04A2D488331
:1056D0008981E114F10411F420E00BC0242FC416D9
:1056E00008F42C2DF701E20FF11D2491821708F424
:1056F000282F2983E114F10411F480E00CC0888183
:105700009C2D8C1508F4982FF701E90FF11D849159
:10571000281708F4822F898380E680932E0E10923A
:1057200047059881992321F180914605882301F14D
:105730002981E114F10411F440E016C0422F481B06
:1057400047FD40E08C2D9C1508F4892FF701E80FE8
:10575000F11D5491242F332727FD3095852F90E09C
:10576000281739070CF0452F498380E680932E0EC9
:10577000F0E6DF16B1F1FD15B8F073E4D71609F4C1
:1057800097C07D1540F081E2D816D1F1E2E4DE1633
:1057900009F0B1C071C0F4E4DF1609F447C075E444
:1057A000D71609F0A8C055C084E6D81609F442C03F
:1057B0008D1548F0E2E6DE1609F462C0F3E6DF1666
:1057C00009F099C078C071E8D716B9F08FEBD816F8
:1057D00029F0E5E6DE1609F08EC03FC01982188276
:1057E00013C0662309F487C090E0809143058823A5
:1057F00009F491E0909343057EC0109243050CC0DC
:1058000080914305882319F01092430574C0888164
:10581000882311F0892821F480E00E9400126BC0D7
:1058200089E00E942C661982188262C089818617DD
:1058300009F461C0EF2809F45EC080914305882314
:1058400009F059C08981861710F48F5F50C0198202
:105850004FC08981882309F44EC0EF2809F44BC05A
:1058600080914305882309F046C08981882311F07F
:1058700081503DC069833CC088818A1509F43BC0D2
:10588000809143058823B9F588818A1518F48F5FC4
:10589000888301C018829981E114F104D9F08881CC
:1058A0008C1508F4C82EEC0CF11CF70184911CC077
:1058B0008881882301F1809143058823E1F4888160
:1058C000882319F08150888301C0A8829981E1144E
:1058D000F10411F480E00BC088818C1508F4C82E07
:1058E000EC0CF11CF7018491981708F4892F898337
:1058F00080E680932E0EDF91CF911F910F91FF9044
:10590000EF90DF90CF90BF90AF909F908F907F905F
:1059100008952F923F924F925F926F927F928F9253
:105920009F92AF92BF92CF92DF92EF92FF920F932E
:105930001F93DF93CF9300D000D000D0CDB7DEB758
:105940008B8380E060E04AE454E021E00E942B5A1F
:105950008BE898E06B8149E02AE234E00AE0E5E573
:10596000EE2EE4E0FE2ECC24C3947DE0A72E0E9410
:10597000702A10918B08115080918C088A83812F96
:1059800066E00E94F716198258E0852EE12FFF2766
:10599000E7FDF095FD83EC8380914205F9818F0F3F
:1059A000E82EFF24C701880F991F9A80980E89E17D
:1059B000891508F420C1EC81FD81EE15FF0519F071
:1059C00020E030E013C020E0892D90E0FC01EE0FD4
:1059D000FF1FEE0FFF1FE80FF91FE55FF04F8081FB
:1059E00082958F7009F021E0F1E02F2780E0682D8B
:1059F000492D0E943268692C7724F301EE0FFF1FB6
:105A0000EE0FFF1FE60DF71DE55FF04F80818295D9
:105A10008F7009F4E8C089E1981611F42CE601C0F2
:105A200020E6EC81FD81EE15FF0511F090E007C046
:105A300080914305882311F491E001C092E0F301C5
:105A4000EE0FFF1FEE0FFF1FE60DF71DE751F14FA1
:105A500023A034A045A056A0F6E19F1640F087E1B0
:105A6000891560F4E9E1E91510F010E008C0F5E1EE
:105A7000F91520F060FE02C013E001C012E0822F91
:105A8000682DA2019101012FE92E9E830E9480675B
:105A90009E81992309F493C080914305882339F4AA
:105AA0008091C1049091C204892B09F488C01230FE
:105AB00029F01330C9F0113011F50BC00F2EF0E0B2
:105AC000AF2EF0E0BF2EF8ECCF2EF2E4DF2EF02D5B
:105AD00020C00F2EF0E0AF2EF0E0BF2EF0E2CF2E70
