:100000000C94460B0C946E0B0C946E0B0C946E0BB4
:100010000C946E0B0C946E0B0C946E0B0C946E0B7C
:100020000C946E0B0C946E0B0C946E0B0C946E0B6C
:100030000C9499620C946E0B0C946E0B0C94160D30
:100040000C94690C0C946E0B0C944C5F0C947D5FBB
:100050000C946E0B0C946E0B0C946E0B0C946E0B3C
:100060000C946E0B0C947B0C0C946E0B0C946E0B1E
:100070000C946E0B0C946E0B0C946E0B0C946E0B1C
:100080000C946E0B0C946E0B0C946E0BEE6403656B
:1000900007650B650F65136519651F6526652A657C
:1000A000326538653D65426547654D655365586500
:1000B0006365716501020304010204030103020484
:1000C0000103040201040203010403020201030408
:1000D00002010403020301040203040102040103F8
:1000E00002040301030102040301040203020104E8
:1000F00003020401030401020304020104010203D8
:1001000004010302040201030402030104030102C7
:100110000403020152554420454C452054485220C6
:1001200041494C205255442054485220454C4520CA
:1001300041494C2041494C20454C452054485220CF
:100140005255442041494C2054485220454C4520AA
:10015000525544200003010200040506076D656E38
:1001600075537461636B206F766572666C6F770090
:100170006D656E75537461636B20756E6465726630
:100180006C6F7700707265737320616E79204B65B8
:100190007900414C455254004D4553534147450069
:1001A0004C4F4144494E4700506C65617365207265
:1001B00065736574207468656D005377697463684E
:1001C0006573206E6F74206F666600204F6C64202C
:1001D00056657273696F6E20454550524F4D202011
:1001E00020434845434B2053455454494E47532FD1
:1001F00043414C494200416C61726D732044697304
:1002000061626C6564005265736574207468726F16
:1002100074746C65005468726F74746C65206E6FD2
:10022000742069646C6500507265737320616E7927
:10023000206B657920746F20736B697000414C45A9
:10024000525400454550524F4D206C6F77206D65DC
:100250006D004F4646414253525573525525454C09
:1002600073454C25544873544825414C73414C25E3
:1002700050312050312550322050322550332050FB
:10028000332500544852525544454C454944304961
:10029000443149443241494C47454154524E5357E9
:1002A00031535732535733535734535735535736C7
:1002B000535737535738535739535741535742536E
:1002C0005743004F4646004F4E20002D2D2D002D48
:1002D0002D2D2043483120434832204348332043CA
:1002E000483420434835204348362043483720438C
:1002F000483820434839204348313043483131435E
:10030000483132434831334348313443483135432F
:1003100048313600503120205032202050332020E8
:100320004D41582046554C4C435943314359433273
:100330004359433350504D3150504D3250504D334E
:1003400050504D3450504D3550504D3650504D3723
:1003500050504D38434831204348322043483320E1
:10036000434834204348352043483620434837200B
:1003700043483820434839204348313043483131DD
:1003800043483132434831334348313443483135AF
:100390004348313655502020444F574E002D2D2DC7
:1003A0002D00564552533A2056312E31302D4756A6
:1003B00000444154453A2030362E30352E3230310B
:1003C000320054494D453A2032323A31303A3232D5
:1003D00000204D4F443A204D41564C494E4B00129F
:1003E000081200081C0808081C0800000822004920
:1003F0000022080000000000227F220000000822E6
:1004000000490022080000082200490022080000DC
:1004100000227F220000000000082200490022087C
:100420000000081C0808081C08005E3DC33E14318B
:100430004B49B84D8C3C26337F473F2EAF2CD034F0
:10044000792F363A673AF63A783B4D41562050417B
:1004500052414D530000016F666670706D6D61769C
:1004600000524F5441525920535749544348455321
:100470000000024D6F64650042616E644761700068
:10048000506F745363726F6C6C00416C61726D20BD
:100490005761726E696E67004D656D6F7279205796
:1004A00061726E696E670053776974636820576183
:1004B000726E696E67005468726F74746C65205751
:1004C00061726E696E670053706C6173682073634C
:1004D0007265656E004F4646004C69676874206F10
:1004E0006666206166746572004C69676874207383
:1004F000776974636800466C617368206F6E206270
:10050000656570004265657020636F756E74646F19
:10051000776E004D696E7574652062656570005474
:1005200068726F74746C65207265766572736500AD
:1005300053494E474F534D5046494C540046696C01
:100540007465722041444300496E61637469766941
:10055000747920616C61726D004D617620737973DE
:1005600074656D206964003139323030333834308D
:100570003035373630300042617564207261746501
:100580000042617474657279207761726E696E677A
:1005900000436F6E747261737400486170746963B4
:1005A00020537472656E67746800537065616B6583
:1005B00072205069746368004265657065725069A5
:1005C00053706B7250636D57617600536F756E6434
:1005D000204D6F6465005175696574204E6F4B65E1
:1005E00079207853686F727453686F7274204E6FFD
:1005F000726D20204C6F6E672020784C6F6E6720E4
:1006000000426565706572004F776E6572204E61BD
:100610006D6500524144494F2053455455500043A5
:10062000616C004D756C7469706C6965720063680B
:1006300031636832636833636834006F6666202B09
:100640003D203A3D006D6F646520202025207372A7
:10065000632020737700536C6176650054524149E2
:100660004E45520000030303030056455253494FC1
:100670004E005472696D2D202B00204D656E752043
:100680004578697420446F776E2020205570526938
:10069000676874204C6566740044494147004247CE
:1006A00000414E4100205B4D454E555D2057484569
:1006B0004E20444F4E452000204D4F564520535468
:1006C00049434B532F504F54532000202020534573
:1006D00054204D4944504F494E5420202000205B67
:1006E0004D454E555D20544F2053544152542020C7
:1006F0000053544152542043414C494252415449C1
:100700004F4E200043414C4942524154494F4E0004
:1007100066726565004D4F44454C53454C00444559
:100720004C455445204D4F44454C2020205B4D45C1
:100730004E555D00543254685472696700547261BA
:10074000696E657200452E204C696D6974730050A6
:100750004F534E45470053686966742053656C00DB
:1007600050504D2046724C656E202020206D536500
:10077000630075536563003443482036434820388E
:1007800043482031304348313243483134434831C3
:100790003643480050504D202020505858202020EB
:1007A00044534D3220200050726F746F00524554F4
:1007B00041313233004265657020436E74005472DB
:1007C000696D205377004578702020204578466970
:1007D0006E6546696E6520204D656469756D436F71
:1007E00061727365005472696D20496E6300542D07
:1007F0004578706F00542D5472696D00436F756EAB
:100800007420446F776E436F756E7420557020208E
:100810000054696D657220005472696767657200E3
:1008200054696D6572004E616D65005345545550B5
:10083000000009010000000000000602004475707D
:100840006C69636174696E67206D6F64656C005BD1
:100850004D454E555D20205B455849545D00594536
:100860005320202020204E4F0044454C4554452025
:100870004D4F44454C004455504C4943415445204C
:100880004D4F44454C00204142434445464748496A
:100890004A4B4C4D4E4F5051525354555657585940
:1008A0005A6162636465666768696A6B6C6D6E6FD6
:1008B000707172737475767778797A303132333437
:1008C00035363738395F2D2E006578702020252089
:1008D0002073773120737732004558504F2F4452A0
:1008E00000000344522048696768004452204C6F5E
:1008F00077004452204D69640044725377320044BB
:100900007253773100576569676874004578706F76
:10091000004558504F2F445200002B2A52004D4999
:10092000584552005072657373205B455849545DB9
:1009300020746F2061626F7274004D6178206D6960
:10094000786572732072656163683A200044454C93
:10095000455445204D4958205B4D454E555D00534B
:100960006C6F772020557000536C6F772020446F98
:10097000776E0044656C61792055700044656C6148
:100980007920446F776E0041646420202020204D40
:10099000756C7469706C795265706C616365200068
:1009A0004D756C747078004F4646005761726E69E1
:1009B0006E67005377697463680043757276657378
:1009C000004F4E204F4646005472696D004F464618
:1009D0004F4E2000466C4D6F64657472696D004F18
:1009E000666673657400466D5472696D56616C007D
:1009F00057656967687400536F7572636500454495
:100A00004954204D49582000494E53455254204DD9
:100A1000495820002D2D2D2D202020763E6F667305
:100A20002020763C6F667320207C767C3E6F667358
:100A30007C767C3C6F6673414E44202020204F52D0
:100A40002020202020584F522020202076313D3D6C
:100A50007632207631213D76322076313E76322054
:100A60002076313C7632202076313E3D763220763B
:100A7000313C3D76322000535700435553544F4D7F
:100A800020535749544348455300000253414645BB
:100A90005459205357495443484553000002434F8B
:100AA0005059205452494D205B4D454E555D002D07
:100AB0002D2D494E56004C494D4954530000030317
:100AC00003030303030303030303030303030043B9
:100AD0005600435552564553005052455345540015
:100AE000454449542D3E0043555256450009002DBA
:100AF0002D2D494E56004F46464F4E20002D2D2D90
:100B0000783E30783C307C787C663E30663C307C89
:100B1000667C633120633220633320633420633585
:100B200020633620633720633820633920633130F7
:100B3000633131633132633133633134633135636F
:100B4000313600454550524F4D206F766572666CC8
:100B50006F7700454550524F4D206F766572666C39
:100B60006F770067656E7772697465206572726F62
:100B70007200454550524F4D20466F726D6174743E
:100B8000696E670042616420454570726F6D204454
:100B9000617461004D4F44454C2020202020004DC1
:100BA0004520202020202020200050085000000058
:100BB00000000000006F000007000700147F147F92
:100BC00014242A7F2A1223130864623649552250BE
:100BD0000005030000001C2241000041221C0014FB
:100BE000083E081408083E080800503000000808B5
:100BF00008080800606000002010080402003E4958
:100C0000453E0000427F400062514946004149494B
:100C100036001814127F0027454539003E494932F5
:100C200000017905030036494936000649291E00AE
:100C30000036360000005636000008142241141415
:100C40001414144122140800020151090600060977
:100C500009067E0909097E7F494949363E414141DD
:100C6000227F4141221C7F494949417F09090901ED
:100C70003E4149497A7F0808087F00417F410020B2
:100C800040413F017F081422417F404040407F02A5
:100C90000C027F7F0408107F3E4141413E7F0909DD
:100CA00009063E4151215E7F0919294626494949D5
:100CB0003201017F01013F4040403F1F2040201F83
:100CC0003F4030403F631408146307087008076111
:100CD00051494543007F4141000204081020004172
:100CE000417F0004020102044040404040000102F4
:100CF000040020545454787F4844443838444444D1
:100D000020384444487F3854545418087E0901025E
:100D10000C5252523E7F0804047800447D4000206B
:100D200040443D007F1028440000417F40007C0487
:100D30001804787C0804047838444444387C14143B
:100D40001408081414187C7C0804040848545454EB
:100D500020043F4440203C4040207C1C2040201C7C
:100D60003C4020403C44281028440C5050503C4407
:100D700064544C44000836410000007F00000041EC
:100D80003608000808221C08081C220808A06080F9
:100D90000000000000000000000000000000FFFF55
:100DA0000000000000001F3F00003F1F0000303027
:100DB000FFFF3030FFFF30303078CCCCFFFFCCCCA1
:100DC0008C0C060F0F86C0E070381C0C3CFEC7E38D
:100DD000F33B1E0C00000000333B1F0F000000001F
:100DE0000000F0F81C0E07030000000003070E1CB3
:100DF000F8F000003030E0C0FCFCC0E03030C0C093
:100E0000C0C0FCFCC0C0C0C000000000000000006A
:100E10000000C0C0C0C0C0C0C0C0C0C00000000052
:100E200000000000000000000080C0E070381C0CD2
:100E30000000000000000000000000000000383842
:100E4000000000000000000000000000000003039C
:100E50003F3F03033F3F03030C0C0C0C3F3F0C0CC4
:100E600007030C0E07030100183C3C180F1F383114
:100E700033331E1E3333000000000000000000006A
:100E8000000003070E1C38300000000030381C0E34
:100E900007030000030301000F0F0001030300001C
:100EA00000000F0F000000000000333B1F0F000088
:100EB0000000000000000000000000000000183CDE
:100EC0003C18000000000C0E0703010000000000A9
:100ED0000000FCFE87C3E377FEFC00000C0EFFFF62
:100EE0000000000000000C0E0783C3E77E3C0000FA
:100EF0000303C3C3C3E7FE3C0000C0E070381C0E10
:100F0000FFFF00003F3F33333373E3C30000FCFEB9
:100F1000C7C3C3C78E0C00000303C3E3733B1F0F9B
:100F200000003CFEE7C3C3E7FE3C00003C7EE7C395
:100F3000C3E7FEFC0000183C3C1800000000000065
:100F4000183C3C18000000000000C0E0F0381C0E07
:100F500007033030303030303030303003070E1C73
:100F600038F0E0C000000C0E07030383C3E77E3CAB
:100F700000000F1F3B3130381F0F000030303F3F63
:100F80003030000000003C3E37333130303000005C
:100F90003030303030391F0F0000030303030303E8
:100FA0003F3F00000C1C383030381F0F00000F1F6F
:100FB000383030391F0F000000003F3F00000000B4
:100FC00000000F1F393030391F0F0000000030388B
:100FD0001C0E07030000060F0F06000000000000B3
:100FE000333B1F0F000000000000000103070E1C30
:100FF00038300303030303030303030330381C0ED9
:10100000070301000000000000003333010000006E
:1010100000003C7EE7C3C3E77E3CF0F8DCCEC7C7E8
:10102000CEDCF8F0FFFFC3C3C3C3C3E7FE3CFCFE46
:101030000703030303070E0CFFFF030303070E1C44
:10104000F8F0FFFFC3C3C3C3C3C30303FFFFC3C39E
:10105000C3C3C3C30303FCFE0703C3C3C3C7CECCD0
:10106000FFFFC0C0C0C0C0C0FFFF00000303FFFF00
:1010700003030000000000000303FFFF0303FFFF62
:10108000C0E0F0381C0E0703FFFF00000000000066
:101090000000FFFF0E1CF8F81C0EFFFFFFFF38706A
:1010A000E0C08000FFFFFCFE070303030307FEFC14
:1010B000000000000000000000003F3F00000000B2
:1010C00000003F3F3F3F3030303030391F0F0F1F9F
:1010D0003830303030381C0C3F3F303030381C0E48
:1010E00007033F3F30303030303030303F3F00007A
:1010F0000000000000000F1F3830303030303F3F1C
:101100003F3F0000000000003F3F000030303F3F05
:10111000303000000C1C383030381F0F00003F3FCB
:10112000000103070E1C38303F3F30303030303084
:1011300030303F3F0000000000003F3F3F3F0000D5
:10114000000103033F3F0F1F3830303030381F0F8E
:10115000FFFFC3C3C3C3C3E77E3CFCFE0703030317
:101160000307FEFCFFFFC3C3C3C3C3E77E3C3C7E53
:10117000E7C3C3C3C3C78E0C03030303FFFF03030B
:101180000303FFFF000000000000FFFFFFFF00005F
:1011900000000000FFFFFFFF000000000000FFFF55
:1011A0000F1F38F0E0E0F0381F0F3F7FE0C0808075
:1011B000C0E07F3F03030383C3E3733B1F0F0000C3
:1011C000FFFF0303030300000C1C3870E0C0800025
:1011D0000000000003030303FFFF000030381C0E73
:1011E00007070E1C3830000000000000000000005F
:1011F0003F3F00000000000000000F1F3830333771
:101200001E1C3F333F3F000003070E1C38300C1CF0
:101210003830303030391F0F000000003F3F0000F1
:1012200000000F1F3830303030381F0F03070E1CFE
:1012300038381C0E07030F1F38381F1F38381F0F90
:101240003C3E0703010103073E3C000000013F3F15
:10125000010000003C3E3733313030303030000088
:101260003F3F303030300000000000000001030735
:101270000E0C0000303030303F3F00000000000016
:10128000000000000000303030303030303030307E
:10129000000003070E1C38300000000030303030F2
:1012A0003070E0C0FFFFC0E070303070E0C0C0E0E0
:1012B0007030303030300000C0E070303070E0C04E
:1012C000FFFFC0E0703030303070E0C0C0C0FCFEC6
:1012D000C7C303070E0CF0F89C0C0C0C0C0CFCFCA8
:1012E000FFFFC0E070303070E0C000003030F3F33A
:1012F00000000000000000003030F3F30000FFFFAA
:101300000080C0E07030000000000303FFFF000019
:101310000000F0F03070E0E07070E0C0F0F0C0E08D
:1013200070303070E0C0C0E0703030303070E0C0FD
:10133000000000000000000000000C1E3F333333AB
:1013400033333F3F3F3F3030303030381F0F0F1FB7
:101350003830303030381C0C0F1F383030303030DF
:101360003F3F0F1F3B3333333333030300003F3F13
:10137000000000000000000133333333333B1F0F04
:101380003F3F0000000000003F3F000030303F3F83
:10139000303000000C1C383030381F0F00003F3F49
:1013A00003070F1C38300000000030303F3F303062
:1013B00000003F3F0000030300003F3F3F3F0000AD
:1013C000000000003F3F0F1F3830303030381F0F13
:1013D000F0F03030303030F0E0C0C0E0F03030308D
:1013E000E0C0F0F0F0F0C0E070303070E0C0C0E07D
:1013F000F0303030303000003030FFFF303000004F
:101400000000F0F0000000000000F0F0F0F000003C
:1014100000000000F0F0F0F0000000000000F0F02C
:101420003070E0C08080C0E07030F0F080000000DC
:101430000000F0F03030303030B0F0F070300000AC
:10144000C0E03C3E0703000000000000FFFF00007A
:101450000000000003073E3CE0C00000C0C0C0C068
:101460000C1CF8F0E0C0C0E0F0F81C0CC0C0C0C01C
:101470003F3F0303030303030100000103030303CE
:1014800003033F3F3F3F00000000000000003031F9
:1014900033333333333F1E0C00000F1F38303038E6
:1014A0001C0C0F1F383030381C0C3F3F03070E1C3C
:1014B00038381C0E07030F1F38381C1C38381F0F14
:1014C00030381C0F07070F1C38300001333333331B
:1014D000333B1F0F30383C3E373331303030000063
:1014E00000010F1F38300000000000003F3F0000E7
:1014F0000000000030381F0F010000000000000055
:101500000C0E07030100000103070E0C0000000091
:1015100040800804201002010102030401030204B8
:10152000040203010403020141524D4544200044DA
:10153000495341524D004D41564C4E4B0020202006
:1015400054546D00457870457846466E654D656427
:1015500043727300494E4954004D414E55414C571A
:101560004952455F41574952455F42574952455F8D
:1015700043005354414220204143524F2020414CCC
:10158000545F48204155544F202047554944454415
:101590004C4F4954455252544C2020204349524309
:1015A0004C45504F534954494C414E4420204F46DE
:1015B0005F4C4F4900560048444700414C5400439B
:1015C0004F4F520048444F5000534154005F5F4E0C
:1015D0004F4F4B00475053004750530044524F5019
:1015E0000042415454004D4F44450052455100497A
:1015F0004E464F53004D41564C494E4B00424154CC
:10160000545F434150414349545900424154545F4F
:101610004D4F4E49544F5200564F4C545F4449561B
:1016200049444552004C4F575F564F4C54004E4171
:10163000565F4C4154004E41565F4C4F4E00484C53
:10164000445F4C415400484C445F4C4F4E0054485A
:10165000525F414C54005354425F524C4C0053541F
:10166000425F50495400524154455F524C4C005225
:101670004154455F504954005354425F594157000B
:10168000524154455F5941570000000D11241FBEBF
:10169000CFEFD0E1DEBFCDBF11E0A0E0B1E0E0ECE4
:1016A000F2EE02C005900D92AC33B107D9F710E10C
:1016B000ACE3B1E001C01D92A93AB107E1F716E130
:1016C000CCE8D6E104C02297FE010E942171CA38FD
:1016D000D107C9F70E947F130C945E710C9400002F
:1016E0009AE0899F900111242F543E4FC90108951B
:1016F00095E0899F900111242F503D4FC901089515
:1017000083E892E008958C3038F4E82FF0E0EE0F93
:10171000FF1FE250FB4F2CC0803188F4E82FF0E02F
:10172000EE0FFF1FDF01AA5ABE4FE456FB4F019098
:10173000F081E02D8D919C91E81BF90B0BC0843159
:1017400060F4E82FF0E0EE0FFF1FE456FB4F01902E
:10175000F081E02DEE0FFF1F0EC0843218F0E0E0A4
:10176000F0E009C0E82FF0E0EE0FFF1FEC51FB4F57
:101770000190F081E02DCF0108950895E091A70434
:10178000F0E0EE0FFF1FE156FB4F8081918108953D
:101790008091630090E09695879581708093C60450
:1017A00008951092B1041092B3041092B2041092F2
:1017B000B0040895E5E5F1E0E80FF11DE491F0E0F3
:1017C000EE0FFF1FE753FB4F20813181C9010895C0
:1017D000A9ECB4E0E9EDF4E060E0862F806487B91D
:1017E000369A208931898D919C911197969587958C
:1017F000820F931F8E7F11969C938E93408151810F
:10180000240F351F36952795318B208B349BFECFC7
:10181000349A84B195B1840F951F969587958193DD
:1018200091936F5F12966830C1F60895E9ECF4E089
:1018300050E013C067B9369A349BFECF349A84B116
:1018400095B1280F391F4F5F4430A1F73695279582
:10185000219331935F5F583031F020E030E040E079
:10186000652F6064E7CF0895E9ECF4E020E0822F73
:10187000806487B9369A349BFECF349A84B195B18F
:10188000880F991F819391932F5F283081F70895D6
:101890008EE587B9369A349BFECF349A84B195B1E0
:1018A00004964091090150910A019A01F3E0220F38
:1018B000331FFA95E1F7241B350B820F931FE3E0EA
:1018C00096958795EA95E1F790930A01809309012F
:1018D000089578941F920F920FB60F9211248F9350
:1018E0008091C5048F5F8093C5048F910F900FBEC8
:1018F0000F901F90189578941F920F920FB60F9229
:1019000011242F933F934F935F936F937F938F9304
:101910009F93AF93BF93EF93FF93209180003091FB
:101920008100F89480917D008F7D80937D00789474
:101930008091C7049091C804A901481B590B569582
:1019400047953093C8042093C7042091C404822F84
:101950008150883048F5CA0181529340875795409D
:1019600000F5E22FF0E0EE0FFF1FEE54FB4F4C5D51
:10197000554080918601992787FD90950A96BC0174
:10198000469FC001479F900D569F900D11246AE01D
:1019900070E00E94CF70718360832F5F2093C40436
:1019A0000BC01092C40408C0415A5F404F5D5E42B4
:1019B00018F481E08093C404F89480917D008062E3
:1019C00080937D007894FF91EF91BF91AF919F91AB
:1019D0008F917F916F915F914F913F912F910F90D8
:1019E0000FBE0F901F901895EAEAF0E101C0319602
:1019F00080818535E1F39F01295A3041C90108955D
:101A000084E594E00E949B6308959C01E091A70403
:101A1000F0E0EE0FFF1FE356FB4F318320838FEB87
:101A2000F901099589E00E948865089578941F92CC
:101A30000F920FB60F9211242F933F934F935F9302
:101A40006F937F938F939F93AF93BF93EF93FF9386
:101A5000F89487B78D7F87BF789481B78E5F81BFF9
:101A600084E594E00E94CB638091110181508093C2
:101A700011018F5F61F48DE4809311010E94995DE3
:101A80000E94716B8091CE0E82608093CE0EF8948E
:101A900087B7826087BF7894FF91EF91BF91AF9134
:101AA0009F918F917F916F915F914F913F912F9176
:101AB0000F900FBE0F901F901895AF92BF92CF92CC
:101AC000DF92EF92FF920F931F93CF93DF93C82E75
:101AD000B42E85E0841708F4FAC0CC2009F4F8C0CD
:101AE00096E1C91621F0EAEECE1619F4F0C061E0D5
:101AF000EFC02C2D332727FD3095C90137FF04C0D7
:101B000088279927821B930B8A3074F41C143CF0AD
:101B10008DE090E0821B930B0E94265D24C0C901DA
:101B20000D960E94265D1DC08A50E82EFF24D70125
:101B3000AA0FBB1FAE0DBF1DA956BE4FA85ABD4F61
:101B40008C91A855B240882309F4C1C0F5E0BF16B6
:101B500069F481E994E0E80EF91EF70180811C1414
:101B600014F4682FB5C061E06827B2C0FD01EA5ADD
:101B7000FD4FD080ED01C95ADD4FA880853008F4B3
:101B8000B3C0883028F400E010E0E0E0F0E00AC0E4
:101B90008D2D81500E94830B8C01888181500E9481
:101BA000830BFC01E701CC0FDD1FCE0DDF1DC15102
:101BB000DC4F2881283088F42530E8F5223009F4FC
:101BC00067C0233020F4213009F071C05CC023309D
:101BD000D1F0243009F06BC022C02A3009F453C080
:101BE0002B3038F4283009F444C0293009F05FC0A4
:101BF00045C02C3009F451C02C3008F449C02D30B8
:101C000009F055C04FC020E0C80117FF03C09095F0
:101C100081959F4FE817F9070CF04CC04AC020E0AF
:101C2000C80117FF03C0909581959F4F8E179F079E
:101C30000CF040C03EC01B2D1F5F8D2D60E0412F7A
:101C40000E945D0D082F8A2D60E0412F0E945D0DDE
:101C50009881953019F4002351F104C0963029F48D
:101C6000002339F5882329F522C020E0081709F55B
:101C700021C020E00E171F07E9F41BC020E00E175B
:101C80001F07B9F417C020E0E017F1079CF411C05A
:101C900020E00E171F0774F40CC020E00E171F077A
:101CA0004CF007C020E0E017F10724F002C020E06C
:101CB00001C021E081E994E0E80EF91EF7012083DC
:101CC0001C1414F4622F04C061E0622701C060E0BC
:101CD000862FDF91CF911F910F91FF90EF90DF90B2
:101CE000CF90BF90AF9008958D2D81500E94830BAF
:101CF0008C01988189E29802F0011124F595E7950D
:101D0000F595E79597FD915C96FB990F990B90F9E6
:101D1000892F992787FD9095E81BF90B43CF8F9268
:101D20009F92AF92BF92CF92DF92EF92FF920F936A
:101D30001F93CF93DF93182F7B014A015901C02EC7
:101D400084FD04C064E0D62E05E005C01F70106657
:101D500055E0D52E04E08D2D8066181761F08D2D8D
:101D60008064181741F090912D05992359F013368E
:101D700011F0133439F4E701219685E00E9488655B
:101D8000802F16C0802F8066181761F0802F806426
:101D9000181741F0992309F471C0123619F0123462
:101DA00009F06CC0E701219786E00E9488658D2DBF
:101DB00090E00E94265D882351F0CC27DD27CE19C4
:101DC000DF09802F0E94885D8D2D0E94885D81141F
:101DD000910491F481E0A816B10471F4103661F415
:101DE00010922D05C0E0D0E0E114F10411F4C1E03F
:101DF000D0E080E60E94885D8091AB049091AC04B5
:101E0000C81BD90BAC16BD0644F4812F0E94885D17
:101E100085E00E948865E5010AC0C815D9053CF433
:101E2000812F0E94885D86E00E948865E401CE15BE
:101E3000DF05A1F0209751F4812F0E94795DF7FE14
:101E400002C085E001C086E00E9488658C2D837009
:101E50000E949E5181E08093A80402C01092A804C1
:101E6000CE01DF91CF911F910F91FF90EF90DF9006
:101E7000CF90BF90AF909F908F900895E701A7CF2C
:101E80000F93772767FD7095552747FD50953327AA
:101E900027FD30950E948F0E0F9108950F9377279D
:101EA00067FD7095552747FD5095332727FD3095E1
:101EB00001E00E948F0E0F9108950F93772767FD21
:101EC0007095552747FD5095332727FD309502E043
:101ED0000E948F0E0F9108951F93CF93DF93682F69
:101EE000782F7F7076502091A90122306CF0332733
:101EF00027FD30952150304081E090E002C0880FEE
:101F0000991F2A95E2F7282F783008F09FC0872F75
:101F10008595A82FB0E0FD01EE0FFF1FE050FF4FA9
:101F20000190F081E02D1081222311F0422F10C08A
:101F3000412F552747FD509557FF03C050954195B8
:101F40005F4F242F47FD2D5F422F459545954F5FED
:101F50002091800130E02170307082E090E0821B9F
:101F6000930B8A179B0711F050E00CC08091A801D9
:101F70008F7011F450E002C044E051E08091820182
:101F800080FD4195812F992787FD9095242F332738
:101F900027FD309570FF04C0E901C80FD91F03C0A9
:101FA000EC01C21BD30B209721F0812F8D2787FFD7
:101FB0000CC0552351F4112341F01082862F0E944A
:101FC000885D88E00E94886540C0CE0184589F4F9C
:101FD000893F9105B0F4C08386E00E949E51CE01F6
:101FE00083589F4F8B3F910580F59E01D7FF03C01B
:101FF000309521953F4F3595279535952795422F5B
:102000001EC01C161D0614F083E801C08DE78083F6
:1020100086E00E949E51CE0183589F4F8B3F9105D1
:10202000A0F4CE01D7FF03C0909581959F4F64E047
:1020300070E00E94CF70AB01509541955F4F445CBA
:1020400084E594E067E00E94D46460E0862FDF912D
:10205000CF911F910895EF92FF920F931F93F894E1
:102060002091160E3091170E789440E08091FC0478
:102070009091FD042817390709F041E04093AD0421
:10208000F8948091160E9091170E78949093FD0419
:102090008093FC0482E395E060E00E94A41A8091A2
:1020A000AD04882309F419C18091B00480FF14C0E5
:1020B0009091B104892F8F5F8093B104843660F0D2
:1020C00093569093B1048091B2049091B304019619
:1020D0009093B3048093B20480E00E94B1510E94B7
:1020E000885C0E94965C0E946C0FE82E8091AE0482
:1020F0009091AF04009729F001979093AF048093DB
:10210000AE04EE2089F08091840190E024EF31E06C
:10211000AC01429FC001439F900D529F900D11242E
:102120009093AF048093AE0480916D0160E040E035
:102130000E945D0D882339F48091AE049091AF0424
:10214000892B09F4C8C0C79A20910A0530910B0564
:102150008091A9049091AA04821B930B60E270E025
:102160000E94CF707093AC046093AB04611571054D
:1021700091F08091FA049091FB04821B930B62E032
:1021800070E00E94CF707093AC046093AB04309306
:10219000AA042093A9043093FB042093FA048091AD
:1021A000820185FF04C01092AC041092AB04E09150
:1021B000A704F0E0EE0FFF1FE356FB4F0190F08104
:1021C000E02D8E2D09950E94555C8091630090E072
:1021D0009695879581708093C604882321F080911D
:1021E00065008F7E03C080916500806180936500EB
:1021F000F8948091160E9091170E78948F719070CC
:10220000029709F06AC0ECE5F1E0E491F0E0EE0F2E
:10221000FF1FE753FB4F60817181882777FD809511
:10222000982F0E94796F2BE734E146ED50E40E942D
:102230002D707B018C0160916C012AE06202B0017B
:10224000112480E090E00E94776F9B01AC01C801EF
:10225000B7010E94766E0E94466FDC01CB0164E6F6
:1022600070E00E94CF7080910801680F711D759514
:102270006795609308018091F904805E8093F9046A
:10228000882399F480916B01681778F4623368F0C1
:1022900083E10E9488658091820183FF06C082E30A
:1022A00090E09093AF048093AE048091F90480385D
:1022B000A1F48091D70E882381F083E10E94886584
:1022C0008091820183FF09C082E390E09093AF0484
:1022D0008093AE0402C0C79837CF1F910F91FF9033
:1022E000EF900895E0918301F0E0EE0FFF1FE55FAE
:1022F000FE4F0190F081E02D09958EE587B90E948F
:102300002B100E94480C8091CE0E833019F4A895B2
:102310001092CE0E08950F931F938C010E94885C3B
:1023200082E260E048E951E024E00E948E5980E0BA
:1023300068E1A8010E94C1590E94555C80916A0120
:102340000E944B5C1F910F91089586B380958E7704
:10235000E1F70E94935C0895FF920F931F938C0105
:10236000F62E0E94885C82E260E042E951E024E0BF
:102370000E948E5980E068E1A8010E94C1598CE159
:1023800068E344E851E00E94C1590E94555CFF2077
:1023900011F089E102C080916A010E944B5C84E0E7
:1023A0000E9488650E94A51186B380958E77C9F436
:1023B0008091CE0E833019F4A8951092CE0E8091A4
:1023C0006D0160E040E00E945D0D882331F4809152
:1023D0008401882311F4FF2011F0C79AE5CFC79834
:1023E000E3CF1F910F91FF900895CF93DF93EC01FE
:1023F0009091A704892F8F5F8093A704853040F0C8
:102400009093A7048DE591E060E00E94AC110FC0AD
:1024100089E00E948865E091A704F0E0EE0FFF1FBD
:10242000E356FB4FD183C0838FEBFE010995DF910B
:10243000CF9108959091A704992319F4882331F43A
:1024400018C0882319F4892F815001C080E080933F
:10245000A70489E00E948865E091A704F0E0EE0FF0
:10246000FF1FE356FB4F0190F081E02D8EEB0995A5
:10247000089580E791E060E00E94AC11089580919A
:102480009004882351F08BEC91E060E00E94AC1145
:10249000809190048E7F80939004089580917F01B5
:1024A00087FD07C0887329F486EF91E060E00E9401
:1024B000AC11089580917F0182FD0AC00E94B4543E
:1024C000883C910528F483E492E060E00E94AC111E
:1024D00008951F93CF93DF9386B380958E7721E085
:1024E00030E0682F70E0422FCB01022E02C095959C
:1024F00087950A94E2F780FD06C04F5F2F5F3F4F3C
:102500002830310581F7142F11501630A8F5812F8E
:102510000E945752882381F110936901812F0E94F4
:10252000A55381E00E949E510E94885C86E160E094
:1025300040EA51E024E00E948E59C7E9D1E01AE058
:10254000812F68E1499124E00E949858155F18375F
:10255000B9F70E94555C80916A010E944B5C8091A2
:102560006D01882321F480918401882311F0C79A9A
:1025700001C0C7980E94A511DF91CF911F910895C6
:10258000EF92FF920F931F938C017B010E94885C56
:1025900082E260E04DE352E024E00E948E5980E048
:1025A00060E2A8010E94C15980E068E2A7010E9490
:1025B000C15980E060E347E252E00E94C1590E94A5
:1025C000555C80916A010E944B5C0E94A5111F918D
:1025D0000F91FF90EF9008951F9380917F0181FDEF
:1025E0002EC08AEB91E068EA71E00E94C0121EE002
:1025F0000BC0113141F0812F8D5060E040E00E940E
:102600005D0D882329F41F5F163198F31631B9F058
:1026100086B380958E7799F406C0809184018823D3
:1026200059F0C79A0AC080916D0160E040E00E94B5
:102630005D0D8823B1F7F1CFC7981EE0DCCF1F9165
:1026400008950F931F93CF93DF9380917F0180FDB7
:1026500051C08091800190E081709070C2E0D0E024
:10266000C81BD90BFE01EE0FFF1FE45CFE4F01817A
:102670001281005F1F4F87859089081B190B0E94EC
:10268000340CEC2FF0E0EB5AFE4F8491C82FD0E0D1
:10269000CC0FDD1FC753DB4F8881998108171907BD
:1026A0004CF586B380958E7729F512C00E94340CC4
:1026B0008881998108171907ECF486B380958E7785
:1026C000C9F40DC080918401882391F0C79AEECFA0
:1026D00085E192E066E072E00E94C012E7CF80914F
:1026E0006D0160E040E00E945D0D882379F7EACF3C
:1026F000C798DCCFDF91CF911F910F9108951F9361
:102700009FEF9ABB1BBA81E887BB8EE788BB8EE33D
:1027100084BB81EC85BB11BA92BB88E082B987EF9C
:1027200083B9109261001092620084E1809364008A
:102730008BEF809365000E94105C80E487B985E888
:1027400086B987E083BF8CE981BF87B7836087BF85
:102750001FBC8AE08EBD10928B0082E880938A00B5
:1027600080917D00806280937D00EDB7FEB7329747
:1027700085E502C08083319740E1E93AF40709F02A
:10278000C8F7789485E496E290939E0480939D0424
:1027900089E10E944B5C0E94DD53109169010E9407
:1027A000691280918B01813039F48091820184FD1E
:1027B00003C080E00E9488650E945A120E94340C77
:1027C0000E9421130E94EC120E944E120E943F129E
:1027D0000E94A51180EF90E090930A018093090177
:1027E0000E948B622DE088E190E00FB6F894A895E6
:1027F00081BD0FBE21BD82E395E060E00E94A41A76
:102800008EE59DE30E94F51181E00E941A128091ED
:102810006A010E944B5C8091840190E024EF31E0DA
:10282000AC01429FC001439F900D529F900D112417
:102830009093AF048093AE0480916901181729F03A
:1028400081E00E949E510E9447520E946D6E8FEF60
:102850000E94356120E030E0F901E45CFB4FE0814B
:102860008E2F8695869590E00F971CF4E370E330E9
:1028700021F4F901E45CFB4F10822F5F3F4F2830B9
:10288000310551F780ED97E09BBD8ABD80E186BFA1
:1028900087B7806187BF0E947211FDCFEF92FF92D0
:1028A0000F931F93082FF62E142FE22E442329F0A6
:1028B000463139F04A3E81F408C08A5F4BEC52E061
:1028C00007C08A5F47EC52E003C08A5F43EC52E0E6
:1028D0002E2D0E948E591CC0441F4427441F405E69
:1028E0000E949858802F8A5F212F332727FD30952B
:1028F00037FF03C0309521953F4F43E02402A001EC
:10290000112440585D4F6F2D23E00E2D0E94535926
:102910001F910F91FF90EF900895DF92EF92FF9239
:102920000F931F93F82EE62ED42E1091A201812F23
:10293000992787FD909597FF03C0909581959F4FAC
:1029400080319CF443E08402A00111244E5A5D4F73
:102950008F2D6E2D23E00D2D0E9453591F3F4CF5F6
:102960008F2D86506E2D41E221C0853274F41116F0
:102970001CF4412F4F5002C0412F415F8F2D8650D4
:102980006E2D2D2D0E944E1414C011161CF4412FD3
:10299000445202C0412F4C5D8F2D86506E2D2D2D3F
:1029A0000E944E148F2D8E5E6E2D4DE62D2D0E94B1
:1029B00098581F910F91FF90EF90DF9008950F931B
:1029C000022F50E0440F551F440F551F41535D4FD8
:1029D00024E00E9453590F9108950F93782F342FBC
:1029E000022F442319F44DE953E023C04530B8F4D5
:1029F0008091800190E0880F991F880F991F41E016
:102A000050E0481B590B431B5109440F551F440FFD
:102A1000551F509541955F4F4C5E5E4F09C0473240
:102A200058F450E0440F551F440F551F40505D4F60
:102A3000872F24E00E9453590F9108950F931F93FD
:102A4000062F122F206250E00E94DF5B17FD07C0A7
:102A50008091E80D602F46E7212F0E9498581F9122
:102A60000F910895242F409108010E941E1508958A
:102A7000AF92BF92CF92DF92EF92FF920F931F938C
:102A8000CF93DF93F82EB62EEA01122FA02E57FF18
:102A900010C022FD02C08FE001C08CE19F2D981B69
:102AA000892F6B2D4DE2212F0E949858D095C1950A
:102AB000DF4F2A2D21238F2D6B2D4AE30E9498583A
:102AC000812F90E0F4E0CF2ED12CC822D92212FD24
:102AD00002C0E0E001C0E2E0CE016CE370E00E94E1
:102AE000CF709B01442737FD4095542F10618E2FE6
:102AF0008F0D6B2D012FE2E0EE2E0E949F5ACD2804
:102B000011F4E1E101C0ECE1CE016CE370E00E9460
:102B1000CF709C01442737FD4095542F80E1A82AAF
:102B20008E2F8F0D6B2D0A2D72E0E72E0E949F5A7B
:102B3000DF91CF911F910F91FF90EF90DF90CF9099
:102B4000BF90AF90089599E28902900111243595C4
:102B500027953595279587FD815C86FB880F880B27
:102B600080F9992787FD9095281B390BC901089595
:102B70008DEF9AE00895E1EBF1E090E080818150E3
:102B8000803108F49F5F3A9682E0E13FF807B1F7A1
:102B9000892F08956F927F928F929F92AF92BF92EA
:102BA000CF92DF92EF92FF920F931F933B017C0134
:102BB00000E010E08824992464E670E080E090E072
:102BC0006619770988099909A80197010E949070F0
:102BD0005B016C0182E390E0A0E0B0E0A80EB91EBA
:102BE000CA1EDB1EC801B7010E9490700E9490703F
:102BF000BC0188279927A40193010E94907024E0CA
:102C000096958795779567952A95D1F7A60EB71E65
:102C1000C81ED91EC601B50124E630E040E050E0F0
:102C20000E94E270C9011F910F91FF90EF90DF9019
:102C3000CF90BF90AF909F908F907F906F900895AE
:102C4000FF920F931F939C01AB016115710531F148
:102C5000FF2497FF05C0FF24F394309521953F4F43
:102C600057FF10C000E014E066277727641B750B40
:102C7000C801821B930B0E94CA159801281B390BAF
:102C8000C90104C0C901BA010E94CA15FF2011F48C
:102C90009C0104C022273327281B390BC9011F912F
:102CA0000F91FF900895282FE6E8F8E080E09491D6
:102CB000921731F03196992311F08F5FF8CF80E0B1
:102CC0000895823410F080E20895E82FF0E0EA578A
:102CD000F74F849108951092850610927E06109207
:102CE0007D06109282061092810610928006109244
:102CF0007F0610928406109283060895AF92BF92C9
:102D0000CF92DF92EF92FF920F931F93CF93DF93B7
:102D10005B016C0100E010E8C0E0D0E8EE24FF2485
:102D20009E0140E050E0CA01B9010E949070A616D1
:102D3000B706C806D90610F4C027D12716950795FF
:102D40000894E11CF11C80E1E816F10461F4CE0165
:102D5000DF91CF911F910F91FF90EF90DF90CF9077
:102D6000BF90AF900895C02BD12BDACF9C0140E0EB
:102D7000683008F041E070E0442371F0CB0108971F
:102D8000FC0163E0EE0FFF1F6A95E1F7E80FF91F02
:102D9000DF01AB55BC4F0AC0FB01EE0FFF1FEE0F6A
:102DA000FF1FE60FF71FDF01A358BC4FFD01808115
:102DB00020503C4F37FD0EC068E02030360784F0CD
:102DC000442319F484E090E002C088E090E0A80F6A
:102DD000B91F8C91992787FD9095582F442733C0B0
:102DE000442331F0432FB9017070660F771F04C080
:102DF000432F4695B9017170842F90E0FD01E80FD3
:102E0000F91F8181992787FD90959B01359527951D
:102E1000829FA001839F500D929F500D112420810D
:102E2000332727FD309580E092E0861B970B959520
:102E30008795BC01269FC001279F900D369F900D5E
:102E40001124480F591FCA0169E170E00E94CF7038
:102E5000CB010895482F18161CF010922C050895E8
:102E6000282F332727FD309580912C05281B310909
:102E7000862F90E08217930724F4461B40932C057D
:102E8000089506972817390724F44A5F461B409394
:102E90002C0508950F93982F83E0489FA0011124DB
:102EA0004151554F00E0211101E0892F23E00E949C
:102EB00053590F9108950F93982F83E0489FA001D5
:102EC00011244A50554F00E0211101E0892F23E0E1
:102ED0000E9453590F910895FF920F931F93F82E5C
:102EE000162F042F80E860E0412F50E0202F0E9431
:102EF000DF5B1A3010F485E701C08FE660E04FE237
:102F0000202F0E9498581A3010F485E701C08FE6F0
:102F10004F2D50E04F5F5F4F60E0202F0E94DF5B3E
:102F20001F910F91FF900895FF920F931F93CF93DE
:102F3000DF93082F1091A201812F992787FD90958B
:102F400097FF03C0909581959F4FF82E24E2281794
:102F50000CF03FC02091860830918708809184084A
:102F600090918508282B392B8091880890918908A9
:102F7000282B392B8091830890E0282B392B8091C6
:102F8000800890E0282B392B232B39F410928008ED
:102F900017FF03C081E08093800811161CF4812F75
:102FA000845202C0812F8C5D60E040E00E945D0D84
:102FB000282F882361F080918008882341F490E0D5
:102FC00080918308882309F491E0909383082093EB
:102FD0008008C0918608D09187082196D0938708F1
:102FE000C0938608E0918408F0918508E00FF11DF8
:102FF000F0938508E0938408F8948091160E9091E0
:10300000170E78942091880830918908821B930BC1
:103010008436910508F45EC12C593F4F30938908DE
:1030200020938808CF01BE010E94BB70062F862F17
:1030300090E0AC014C9FC0014D9F900D5C9F900DA6
:103040001124E81BF90BF0938508E0938408109293
:103050008708109286085FE05F151CF010928308C5
:1030600010C084E28F156CF011161CF4812F8F5064
:1030700002C0812F815F60E040E00E945D0D80937F
:10308000830880917B0690917C06019690937C0644
:1030900080937B06E0917D06F0917E063196F09359
:1030A0007E06E0937D06002349F080918106909191
:1030B0008206019690938206809381068091830810
:1030C000882349F080917F06909180060196909325
:1030D000800680937F060695409183065091840672
:1030E000400F511D50938406409383066091A401C4
:1030F0007091A50170938706609386063091A201B6
:10310000832F992787FD909597FF03C09095819510
:103110009F4F882319F41092850622C0813021F434
:10312000CB018E1B9F0B18C0803170F480FF07C04D
:10313000CA01E4E096958795EA95E1F709C0809188
:1031400081069091820604C080917F06909180064E
:10315000AB01481B590BCA019093870680938606E2
:1031600080918506813041F0813018F0823001F580
:103170000FC03323E9F019C080918606909187062D
:1031800018161906ACF06115710591F082E00EC0B9
:103190008091860690918706855C9F4F1CF483E0A2
:1031A000809385066115710519F481E08093850689
:1031B000209186063091870680918108909182083F
:1031C0008217930709F470C080918506813009F059
:1031D0005CC08091820182FF3CC0672BD1F12E310F
:1031E000310519F48EE00E948865809186069091E1
:1031F0008706449719F48FE00E94886580918606BF
:10320000909187060A9719F480E10E948865809161
:1032100086069091870604971CF481E10E948865D8
:103220008091820183FF15C0809186069091870668
:103230008E31910541F08431910529F08A30910554
:1032400011F0049734F482E390E09093AF048093FC
:10325000AE048091820181FF27C08091A30120915B
:1032600086063091870680FF07C08091A401909167
:10327000A501821B930B01C0C9016CE370E00E94A1
:10328000BB70892B89F481E003C0823069F481E14D
:103290000E9488658091820183FF06C082E390E0EE
:1032A0009093AF048093AE042091860630918706F8
:1032B00030938208209381088091A30180FF0AC087
:1032C0008091A4019091A501821B930B9093870696
:1032D00080938606DF91CF911F910F91FF90089503
:1032E0008091A201992787FD909597FF03C0909543
:1032F00081959F4F82304CF180313CF5982F959508
:103300008A3034F4892F0E94665EE82FF0E004C012
:10331000E92FFF27E7FDF0953197EE0FFF1FE250F1
:10332000FB4F208131818091A20187FF05C080E0A1
:1033300094E0821B930B03C0C90180509C4F26E090
:10334000969587952A95E1F702C080E090E00E946B
:10335000941783E00E94665EE82FF0E0EE0FFF1FF7
:10336000E450FB4F0190F081E02DE050FC4FA6E0CF
:10337000F695E795AA95E1F78091A30182FF0AC02F
:10338000E530F10538F08091B004882319F483E02A
:103390008093B00460917C0870917D086F5F7F4FCF
:1033A00070937D0860937C0840917A0850917B0867
:1033B0004E0F5F1F50937B0840937A08F8948091DA
:1033C000160E9091170E789420917E0830917F0808
:1033D000821B930B885E934060F1F8948091160EE7
:1033E0009091170E789490937F0880937E081092A6
:1033F0007B0810927A0810927D0810927C088091C8
:1034000001079091020701969093020780930107AC
:1034100020910007E22FF0E0E857F94FCA010E941F
:10342000BB7060832F5F20930007283710F0109245
:10343000000708950F931F93CF93DF9386E291E0E7
:10344000E2E5F5E0DF019C011D9221503040E1F7FB
:1034500090917806C1EBD1E000E010E051E060E02F
:103460004881442309F440E1041750F5202F712FBF
:10347000352F2F5F872F90E0FC01EE0FFF1FE80F25
:10348000F91FEE0FFF1FDF01AE5ABA4F11962C93B2
:1034900011978C9181608C93EC5AFA4F30833F5F87
:1034A00014966C937F5F241720F3802F8095042F50
:1034B000952F9F5F980F180F140F940F592F51508D
:1034C00078817723D1F1812F90E09C01220F331F67
:1034D000280F391FD901AA0FBB1FAE5ABA4F119638
:1034E0004C93119715966C9315978C9182608C93E1
:1034F00013965C9313975F5F8A85F901319678176D
:1035000041F4EE0FFF1FEE5AFA4F108214961C92F0
:103510000AC0EE0FFF1FEE5AFA4F50835F5F6F5FD6
:1035200014966C936150952F6F5F2A96603219F450
:103530005093780604C01F5F93CF90937806DF9175
:10354000CF911F910F9108952F923F924F925F92CA
:103550006F927F928F929F92AF92BF92CF92DF92A3
:10356000EF92FF920F931F93DF93CF93CDB7DEB708
:103570006C970FB6F894DEBF0FBECDBF9B8F8A8FBE
:103580006C8F8091AD04882309F470C080912E0562
:10359000882319F0815080932E0580918101863F08
:1035A00009F464C080910801823308F45FC08091FF
:1035B0008F078F5F80938F07803158F0809190073D
:1035C00090919107019690939107809390071092A4
:1035D0008F07209103073091040780910507909190
:1035E0000607280F391F8091070790910807280FB9
:1035F000391F8091090790910A07280F391F809180
:10360000920790919307A901481B590BCA0157FFD4
:1036100003C0909581959F4F8150914044F0309325
:103620009307209392071092910710929007409170
:1036300090075091910780918101992787FD90957E
:103640000A9627E731E0BC01629FC001639F900D9D
:10365000729F900D11248417950740F443705070A9
:103660004130510519F482E10E9488658091800102
:10367000782F71707F5F798B81FD03C083E0888B29
:1036800001C0188A9090AF01992009F44BC0998924
:10369000E92FF0E0EE0FFF1FE250FB4FE080F180DA
:1036A0000027F7FC0095102FA889EA2FF0E0EE0F15
:1036B000FF1FE250FB4F20813181442737FD4095A9
:1036C000542FCA01B9010E9490705B016C01C801BE
:1036D000B701A80197010E949070A60EB71EC81EE0
:1036E000D91E692D70E080E090E00AE0660F771F38
:1036F000881F991F0A95D1F724E630E040E050E09A
:103700000E940471B901CA010E9490706A157B057C
:103710008C059D0538F4C601B5010E947E169C8B70
:103720008B8B02C01C8A1B8AEB89FC89BF0180E05D
:1037300090E024E630E040E050E00E9490706E8B14
:103740007F8B888F998F1DE3612E11E0712EBDE470
:103750004B2EB3E05B2E1D8ACC24DD2488249924D3
:10376000FC8D2F2E332421E022223324BC2C8C2DDF
:103770000E94DA0B9C01D3018D919C911197281B1B
:10378000390B121613062CF45C96ED91FC915D97A3
:1037900005C0D3011E96ED91FC911F97E436F1050B
:1037A00014F4E4E6F0E0B901882777FD8095982FBE
:1037B000AAE0660F771F881F991FAA95D1F79F016E
:1037C000442737FD4095542F0E9404717901BCEFC6
:1037D00021303B0724F4E12CFCEFFF2E07C0E4E08E
:1037E00020303E071CF0E12CE4E0FE2E80918201A7
:1037F00080FF10C08091800190E08170907022E085
:1038000030E0281B390BC216D30621F4F094E19462
:10381000F108F394F401E250FB4FF182E082C7011A
:103820000F964F97F0F434E0C316D1047CF48B2D3F
:103830008F5F0E94665E90E0019741E050E002C019
:10384000440F551F8A95E2F7CA0108C081E090E055
:103850000C2C02C0880F991F0A94E2F75D89582B3F
:103860005D8B63E06B1508F47CC1222009F05BC01E
:103870008091A30181FF57C08601000F111F0A58D4
:103880001E4FD80111968C911197807C09F44BC082
:103890008C9185958595859561E040E00E945D0D50
:1038A000882309F440C0D801EC91E770F0E0EE0FF6
:1038B000FF1FDF01A259BE4FEC54FB4F8081918165
:1038C0002D913C91821B930B62E070E00E94CF70BF
:1038D000F601EE0FFF1FE958FE4F4081842F880F3D
:1038E000880F85958595992787FD9095FC016E9F9A
:1038F000C0016F9F900D7E9F900D11246FE170E0CD
:103900000E94CF70CB01880F991F880F991F429595
:10391000469546954370413021F0423021F47C01B8
:1039200002C0E80EF91E2B893C89232B01F139894D
:10393000B31619F04889B416D1F46091AF0170E064
:1039400080E090E00AE0660F771F881F991F0A95B4
:10395000D1F79701442737FD4095542F0E9490706E
:103960002E893F89488D598D0E9404717901D201B9
:103970008C9160E040E00E945D0D882311F400E02E
:103980000BC0F201818160E040E00E945D0D882360
:1039900011F002E001C001E08091800190E08170AF
:1039A000907012E0A12EB12CA81AB90AAC14BD0473
:1039B00061F58091A801807F41F1C70180509C4F43
:1039C00062E070E00E94CF70CB01E02FF0E0EE0FDC
:1039D000FF1FEE0FFF1FA601440F551F9A0173E052
:1039E000220F331F7A95E1F7241B350BE20FF31FEB
:1039F000EF5BFC4F6081772767FD70950E94201672
:103A0000DC01AA0FBB1F10E026C010E01E141F042B
:103A10000CF011E0802F90E09601220F331FF90186
:103A200043E0EE0FFF1F4A95E1F7E21BF30B880F0F
:103A3000991F880F991FE80FF91FE956FE4FE10FF4
:103A4000F11DE655FE4F6081772767FD7095C70130
:103A50000E942016DC01E02FF0E0EE0FFF1FEE0FBA
:103A6000FF1F9601220F331FC90103E0880F991F22
:103A70000A95E1F7821B930BE80FF91FE956FE4FF9
:103A8000E10FF11DE455FE4F6081772767FD7095CA
:103A90006C597F4F882777FD8095982F9D0144278B
:103AA00037FD4095542F0E94907024E630E040E0AE
:103AB00050E00E9404717901AC14BD04D9F59091D5
:103AC000A801892F807F09F432C720E03CEFE20E85
:103AD000F31E2DC7F501EE0FFF1FE050FF4F0190C1
:103AE000F081E02D60818091820180FD61957727D2
:103AF00067FD7095872F972F63587F4F8F4F9F4F8C
:103B000020E034E02E193F09442737FD4095542F1B
:103B10000E94907020E038E040E050E00E94047184
:103B2000C901DA01803038E0930730E0A30730E0C4
:103B3000B30761F4F401E050FF4F0190F081E02DF4
:103B40008081282F332727FD309501C09C01220F4B
:103B5000331FE1E0F0E0EC0FFD1FE80DF91D3183AC
:103B60002083F401ED5FF84FF182E0820894C11CDC
:103B7000D11C42E050E0640E751E840E951E6EE06E
:103B800070E0460E571E77E0C716D10409F0EECD5F
:103B90001091AC018D891823212F30E0809194077A
:103BA00090E08227932782239323892B19F08AE0C0
:103BB0000E9488651093940780E094E09093120728
:103BC000809311079093140780931307FBE12F2E26
:103BD000F7E03F2EB10140E050E0FA01EC54FB4F1A
:103BE000DA01A45CBE4F80819181D2962D913C91E7
:103BF000D397821B930B880F991FDB018D939D93A5
:103C0000BD014E5F5F4F4830510539F78091BC04CC
:103C10009091BD04880F991F9093240780932307E8
:103C20008091BE049091BF04880F991F909326073E
:103C3000809325078091C0049091C104880F991F3B
:103C400090932807809327078091C2049091C30422
:103C5000880F991F90932A0780932907EFE4F7E0D4
:103C6000FA87E987ABE2B7E0808191818D939D93DC
:103C7000349627E0EF38F207B9F75090AF0155209E
:103C800009F489C03989832E9924880C991C43E052
:103C900057E0840E951ED401ED90FC900027F7FCB0
:103CA0000095102FB8896B2E7724660C771C640E54
:103CB000751EF30120813181442737FD4095542F33
:103CC000CA01B9010E9490705B016C01C801B70183
:103CD000A80197010E949070A60EB71EC81ED91E9B
:103CE000652D70E080E090E01AE0660F771F881F76
:103CF000991F1A95D1F724E630E040E050E00E9489
:103D00000471B901CA010E9490706A157B058C0587
:103D10009D0508F040C0C601B5010E947E16A0E0D6
:103D2000B0E0BC01CD0124E630E040E050E00E946C
:103D300090705B016C01E090AF01FF2400E010E0A7
:103D4000BAE0EE0CFF1C001F111FBA95D1F7D40189
:103D50002D913C91442737FD4095542FC801B70160
:103D60000E949070A60195010E940471F4013183B4
:103D70002083D3012D913C91442737FD4095542F4A
:103D8000C801B7010E949070A60195010E940471BC
:103D9000F30131832083B090AD018B2D807E09F437
:103DA000E3C02989E22FF0E0EE0FFF1FDF01AD5FD6
:103DB000B84F6D917C91DE011196EA0FFB1F408197
:103DC00051813889832F90E0880F991FFC01ED5FA6
:103DD000F84F0190F081E02DA80FB91F2D913C9173
:103DE0008C8D81FF05C0CC24DD24EE24FF2406C089
:103DF0006A01C60ED71E7901EE0EFF1EE091AE01DC
:103E0000EE2319F400E010E007C0F0E0EE0FFF1F12
:103E1000EF5FF84F00811181B2FE04C0D094C194CD
:103E2000D108D394B3FE04C0F094E194F108F39464
:103E3000B4FE03C0109501951F4F8091AD0182958E
:103E400086958770823079F1833020F4813009F0D3
:103E50008BC007C0833009F45BC0843009F084C094
:103E60006FC0C70160E072E00E94CF70FB01C70124
:103E700068E070E00E94CF709B01C70160E870E0CD
:103E80000E94CF70D701A21BB30B9D01261B370BDD
:103E90002E1B3F0BC8018C199D0990931607809328
:103EA0001507C60121C0C60160E072E00E94CF7014
:103EB000FB01C60168E070E00E94CF709B01C60163
:103EC00060E870E00E94CF70A601421B530B9A017C
:103ED000261B370B2E1B3F0BC8018E199F09909391
:103EE000160780931507C70162E070E00E94CF704B
:103EF000600F711FCB01820F931F9093180780935F
:103F00001707621B730B70931A07609319072CC075
:103F1000C8018C199D099093160780931507C80155
:103F20008C0D9D1D9C012E0D3F1D30931807209375
:103F300017078E199F0990931A078093190714C0C9
:103F4000C8018C199D099093160780931507C80125
:103F50008E0D9F1D90931807809317070E191F0948
:103F600010931A07009319078091AD04882311F06C
:103F70000E94701980E4EFE4F7E0DF011D928A955A
:103F8000E9F7BC8DB1FF28C0A3E0B7E0FE01319690
:103F900020E030E042E050E08091800190E08170CC
:103FA0009070BA01681B790B6217730729F011969C
:103FB0001C921E92118210822F5F3F4F12963296F2
:103FC0002430310549F7D1011D921D921D01B3E244
:103FD0002B16B7E03B06B9F789E793E09093010110
:103FE0008093000101969093030180930201019652
:103FF00090930501809304010196909307018093AB
:10400000060155ED652E57E0752E45E9242E47E053
:10401000342E35E5432E38E0532E1A8A1F868F85BD
:104020000E94700B5C01FC0180818150803108F09E
:104030002CC3838161E040E00E945D0DD2019C9120
:104040008823E9F4192F1C92F5019181892F88505A
:10405000823028F0953219F0963209F005C3D50167
:1040600017968C918E70843009F4FEC2993019F045
:10407000CC24DD2450C0C12C2CEFD22E4CC010E03B
:10408000992309F411E081E0F2018083D5011196B2
:104090003C91832F8150A82FB0E0FD01EE0FFF1F50
:1040A000ED5FF84FC080D180843158F0EF858E17D6
:1040B00040F4AA0FBB1FAA0FBB1FA15BB84FCD9046
:1040C000DC90D50117962C91822F807381F0822F7E
:1040D0008295837090E00197E1E0F0E002C0EE0F7E
:1040E000FF1F8A95E2F7CF01FA89F82BFA8B26FF9A
:1040F00012C0353080F4E32FF0E0EE0FFF1FE250E6
:10410000FF4F28E030E0A20EB31EB182A08248EF3C
:104110005FEFA40EB51ED50111962C91822F85520A
:10412000823008F047C0F2018081882311F011230A
:1041300021F480911A018F3FE9F490911A01253200
:1041400011F03FEF01C031E020E0930F9770E92FAD
:10415000FF27E7FDF095E45CFB4F8081837021F041
:10416000892F0E9435610AC02F5F283071F78FEFC9
:104170000E94356180911A0187FD76C2E0911A0193
:10418000FF27E7FDF095E45CFB4FE0818E2F837005
:10419000813041F4E695E695F0E0EC5BFB4F8081E1
:1041A0008093410E80E09091410E69E170E00E94A1
:1041B000CF706B01D50117968C91179786FD08C0BB
:1041C00018968C91882321F00E94A315C80ED91E41
:1041D000F5018681882321F48581882309F45DC156
:1041E000D3016D917D918D919C91112389F420E0F3
:1041F00031E040E050E00E940471509540953095C8
:1042000021953F4F4F4F5F4F4601820E931E5AC07C
:10421000F50187818E70843049F5E081F0E0EE0F82
:10422000FF1FE75DF84F60817181882777FD8095DA
:10423000982F20E034E640E050E00E949070D301D7
:104240006D937D938D939C931397F5012281222387
:1042500069F0332727FD3095432F532F0E940471B7
:10426000D3012D933D934D935C931397F30160819C
:1042700071818281938120E031E040E050E00E9432
:10428000047150954095309521953F4F4F4F5F4FAA
:104290004601820E931E81149104A1F0D50115965A
:1042A0008C9197FE82958F7090E0FC0124E630E0BF
:1042B000E29FC001E39F900DF29F900D1124D10168
:1042C0008D939C93F101208131812115310599F065
:1042D0008091AD04882321F0215030403183208328
:1042E000D1018D919C91892B31F0F3016081718115
:1042F00082819381BCC08114910409F4CEC0D501A0
:1043000016968C911697882309F4B9C08091AD0454
:10431000882309F475C012962C91222329F460E0B9
:1043200070E080E293E017C0332727FD309537FF18
:1043300003C0309521953F4F332727FD3095432FFC
:10434000532F60E070E080E293E00E940471C901A5
:10435000DA01BC01CD01F5012681181419040CF510
:104360002F70422F50E041155105D9F1A4E6B0E07D
:104370004A9F90014B9F300D5A9F300D11244427C6
:1043800037FD4095542F0E94047179018A01F30191
:1043900080819181A281B381E80EF91E0A1F1B1F43
:1043A00029C022952F70422F50E041155105C9F0C8
:1043B000A4E6B0E04A9F90014B9F300D5A9F300D0C
:1043C0001124442737FD4095542F0E940471F301B6
:1043D000E080F18002811381E21AF30A040B150BCD
:1043E00009C0C601AA2797FDA095BA2FEE24F82E82
:1043F000092F1A2FD301ED92FD920D931C93139761
:10440000F301608171818281938176010027F7FC3D
:104410000095102F1814190464F420E031E040E0F6
:1044200050E00E940471E216F3060407150764F0D9
:1044300019C020E031E040E050E00E9404712E15E8
:104440003F054007510774F4C601AA2797FDA095C0
:10445000BA2FBA2FA92F982F8827F3018083918331
:10446000A283B383D3016D917D918D919C9120E0C6
:1044700031E040E050E00E94047169010EC0C601C5
:10448000AA2797FDA095BA2FBA2FA92F982F882772
:10449000F30180839183A283B383D50114966C9139
:1044A000633079F1643028F4613051F06230B0F457
:1044B00049C0653089F1653058F16630B9F52FC0D3
:1044C000F5018181893039F4D7FC2CC020E03EEF22
:1044D000C20ED31E0FC0D7FE35C02EC0D501119617
:1044E0008C91893051F41C141D044CF1E0E0F2E091
:1044F000CE0EDF1ECC0CDD1C25C01C141D04E4F008
:1045000021C0D7FE1FC0D094C194D108D3941AC043
:104510001C141D04A4F010C0D7FE0EC003C01C1450
:104520001D046CF0C12C4CEFD42E0CC06750C6019A
:104530000E94B6166C0106C0CC24DD2403C0C12C39
:1045400034E0D32ED50117968C91179780FD14C0B7
:104550001196EC91EE2381F0E53070F4F0E03197A4
:10456000EE0FFF1F21E030E02C0F3D1FE20FF31F85
:1045700080819181C80ED91EB601882777FD80956C
:10458000982FD50112962C91332727FD3095432F74
:10459000532F0E9490706B017C01F50127812695B5
:1045A0002770213089F08081223009F049C0E82F3E
:1045B000F0E0EE0FFF1FEE0FFF1FE55BF84FC0822C
:1045C000D182E282F38250C0D5012C91022F10E0FB
:1045D000000F111F000F111F055B184FC701B60117
:1045E00024E630E040E050E00E940471CA01B901C5
:1045F000F80120813181428153810E949070D8015D
:104600006D937D938D939C931397F5016081062F95
:1046100010E0000F111F000F111F055B184FD8018C
:104620006D917D918D919C9120E034E040E050E0CF
:104630000E940471F801208331834283538314C0A4
:10464000E82FF0E0EE0FFF1FEE0FFF1FE55BF84FC6
:1046500080819181A281B3818C0D9D1DAE1DBF1DF6
:1046600080839183A283B383FF85FF5FFF8724E06C
:1046700030E0620E731E42E050E0240E351E0894B6
:10468000411C511CF03209F0CACCF8940091160E6E
:104690001091170E7894FA88F0FE05C0002319F4E3
:1046A0008BE00E948865F1FE0BC0C80190708034D9
:1046B000910519F08834910519F48CE00E94886501
:1046C000F2FE0EC0C80190708038910531F0883834
:1046D000910519F08039910519F48DE00E948865E3
:1046E000E1EF2E2EE2E03E2E64E174E07C876B87E2
:1046F0001E861D86A985BA858D909D90AD90BC9033
:10470000C501B40124E630E040E050E00E940471AD
:10471000E985FA852083318342835383ED85FE85C5
:10472000E45FFA4FC90120839183D10113962D9143
:104730003C91149711968C91BAE08B0230011124B0
:10474000E8EEF3E06E0E7F1ED1018C91BAE08B0291
:1047500020011124E8E1FCEF4E0E5F1EC301562D2F
:10476000492F261537051CF4C901522F492F852FD3
:10477000942F8C01041515050CF482018114910409
:10478000A104B10469F19801442737FD4095542FE5
:10479000181419041A041B0454F4B301882777FD74
:1047A0008095982F621B730B840B950B0BC0C20175
:1047B000AA2797FDA095BA2F281B390B4A0B5B0B34
:1047C000CA01B901A50194010E94907020EA36E85F
:1047D00041E050E00E940471C901DA014C015D0121
:1047E000C80175E0959587957A95E1F7800F911F3F
:1047F0009801232F330F330B2595820F931F000F42
:10480000012F001F110B801B910B6C01EE24D7FCB4
:10481000E094FE2CC30145E0959587954A95E1F714
:10482000860D971DA20135E0559547953A95E1F71C
:10483000B201660F672F661F770B440D551D93015C
:10484000232F330F330B2595820F931F660C672C94
:10485000661C7708861997098C01222717FD209579
:10486000322FC80CD91CEA1CFB1C0C151D052E058B
:104870003F0514F468017901461B570B7595679540
:1048800075956795460F571FCA01AA2797FDA095F2
:10489000BA2F87017601E816F9060A071B0714F4F8
:1048A0007C018D01D10112968C91882341F01095E5
:1048B0000095F094E094E11CF11C011D111DEB85A5
:1048C000FC858081882389F060E040E00E945D0DD6
:1048D000882359F0AB85BC8511968C910E94A31555
:1048E0007C010027F7FC0095102FF894EA8DFB8DD2
:1048F0002D853E85E20FF31FF182E0827894498591
:104900005A854C5F5F4F5A8749872E5F3F4F3E87DE
:104910002D8765E070E0260E371E8B859C850296FC
:104920009C878B874F58574009F0E4CE04C09F7096
:1049300009F0D0C8FFC86C960FB6F894DEBF0FBE62
:10494000CDBFCF91DF911F910F91FF90EF90DF903E
:10495000CF90BF90AF909F908F907F906F905F901F
:104960004F903F902F9008950E94BB15803210F415
:1049700080E0089581E79AE20E94F51181E00895B0
:10498000EF92FF920F931F93DF93CF93CDB7DEB7D4
:10499000C054D0400FB6F894DEBF0FBECDBF7E012D
:1049A0000894E11CF11CC70163E00E94A41A8E0167
:1049B0000F5D1F4FC80161E00E94A41AE3EFF2E00F
:1049C000B7017801018112818081DB014D915C91F9
:1049D000D7012D913C91882321F0CA01821B930BB2
:1049E00003C0C901841B950B800F911FB3E0883E63
:1049F0009B071CF088EE93E006C02CEF89319207EC
:104A000014F488E19CEF9283818335966E5F7F4F2B
:104A100082E090E0E80EF91E93E0E334F90791F6A6
:104A20008091800190E08170907022E030E0281B3E
:104A3000390B16AA2130310511F010927A03223079
:104A4000310511F010927B0310927C0386E00E94E6
:104A50009E5182E00E948865C05CDF4F0FB6F894DB
:104A6000DEBF0FBECDBFCF91DF911F910F91FF90A1
:104A7000EF900895DF92EF92FF920F931F93CF93E1
:104A8000DF938FE161E247E10E94415A8FE167E3E2
:104A900047E10E943D5A85E361E247E10E94415AA5
:104AA0008FE161E247E10E943D5A8BE461E247E118
:104AB0000E94415A8BE467E347E10E943D5A81E638
:104AC00061E247E10E94415A8BE461E247E10E94C2
:104AD0003D5A8AE26BE243E00E94415A89E26CE26D
:104AE00043E00E943D5A86E56BE243E00E94415A52
:104AF00085E56CE243E00E943D5A8091FE0490916E
:104B0000FF04880F991F9C0143E0220F331F4A9531
:104B1000E1F7820F931F60E078E00E94CF70D62EFD
:104B20008091000590910105880F991F9C0113E069
:104B3000220F331F1A95E1F7820F931F60E078E090
:104B40000E94CF708B01109501951F4FB8E2FB2E8C
:104B5000FD0CAAE2EA2EE00E8F2D6E2D45E00E949C
:104B6000415A025D8F2D602F45E00E943D5A8D2DE8
:104B7000845D6E2D45E00E94415A8F2D6E2D45E0DB
:104B80000E943D5A8091040590910505880F991F58
:104B90009C01E3E0220F331FEA95E1F7820F931F98
:104BA00060E078E00E94CF70D62E8091020590914F
:104BB0000305880F991F9C0163E0220F331F6A953C
:104BC000E1F7820F931F60E078E00E94CF708B01C5
:104BD000109501951F4F54E5F52EFD0C4AE2E42E89
:104BE000E00E8F2D6E2D45E00E94415A025D8F2D03
:104BF000602F45E00E943D5A8D2D885A6E2D45E06C
:104C00000E94415A8F2D6E2D45E00E943D5AC6E00C
:104C1000D5E03AE3F32E28E3E22E699179918827D3
:104C200077FD8095982F26E130E040E050E00E942B
:104C300090706050784A8F4F9F4F20E038E040E0FE
:104C400050E00E940471122F1F5F0E2D011B8F2D4B
:104C5000602F412F0E94415A8F2D8F5F602F412F6F
:104C60000E94415A8F2D8E5F602F412F0E94415A22
:104C700085E0F80E89E4F81681F6DF91CF911F9157
:104C80000F91FF90EF90DF9008954F925F926F9297
:104C90007F928F929F92AF92BF92CF92DF92EF92CC
:104CA000FF920F931F93DF93CF930F92CDB7DEB791
:104CB000F0907E019FE0F922813809F476C08238B5
:104CC00090F4833209F43FC0843230F48032E1F052
:104CD000823209F08CC046C0813609F45AC080384F
:104CE00009F085C01CC0843801F1853838F4823859
:104CF00009F449C0833809F07AC043C08538E9F027
:104D00008F3B09F074C067C0A5E0FA1609F06FC0C8
:104D10008091B00491E089278093B0045AC00E942A
:104D2000BE0B0E94F51180E805C08EE59DE30E9450
:104D3000F51184E80E94885D5AC080ED94E30E94DA
:104D4000F51185E8F7CF8F2D8F5F80937E01863038
:104D500010F010927E0181E00E949E5185E00E9439
:104D6000886545C0FF2029F0FA94F0927E01F39403
:104D700003C085E080937E0181E00E949E5186E021
:104D8000EECF83E8D7CF85E299E60E94050D82E851
:104D9000D1CF80918506823021F483E0809385060F
:104DA00018C0B5E0FB1619F512C0109285061092D6
:104DB0007E0610927D061092820610928106109255
:104DC000800610927F0610928406109283060E943D
:104DD000D10B89E0C4CF81E00E94885D83E00E940E
:104DE000885D82E00E94885D81E0809379088091EF
:104DF000AB0160E040E00E945D0D882331F08091BE
:104E00007908882311F40E94C0248091AB0160E0EE
:104E100040E00E945D0D8093790880917E01803191
:104E200008F090C037E9C32E31E0D32E1AE0812F6D
:104E300060E0F60141916F0124E00E949858155FEF
:104E40001837A9F78CE00E94596020E0C22E21E0BB
:104E5000D22E882499249FE1B92EF401EA5EFE4FF8
:104E6000E080D601ED91FC91E081E7FDED5FE595F5
:104E7000E595E43E0CF4E4EE0E2FED310CF00CE180
:104E8000F401EE5EFE4F80818823F9F08E2D64E000
:104E900046E30E94415A8091800190E0882599253F
:104EA00080FD04C08091A8018F7061F48E2D815027
:104EB0006EE143E00E94415A8E2D8F5F6EE143E028
:104EC0000E94415A9B2D901B14C08E2D8B516BE379
:104ED00046E30E943D5A1E2D1150812F6AE343E0A4
:104EE0000E943D5A812F6CE343E00E943D5AE00E40
:104EF0009BE31E2D1350092F0350812F602F47E095
:104F000099830E94415A99819D5F812F692F47E0C3
:104F10000E943D5A8E2D8D5F602F47E00E94415ABE
:104F2000812F602F47E00E943D5A0894811C911CFC
:104F3000E2E0F0E0CE0EDF1EF4E08F16910409F0FF
:104F40008CCF27C080E060E047E951E02AE001E132
:104F50000E9453599091080180916B01981710F0AD
:104F600040E001C042E084E560E00E94321580919B
:104F70008506882371F0823011F000E001C002E064
:104F800040918606509187068FE660E0202F0E94B0
:104F9000381581E08F1508F49AC082E3A82E85E0C9
:104FA000B82ECC24DD240BE1602E712C19E1812E6A
:104FB000912C2C2DD5014D905C90FF2029F0B1E073
:104FC000FB1609F077C02BC0C60183709070869DD8
:104FD0008001879D100D969D100D11242695269514
:104FE00030E02B5F3F4FB3E0220F331FBA95E1F75C
:104FF000C20160E270E00E94CF70FB01C20160E874
:1050000070E00E94CF706E1B7F0B460E571E802FE4
:105010008F5D622FA20120E20E94DF5B4BC0243033
:1050200010F01EE501C012E2960123703070C90134
:10503000880F991F880F991F820F931F082F0A5DF1
:10504000920157FE04C02227332724193509289DD1
:10505000C001299D900D389D900D112480509E4FC8
:10506000892F990F990B85958595E82EE9E1E81729
:1050700014F4E9E1EE2E812F8951602F43E325E5F9
:105080000E940B5A602F6250812F45E00E94415AC6
:105090001414150414F41F5F01C01E190F5F812F33
:1050A000602F4E2D0E943D5A0250812F602F4E2DB1
:1050B0000E943D5A0894C11CD11C82E090E0A80EC9
:1050C000B91E98E0C916D10409F073CF62C0A4E0FC
:1050D000AF1508F454C00E943A25B2E0FB1621F443
:1050E00076E0C72E90E009C086E0F89E802D11245E
:1050F000982F99506AEFC62EC80ED92E83E09802D9
:105100005001112410E216C00E94800B7C018D2DED
:1051100060E040E00E945D0D082FEA0CFB1C8AE075
:10512000612FA70123E00E945359E3E0F0E0AE0EA7
:10513000BF1E185FD394183339F7DC2C83E0FC2DA5
:10514000F8025001112410E216C00E94800B7C016D
:105150008D2D60E040E00E945D0D082FEA0CFB1CE5
:1051600085E6612FA70123E00E94535983E090E078
:10517000A80EB91E185FD394183339F70AC04091AE
:10518000B2045091B3048CE368E224E004E00E948E
:1051900038150F90CF91DF911F910F91FF90EF90F5
:1051A000DF90CF90BF90AF909F908F907F906F9047
:1051B0005F904F900895DF92EF92FF920F931F93AD
:1051C000CF93DF93F82ED62E122F80E00E94C15984
:1051D000C12FD0E0112707FD109520E0C017D1079F
:1051E00009F421E086E66D2D4F2D0E945B17C01754
:1051F000D10739F48E2D6F2D40E021E00E944E0F33
:10520000F82E8F2DDF91CF911F910F91FF90EF908E
:10521000DF9008956F927F928F929F92AF92BF928C
:10522000CF92DF92EF92FF920F931F93DF93CF9372
:10523000CDB7DEB7682E862F742E122F302F6E2D2D
:105240000A2D222329F0442309F436C122E035C176
:1052500020E0033609F041C08C2D90E0880F991FA3
:10526000FC0143E0EE0FFF1F4A95E1F7E81BF90B45
:10527000E35BFC4F832F40810E944E14112309F4FD
:1052800021C1772039F48091AB049091AC04892B33
:1052900009F418C18C2D90E0880F991FFC0113E0D0
:1052A000EE0FFF1F1A95E1F7E81BF90BE35BFC4FCC
:1052B000862D60814AEE26E10E945D0F2C2D30E0A4
:1052C000220F331FF901A3E0EE0FFF1FAA95E1F7AC
:1052D000E21BF30BE35BFC4FEDC0023609F041C06B
:1052E0008C2D90E0880F991FFC0173E0EE0FFF1FDB
:1052F0007A95E1F7E81BF90BE25BFC4F832F4081C5
:105300000E944E14112309F4DDC0772039F48091F6
:10531000AB049091AC04892B09F4D4C08C2D90E09F
:10532000880F991FFC0153E0EE0FFF1F5A95E1F71C
:10533000E81BF90BE25BFC4F862D60814AEE26E10B
:105340000E945D0F2C2D30E0220F331FF90193E0F6
:10535000EE0FFF1F9A95E1F7E21BF30BE25BFC4FA8
:10536000A9C0A02EBB248989E82EFF24882009F03B
:105370005AC08C2D90E0880F991FFC01B3E0EE0F0E
:10538000FF1FBA95E1F7E81BF90BC501880F991FBC
:10539000880F991FE80FF91FEE0DFF1DEF5BFC4F03
:1053A0004081552747FD5095832F0E94DF5B1123D5
:1053B00009F488C0772039F48091AB049091AC0453
:1053C000892B09F47FC08C2D90E0880F991FFC0178
:1053D00063E0EE0FFF1F6A95E1F7E81BF90B85010B
:1053E000000F111F000F111FE00FF11FEE0DFF1D29
:1053F000EF5BFC4F862D60814CE924E60E945D0F37
:105400002C2D30E0220F331FF90193E0EE0FFF1F28
:105410009A95E1F7E21BF30BE00FF11FEE0DFF1D74
:10542000EF5BFC4F47C0DD249924F501EE0FFF1F11
:10543000C601A3E0880F991FAA95E1F78C199D0971
:10544000E80FF91FE80DF91DEE0FFF1FEE0DFF1D10
:10545000EF5BFC4F4081552747FD50954C595F4FFE
:10546000832F0E94DF5B112369F1772031F4809153
:10547000AB049091AC04892B29F18501000F111F19
:10548000C60153E0880F991F5A95E1F78C199D09C1
:10549000080F191F080D191D000F111F0E0D1F1DDC
:1054A0000F5B1C4F862DF80160814CE920E00E94C3
:1054B0005D0FF801808306C021E0882309F4C9CE7E
:1054C00021E0C7CECF91DF911F910F91FF90EF9018
:1054D000DF90CF90BF90AF909F908F907F906F9014
:1054E00008951F93182F80E060E14AE359E00E947D
:1054F000C1590E94BB15482F88E760E150E020E0C9
:105500000E94DF5B80E060E244E259E00E94C15902
:10551000113651F481E60E94885D81E00E941A12E2
:105520008BE499E40E94F5111F9108957F928F9268
:105530009F92AF92BF92CF92DF92EF92FF920F9322
:105540001F93CF93DF93EC01D62EB42E4901702E1A
:1055500000910605109107058091070990910809AF
:10556000801B910B60E470E00E94CF70262F609347
:105570003005E0910805F0910905809105099091A9
:1055800006098E1B9F0B60E470E00E94CF70609351
:105590003105222321F0109308090093070966239F
:1055A00021F0F0930609E093050980912F058823E7
:1055B00021F48091820185FF06C01092300510927F
:1055C000310510922F0540913005442351F480910C
:1055D0003105882331F48091AB049091AC04892B80
:1055E00089F08091840190E024EF31E0BC01629F5A
:1055F000C001639F900D729F900D11249093AF0492
:105600008093AE048114910409F461C088818823D9
:1056100011F040E058C0442341F180912D058823CA
:1056200021F57B2D741B472F77FD40E0272D30E0BF
:10563000842F992787FD90958217930714F0472DA3
:105640004150242F332727FD30958B2D90E02817CC
:10565000390749F0F901EE0FFF1FE80DF91D85919B
:1056600094910E94050D1092300585E6D81689F4B4
:10567000BB2011F4272D01C02B2D81E090E0821B6F
:105680009109880F991FF401E81BF90B85919491FA
:1056900017C0E4E6DE16B1F42B2D30E0872D90E044
:1056A00001972817390714F080E002C08B2D8F5F17
:1056B000E82FF0E0EE0FFF1FE80DF91D85919491A2
:1056C0000E94050D41E08B2D672D0E946C17E1149F
:1056D000F10411F460E009C088819C2D8C1508F458
:1056E000982FF701E90FF11D649180912D05882312
:1056F00009F064C080913105882309F438C04881DD
:10570000481B47FD40E0242F332727FD30958A2D85
:1057100090E0281739070CF04A2D48838981E1145D
:10572000F10411F420E00BC0242FC41608F42C2D32
:10573000F701E20FF11D2491821708F4282F298325
:10574000E114F10411F480E00CC088819C2D8C15CB
:1057500008F4982FF701E90FF11D8491281708F438
:10576000822F898380E68093180E109231059881EC
:10577000992321F180913005882301F12981E114D9
:10578000F10411F440E016C0422F481B47FD40E0F1
:105790008C2D9C1508F4892FF701E80FF11D549109
:1057A000242F332727FD3095852F90E028173907C0
:1057B0000CF0452F498380E68093180EF0E6DF1643
:1057C000B1F1FD15B8F073E4D71609F497C07D1553
:1057D00040F081E2D816D1F1E2E4DE1609F0B1C062
:1057E00071C0F4E4DF1609F447C075E4D71609F078
:1057F000A8C055C084E6D81609F442C08D1548F0FB
:10580000E2E6DE1609F462C0F3E6DF1609F099C09D
:1058100078C071E8D716B9F08FEBD81629F0E5E615
:10582000DE1609F08EC03FC01982188213C06623AD
:1058300009F487C090E080912D05882309F491E058
:1058400090932D057EC010922D050CC080912D05E2
:10585000882319F010922D0574C08881882311F0D7
:10586000892821F480E00E941A126BC089E00E940E
:1058700088651982188262C08981861709F461C01F
:10588000EF2809F45EC080912D05882309F059C0E6
:105890008981861710F48F5F50C019824FC08981AB
:1058A000882309F44EC0EF2809F44BC080912D05E0
:1058B000882309F046C08981882311F081503DC0BA
:1058C00069833CC088818A1509F43BC080912D050D
:1058D0008823B9F588818A1518F48F5F888301C001
:1058E00018829981E114F104D9F088818C1508F4AB
:1058F000C82EEC0CF11CF70184911CC08881882310
:1059000001F180912D058823E1F48881882319F025
:105910008150888301C0A8829981E114F10411F4B7
:1059200080E00BC088818C1508F4C82EEC0CF11CAB
:10593000F7018491981708F4892F898380E6809372
:10594000180EDF91CF911F910F91FF90EF90DF9094
:10595000CF90BF90AF909F908F907F9008952F929F
:105960003F924F925F926F927F928F929F92AF92EF
:10597000BF92CF92DF92EF92FF920F931F93DF932C
:10598000CF9300D000D000D0CDB7DEB78B8380E0BE
:1059900060E04AE454E021E00E948E5985E798E0F7
:1059A0006B8149E02AE234E00AE0E5E5EE2EE4E02E
:1059B000FE2ECC24C3947DE0A72E0E94962A10913F
:1059C00075081150809176088A83812F66E00E94C5
:1059D0002A17198258E0652EE12FFF27E7FDF09581
:1059E000FD83EC8380912C05F9818F0FE82EFF2435
:1059F000C701880F991F7A80780E89E1871508F40E
:105A000025C1EC81FD81EE15FF0519F020E030E0A5
:105A100013C020E0872D90E0FC01EE0FFF1FEE0F7A
:105A2000FF1FE80FF91FEC50F14F808182958F70B6
:105A300009F021E0F1E02F2780E0662D472D0E943C
:105A40007267872C9924F401EE0FFF1FEE0FFF1FE2
:105A5000E80DF91DEC50F14F808182958F7009F4AB
:105A6000EDC089E1781611F42CE601C020E6EC8146
:105A7000FD81EE15FF0511F090E007C080912D0526
:105A8000882311F491E001C092E0F401EE0FFF1FB2
:105A9000EE0FFF1FE80DF91DEE52F14F23A034A0C9
:105AA00045A056A0F6E17F1640F087E1871560F427
:105AB000E9E1E71510F010E008C0F5E1F71520F076
:105AC00080FE02C013E001C012E0822F662DA20109
:105AD0009101012FE92E9E830E94C0669E81992329
