:100000000C94100B0C942D0B0C942D0B0C942D0BAD
:100010000C942D0B0C942D0B0C942D0B0C942D0B80
:100020000C942D0B0C942D0B0C942D0B0C942D0B70
:100030000C94A40D0C942D0B0C942D0B0C940B0E06
:100040000C940F0D0C942D0B0C946A630C949B6311
:100050000C942D0B0C942D0B0C942D0B0C942D0B40
:100060000C942D0B0C94200D0C942D0B0C942D0B3B
:100070000C942D0B0C942D0B0C942D0B0C942D0B20
:100080000C942D0B0C942D0B0C942D0B52554420DD
:10009000454C45205448522041494C20525544205B
:1000A00054485220454C452041494C2041494C2060
:1000B000454C4520544852205255442041494C203B
:1000C00054485220454C452052554420000301021B
:1000D000000405060700000000000001081E64017E
:1000E00001081E6401010F32960A0A1E32966D65E0
:1000F0006E75537461636B206F766572666C6F7793
:10010000006D656E75537461636B20756E64657206
:10011000666C6F7700707265737320616E79204B27
:10012000657900414C455254004D45535341474574
:10013000004C4F4144494E4700506C656173652047
:100140007265736574207468656D005377697463B4
:10015000686573206E6F74206F666600204F6C6454
:100160002056657273696F6E20454550524F4D2081
:100170002020434845434B2053455454494E475350
:100180002F43414C494200416C61726D73204469B8
:100190007361626C65640052657365742074687283
:1001A0006F74746C65005468726F74746C65206E43
:1001B0006F742069646C6500507265737320616EA2
:1001C00079206B657920746F20736B697000414CE6
:1001D00045525400454550524F4D206C6F77206D6D
:1001E000656D004F46464142535255735255254561
:1001F0004C73454C25544873544825414C73414C2D
:100200002550312050312550322050322550332096
:1002100050332500544852525544454C45494430CA
:1002200049443149443241494C47454154524E5367
:100230005731535732535733535734535735535716
:1002400036535737535738535739535741535742FB
:10025000535743004F4646004F4E20002D2D2D0092
:100260002D2D2D2043483120434832204348332050
:1002700043483420434835204348362043483720FC
:1002800043483820434839204348313043483131CE
:1002900043483132434831334348313443483135A0
:1002A0004348313600503120205032202050332036
:1002B000204D41582046554C4C43594331435943F6
:1002C000324359433350504D3150504D3250504DC0
:1002D0003350504D3450504D3550504D3650504D98
:1002E0003750504D3843483120434832204348333B
:1002F000204348342043483520434836204348377C
:10030000204348382043483920434831304348315E
:100310003143483132434831334348313443483123
:10032000354348313655502020444F574E002D2D2F
:100330002D2D00564552533A2056312E30332D473D
:100340005600444154453A2032342E30392E323052
:1003500031310054494D453A2032313A30393A3042
:100360003700204D4F443A204D41564C494E4B00EA
:1003700012081200081C0808081C080000082200C7
:10038000490022080000000000227F22000000082F
:10039000220049002208000008220049002208002B
:1003A0000000227F220000000000082200490022F5
:1003B000080000081C0808081C08006941CA42D946
:1003C00035544DC2519740EB377D4B5132DF30955C
:1003D000393D34263E573EE63E683F4D415620505B
:1003E000490000016F666670706D6D617600524F56
:1003F000544152592053574954434845530000052E
:1004000070756C736520746162206F766572666CBE
:100410006F77004D6F646500416C61726D205761AC
:10042000726E696E67004D656D6F727920576172EB
:100430006E696E6700537769746368205761726EE6
:10044000696E67005468726F74746C6520576172CE
:100450006E696E67004F4646004C69676874206F8E
:100460006666206166746572004C69676874207303
:10047000776974636800466C617368206F6E2062F0
:10048000656570004265657020636F756E74646F9A
:10049000776E004D696E75746520626565700054F5
:1004A00068726F74746C652072657665727365002E
:1004B00053494E474F534D5046494C540046696C82
:1004C0007465722041444300496E616374697669C2
:1004D000747920616C61726D00313932303033389B
:1004E0003430303537363030004261756420726107
:1004F0007465004D61762062617474207761726E5C
:100500000042617474657279207761726E696E67FA
:1005100000436F6E74726173740051756965744E37
:100520006F4B65794E6F726D204C6F6E6720784C03
:100530006F6E6700426565706572004F776E657219
:10054000204E616D6500524144494F20534554553A
:10055000500043616C004D756C7469706C69657214
:1005600000636831636832636833636834006F66C0
:1005700066202B3D203A3D006D6F646520202025CC
:10058000207372632020737700536C61766500548A
:100590005241494E455200000303030300564552A1
:1005A00053494F4E005472696D2D202B00204D652C
:1005B0006E75204578697420446F776E2020205531
:1005C000705269676874204C6566740044494147FD
:1005D00000424700414E4100205B4D454E555D2095
:1005E0005748454E20444F4E452000204D4F56451C
:1005F00020535449434B532F504F54532000205BFA
:100600004D454E555D205748454E20444F4E4520A0
:1006100000202020534554204D4944504F494E540A
:1006200020202000205B4D454E555D20544F205327
:100630005441525420200053544152542043414CC1
:100640004942524154494F4E200043414C49425285
:100650004154494F4E0066726565004D4F44454C0C
:1006600053454C0044454C455445204D4F44454C62
:100670002020205B4D454E555D0054325468547225
:10068000696700547261696E657200452E204C697D
:100690006D69747300504F534E4547005368696647
:1006A000742053656C0050504D2046724C656E208E
:1006B0002020206D53656300755365630034434803
:1006C00020364348203843482031304348313243B4
:1006D0004831344348313643480050504D202020A3
:1006E00050585820202053494C565F4153494C568E
:1006F0005F4253494C565F43545241433039005096
:10070000726F746F00524554413132330042656557
:100710007020436E74005472696D205377004578E1
:1007200070202020457846696E6546696E652020F8
:100730004D656469756D436F6172736500547269CC
:100740006D20496E6300542D4578706F00542D5410
:1007500072696D00436F756E7420446F776E436FDE
:10076000756E7420557020200054696D65722000EC
:10077000547269676765720054696D6572004E61F5
:100780006D650053455455500000090100000000FC
:1007900000000602004475706C69636174696E67DD
:1007A000206D6F64656C005B4D454E555D20205B90
:1007B000455849545D0059455320202020204E4F74
:1007C0000044454C455445204D4F44454C0044554C
:1007D000504C4943415445204D4F44454C00204125
:1007E00042434445464748494A4B4C4D4E4F505171
:1007F00052535455565758595A6162636465666737
:1008000068696A6B6C6D6E6F7071727374757677F0
:1008100078797A303132333435363738395F2D2EA6
:10082000006578702020252020737731207377327F
:10083000004558504F2F445200000344522048694D
:100840006768004452204C6F77004452204D696421
:100850000044725377320044725377310057656910
:10086000676874004578706F004558504F2F4452A8
:1008700000002D2D2D783E30783C307C787C663E13
:1008800030663C307C667C633120633220633320E9
:100890006334206335206336206337206338206358
:1008A0003920633130633131633132633133633145
:1008B00034633135633136002B2A52004D49584597
:1008C00052005072657373205B455849545D207423
:1008D0006F2061626F7274004D6178206D69786578
:1008E00072732072656163683A200044454C455438
:1008F00045204D4958205B4D454E555D00536C6F6A
:10090000772020557000536C6F772020446F776EEE
:100910000044656C61792055700044656C617920F4
:10092000446F776E0041646420202020204D756C58
:100930007469706C795265706C61636520004D75E7
:100940006C747078004F4646005761726E696E672E
:1009500000537769746368002D2D2D783E30783C04
:10096000307C787C663E30663C307C667C6331202F
:100970006332206333206334206335206336206381
:10098000372063382063392063313063313163317C
:10099000326331336331346331356331360043754B
:1009A00072766573004F4E204F4646005472696D53
:1009B000004F46464F4E2000466C4D6F6465747282
:1009C000696D004F666673657400466D5472696D9B
:1009D00056616C0057656967687400536F75726380
:1009E000650045444954204D49582000494E53451F
:1009F0005254204D495820002D2D2D2D2020207699
:100A00003E6F66732020763C6F667320207C767C78
:100A10003E6F66737C767C3C6F6673414E4420204B
:100A200020204F522020202020584F5220202020CC
:100A300076313D3D7632207631213D763220763159
:100A40003E7632202076313C7632202076313E3D93
:100A500076322076313C3D763220005357004355A4
:100A600053544F4D205357495443484553000002B7
:100A70005341464554592053574954434845530020
:100A80000002434F5059205452494D205B4D454E72
:100A9000555D002D2D2D494E56004C494D4954535E
:100AA000000003030303030303030303030303031C
:100AB00003030043560043555256455300505245D8
:100AC00053455400454449542D3E00435552564524
:100AD0000009002D2D2D494E56004F46464F4E2001
:100AE00000454550524F4D206F766572666C6F77AA
:100AF00000454550524F4D206F766572666C6F779A
:100B00000067656E7772697465206572726F720036
:100B1000454550524F4D20466F726D617474696E39
:100B2000670042616420454570726F6D20446174B6
:100B300061004D4F44454C2020202020004D452091
:100B4000202020202020200050085000000000001D
:100B50000000006F000007000700147F147F1424BA
:100B60002A7F2A1223130864623649552250000551
:100B7000030000001C2241000041221C0014083E1A
:100B8000081408083E08080050300000080808084B
:100B90000800606000002010080402003E49453E45
:100BA0000000427F400062514946004149493600F9
:100BB0001814127F0027454539003E49493200018B
:100BC0007905030036494936000649291E000036DA
:100BD0003600000056360000081422411414141484
:100BE00014412214080002015109060006090906F1
:100BF0007E0909097E7F494949363E414141227FAC
:100C00004141221C7F494949417F090909013E416F
:100C100049497A7F0808087F00417F410020404110
:100C20003F017F081422417F404040407F020C0278
:100C30007F7F0408107F3E4141413E7F090909063C
:100C40003E4151215E7F0919294626494949320111
:100C5000017F01013F4040403F1F2040201F3F4097
:100C600030403F6314081463070870080761514956
:100C70004543007F41410002040810200041417FAC
:100C80000004020102044040404040000102040010
:100C900020545454787F48444438384444442038DD
:100CA0004444487F3854545418087E0901020C52B9
:100CB00052523E7F0804047800447D4000204044A6
:100CC0003D007F1028440000417F40007C04180450
:100CD000787C0804047838444444387C141414089C
:100CE000081414187C7C0804040848545454200444
:100CF0003F4440203C4040207C1C2040201C3C4085
:100D000020403C44281028440C5050503C4464542B
:100D10004C44000836410000007F000000413608C6
:100D2000000808221C08081C220808A06080000097
:100D3000000000000000000000000000FFFF0000B5
:100D4000000000001F3F00003F1F00003030FFFF89
:100D50003030FFFF30303078CCCCFFFFCCCC8C0C67
:100D6000060F0F86C0E070381C0C3CFEC7E3F33B57
:100D70001E0C00000000333B1F0F000000000000AD
:100D8000F0F81C0E07030000000003070E1CF8F02B
:100D900000003030E0C0FCFCC0E03030C0C0C0C05B
:100DA000FCFCC0C0C0C0000000000000000000004B
:100DB000C0C0C0C0C0C0C0C0C0C0000000000000B3
:100DC0000000000000000080C0E070381C0C000033
:100DD00000000000000000000000000038380000A3
:100DE00000000000000000000000000003033F3F7F
:100DF00003033F3F03030C0C0C0C3F3F0C0C070399
:100E00000C0E07030100183C3C180F1F3831333318
:100E10001E1E333300000000000000000000000030
:100E200003070E1C38300000000030381C0E07038A
:100E30000000030301000F0F000103030000000086
:100E40000F0F000000000000333B1F0F00000000E8
:100E5000000000000000000000000000183C3C18EA
:100E6000000000000C0E070301000000000000005D
:100E7000FCFE87C3E377FEFC00000C0EFFFF0000C2
:100E8000000000000C0E0783C3E77E3C0000030354
:100E9000C3C3C3E7FE3C0000C0E070381C0EFFFF78
:100EA00000003F3F33333373E3C30000FCFEC7C38E
:100EB000C3C78E0C00000303C3E3733B1F0F000086
:100EC0003CFEE7C3C3E7FE3C00003C7EE7C3C3E74C
:100ED000FEFC0000183C3C18000000000000183C1C
:100EE0003C18000000000000C0E0F0381C0E0703B2
:100EF0003030303030303030303003070E1C38F0B6
:100F0000E0C000000C0E07030383C3E77E3C000033
:100F10000F1F3B3130381F0F000030303F3F303063
:100F2000000000003C3E37333130303000003030BC
:100F3000303030391F0F00000303030303033F3F2A
:100F400000000C1C383030381F0F00000F1F3830E5
:100F500030391F0F000000003F3F0000000000007C
:100F60000F1F393030391F0F0000000030381C0EC1
:100F700007030000060F0F06000000000000333BCF
:100F80001F0F000000000000000103070E1C383096
:100F90000303030303030303030330381C0E070397
:100FA00001000000000000003333010000000000D9
:100FB0003C7EE7C3C3E77E3CF0F8DCCEC7C7CEDC9F
:100FC000F8F0FFFFC3C3C3C3C3E7FE3CFCFE070347
:100FD000030303070E0CFFFF030303070E1CF8F0C7
:100FE000FFFFC3C3C3C3C3C30303FFFFC3C3C3C361
:100FF000C3C30303FCFE0703C3C3C3C7CECCFFFFB9
:10100000C0C0C0C0C0C0FFFF00000303FFFF030358
:101010000000000000000303FFFF0303FFFFC0E028
:10102000F0381C0E0703FFFF000000000000000066
:10103000FFFF0E1CF8F81C0EFFFFFFFF3870E0C02A
:101040008000FFFFFCFE070303030307FEFC000014
:1010500000000000000000003F3F00000000000012
:101060003F3F3F3F3030303030391F0F0F1F383097
:10107000303030381C0C3F3F303030381C0E070306
:101080003F3F30303030303030303F3F00000000E4
:10109000000000000F1F3830303030303F3F3F3FFE
:1010A0000000000000003F3F000030303F3F303084
:1010B00000000C1C383030381F0F00003F3F00018B
:1010C00003070E1C38303F3F303030303030303086
:1010D0003F3F0000000000003F3F3F3F0000000195
:1010E00003033F3F0F1F3830303030381F0FFFFFF2
:1010F000C3C3C3C3C3E77E3CFCFE0703030303076C
:10110000FEFCFFFFC3C3C3C3C3E77E3C3C7EE7C313
:10111000C3C3C3C78E0C03030303FFFF030303030F
:10112000FFFF000000000000FFFFFFFF00000000C5
:101130000000FFFFFFFF000000000000FFFF0F1F87
:1011400038F0E0E0F0381F0F3F7FE0C08080C0E063
:101150007F3F03030383C3E3733B1F0F0000FFFFC5
:101160000303030300000C1C3870E0C08000000083
:10117000000003030303FFFF000030381C0E0707C5
:101180000E1C3830000000000000000000003F3F4F
:1011900000000000000000000F1F383033371E1C15
:1011A0003F333F3F000003070E1C38300C1C383023
:1011B000303030391F0F000000003F3F00000000BA
:1011C0000F1F3830303030381F0F03070E1C3838EF
:1011D0001C0E07030F1F38381F1F38381F0F3C3EE7
:1011E0000703010103073E3C000000013F3F0100EF
:1011F00000003C3E373331303030303000003F3F6C
:1012000030303030000000000000000103070E0CF9
:101210000000303030303F3F000000000000000090
:1012200000000000303030303030303030300000DE
:1012300003070E1C383000000000303030303070B2
:10124000E0C0FFFFC0E070303070E0C0C0E0703040
:10125000303030300000C0E070303070E0C0FFFF50
:10126000C0E0703030303070E0C0C0C0FCFEC7C39A
:1012700003070E0CF0F89C0C0C0C0C0CFCFCFFFF94
:10128000C0E070303070E0C000003030F3F3000098
:101290000000000000003030F3F30000FFFF00808A
:1012A000C0E07030000000000303FFFF00000000FA
:1012B000F0F03070E0E07070E0C0F0F0C0E070304E
:1012C0003070E0C0C0E0703030303070E0C00000FE
:1012D00000000000000000000C1E3F3333333333A6
:1012E0003F3F3F3F3030303030381F0F0F1F383016
:1012F000303030381C0C0F1F3830303030303F3F2A
:101300000F1F3B3333333333030300003F3F0000F1
:1013100000000000000133333333333B1F0F3F3FE6
:101320000000000000003F3F000030303F3F303001
:1013300000000C1C383030381F0F00003F3F0307FF
:101340000F1C38300000000030303F3F30300000CC
:101350003F3F0000030300003F3F3F3F000000000D
:1013600000003F3F0F1F3830303030381F0FF0F093
:101370003030303030F0E0C0C0E0F0303030E0C02D
:10138000F0F0F0F0C0E070303070E0C0C0E0F0305D
:101390003030303000003030FFFF303000000000CF
:1013A000F0F0000000000000F0F0F0F0000000009D
:1013B0000000F0F0F0F0000000000000F0F03070ED
:1013C000E0C08080C0E07030F0F0800000000000DD
:1013D000F0F03030303030B0F0F070300000C0E06D
:1013E0003C3E0703000000000000FFFF000000007B
:1013F000000003073E3CE0C00000C0C0C0C00C1CA1
:10140000F8F0E0C0C0E0F0F81C0CC0C0C0C03F3F26
:1014100003030303030301000001030303030303A6
:101420003F3F3F3F000000000000000030313333F9
:101430003333333F1E0C00000F1F383030381C0C84
:101440000F1F383030381C0C3F3F03070E1C383854
:101450001C0E07030F1F38381C1C38381F0F30387C
:101460001C0F07070F1C3830000133333333333B75
:101470001F0F30383C3E3733313030300000000130
:101480000F1F38300000000000003F3F0000000048
:10149000000030381F0F01000000000000000C0E9B
:1014A00007030100000103070E0C0000000040804C
:1014B00008042010020101020304010204030103D5
:1014C00002040103040201040203010403020201F5
:1014D00003040201040302030104020304010204E1
:1014E00001030204030103010204030104020302D5
:1014F00001040302040103040102030402010401C4
:1015000002030401030204020103040203010403B1
:1015100001020403020101020304010302040402A4
:101520000301040302014D41564C4E4B0020202084
:1015300054546D00457870457846466E654D656437
:1015400043727300560048444700414C5400434FD7
:101550004F520048444F50005341540020204E4FFA
:1015600032443344004750530047505300424154E3
:1015700054004D4F444500494E464F53005354418B
:101580004220204143524F202053494D504C454169
:101590004C544920205741592050544755494445FF
:1015A000444C4F4954455252544C202020434952F8
:1015B000434C45004D41564C494E4B004E41565F01
:1015C0004C4154004E41565F4C4F4E00484C445FD6
:1015D0004C415400484C445F4C4F4E0058545241CB
:1015E000434B005448525F484F4C44005354425FB1
:1015F000524C4C00524154455F524C4C00535442A3
:101600005F50495400524154455F5049540053546F
:10161000425F59415700524154455F5941570000BC
:1016200011241FBECFEFD0E1DEBFCDBF11E0A0E09F
:10163000B1E0E2E3F2EE02C005900D92A632B107EE
:10164000D9F710E1A6E2B1E001C01D92A638B107BA
:10165000E1F70E9491140C9417710C9400009AE029
:10166000899F9001112425563E4FC901089595E0A8
:10167000899F9001112425523D4FC901089584E1AD
:1016800092E008958C3038F4E82FF0E0EE0FFF1F61
:10169000E652FB4F2CC0803188F4E82FF0E0EE0FCB
:1016A000FF1FDF01A05CBE4FED59FB4F0190F081A1
:1016B000E02D8D919C91E81BF90B0BC0843160F4F7
:1016C000E82FF0E0EE0FFF1FED59FB4F0190F08186
:1016D000E02DEE0FFF1F0EC0843218F0E0E0F0E0C6
:1016E00009C0E82FF0E0EE0FFF1FE054FB4F019020
:1016F000F081E02DCF0108950895E0916204F0E0BB
:10170000EE0FFF1FE65AFB4F808191810895FC0187
:10171000A0916204B0E0AA0FBB1FA85ABB4F8D93E3
:101720009C938FEB099580916404809363040895E2
:1017300080916304882341F480917404882321F408
:1017400080917604882311F084E105C080918F0494
:10175000882321F0815080938F0408C0809163001A
:1017600090E0969587958170809390048091900485
:1017700008951092780410927A04109279041092CD
:1017800077040895EDECF0E0E80FF11DE491F0E04E
:10179000EE0FFF1FEC56FB4F20813181C9010895E8
:1017A000EF92FF920F931F93CF93DF9380916A0183
:1017B00090E081709070C2E0D0E0C81BD90B10910E
:1017C0006C011170E4EAF4E0A4E9B4E040E050E018
:1017D000E12C78E0F72E042F842F806487B9369AA5
:1017E000349BFECF349A208931898D919C91119739
:1017F00096958795820F931F8E7F11969C938E935B
:1018000060817181260F371F36952795318B208B8C
:1018100084B195B1C417D50741F4043030F41123D5
:1018200021F09701281B390BC901860F971F969548
:101830008795819391934F5F5F4F12964830510582
:1018400051F6DF91CF911F910F91FF90EF90089586
:101850008F929F92AF92BF92CF92DF92EF92FF92C0
:101860000F931F93DF93CF93CDB7DEB760970FB67B
:10187000F894DEBF0FBECDBFFE01319680E1DF01DF
:101880001D928A95E9F780916A0190E081709070CD
:10189000A2E0B0E0A81BB90B70916C0171704F0110
:1018A00024E9E22E24E0F22E40E050E08D01000F0A
:1018B000111F0E0D1F1DA12C88E0B82E2EC0D7B809
:1018C000369A349BFECF349A84B195B1280F391FD4
:1018D0006F5F6430A1F7F40131832083C9019695CD
:1018E0008795F70191838083A417B50759F4F3E036
:1018F000FC1540F0772331F09501281B390BF801D6
:10190000318320834F5F5F4F22E030E0820E931ED1
:10191000E20EF31E4830510549F0C42EF401208137
:10192000318160E0E0E4DE2ED42AC9CF60960FB6A4
:10193000F894DEBF0FBECDBFCF91DF911F910F9105
:10194000FF90EF90DF90CF90BF90AF909F908F90DF
:1019500008950F931F93CF93DF9380916A0190E0D6
:101960008170907042E050E0481B590B60916C010F
:101970006170A4E9B4E020E030E0FA01EE0FFF1F4F
:10198000EA0FFB1FC0E0D8E0722F822F806487B976
:10199000369A349BFECF349A84B195B1880F991F43
:1019A00011969C938E934217530749F4743038F480
:1019B000662329F08E01081B190B118300832F5F0A
:1019C0003F4F129628303105F9F6DF91CF911F91E4
:1019D0000F9108958EE587B9369A349BFECF349ADD
:1019E000369A349BFECF349A84B195B104964091D7
:1019F0008C0450918D049A0163E0220F331F6A9585
:101A0000E1F7241B350B820F931F23E096958795F2
:101A10002A95E1F790938D0480938C0408951F928A
:101A20000F920FB60F9211248F9380918E048F5FC7
:101A300080938E048F910F900FBE0F901F9018957A
:101A400078941F920F920FB60F9211242F933F9309
:101A50004F935F936F937F938F939F93AF93BF93B6
:101A6000EF93FF932091800030918100F894809152
:101A70007D008F7D80937D0078948091910490917A
:101A80009204A901481B590B56954795309392042F
:101A90002093910420918B04822F8150883048F547
:101AA000CA01815293408757954000F5E22FF0E03C
:101AB000EE0FFF1FE758FB4F4C5D554080917001C2
:101AC000992787FD90950A96BC01469FC001479FC4
:101AD000900D569F900D11246AE070E00E94857071
:101AE000718360832F5F20938B040BC010928B0453
:101AF00008C0415A5F404F5D5E4218F481E0809318
:101B00008B04F89480917D00806280937D00FF912A
:101B1000EF91BF91AF919F918F917F916F915F9165
:101B20004F913F912F910F900FBE0F901F901895DE
:101B3000E7E8F0E101C0319680818535E1F39F014E
:101B400026583041C90108951F920F920FB60F9287
:101B500011242F933F934F935F936F937F938F93B2
:101B60009F93AF93BF93EF93FF9390E08CB58A3030
:101B700008F04BC09F5F923309F447C0F7CFC09A7B
:101B80001092D40404C0C09881E08093D404A09142
:101B90000E01B0910F01FD01819191919BBD8ABD14
:101BA000F0930F01E0930E0112968D919C91139783
:101BB000892BA9F48FED96E090930F0180930E018D
:101BC0008091970181708093D40487B78F7E87BFFF
:101BD00078940E94BA1BF89487B7806187BF809180
:101BE0006904816080936904FF91EF91BF91AF9187
:101BF0009F918F917F916F915F914F913F912F9125
:101C00000F900FBE0F901F9018958091D4048823D9
:101C100009F0B5CFB8CF78941F920F920FB60F92FC
:101C200011242F933F934F935F936F937F938F93E1
:101C30009F93AF93BF93EF93FF93F89487B78D7FF4
:101C400087BF789481B7845681BF909163049923AC
:101C500069F080917504882329F49093750481E0DC
:101C60008093760491509093630421C03091740462
:101C70003323B9F020917504222399F090E08091EC
:101C80007604882309F491E090937604992309F46B
:101C900028E020936304992351F031503093740469
:101CA00006C010927504109276041092560480912A
:101CB0007604882381F080915604882311F490E003
:101CC00004C09091930481E0982790939304992302
:101CD00011F41B9A01C01B980E94B16180916904A4
:101CE000826080936904F89487B7826087BFFF9110
:101CF000EF91BF91AF919F918F917F916F915F9184
:101D00004F913F912F910F900FBE0F901F901895FC
:101D1000AF92BF92CF92DF92EF92FF920F931F93F9
:101D2000CF93DF93D82EA42E85E0841708F4EFC05C
:101D3000DD2009F4EFC096E1D91609F4EAC08AEE75
:101D4000D81609F4E4C02D2D332727FD3095C9019D
:101D500037FF04C088279927821B930B8A3084F4AD
:101D60001D144CF08DE090E0821B930B0E940861E3
:101D700061E06827CFC0C9010D960E940861A3C029
:101D8000E82EFF24E7FCF09486EF9FEFE80EF91EA3
:101D9000D701AA0FBB1FAE0DBF1DAF57BE4FA85A2C
:101DA000BD4F8C91A855B240882309F4B0C0FD0105
:101DB000EA5AFD4FC080ED01C95ADD4FB880853029
:101DC00008F4B4C0883028F400E010E0E0E0F0E06F
:101DD0000AC08C2D81500E94420B8C018881815059
:101DE0000E94420BFC01E701CC0FDD1FCE0DDF1D71
:101DF000C752DC4F2881283088F4253008F049C0CC
:101E0000223031F1233020F4213009F080C01CC091
:101E1000233011F1243009F07AC029C02A3009F4A6
:101E200062C02B3038F4283009F453C0293009F04F
:101E30006EC054C02C3009F460C02C3008F458C077
:101E40002D3009F064C05EC01D140CF44CC05AC0A3
:101E50001D140CF44DC051C020E0C80117FF03C091
:101E6000909581959F4FE817F90764F40AC020E028
:101E7000C80117FF03C0909581959F4F8E179F074C
:101E80000CF421E01D1414F4622F44C061E06227B9
:101E900041C01A2D1F5F8C2D60E0412F0E94880EDB
:101EA000082F8B2D60E0412F0E94880E988195307D
:101EB00031F4002361F1682F882361F12AC0963044
:101EC00021F4002331F5682F25C060E0081709F5DB
:101ED00021C060E00E171F07E9F41BC060E00E1779
:101EE0001F07B9F417C060E0E017F1079CF411C0B8
:101EF00060E00E171F0774F40CC060E00E171F0798
:101F00004CF007C060E0E017F10724F002C060E089
:101F100001C061E0862FDF91CF911F910F91FF905B
:101F2000EF90DF90CF90BF90AF9008958C2D8150AF
:101F30000E94420B8C01988189E29802F0011124E1
:101F4000F595E795F595E79597FD915C96FB990FCB
:101F5000990B90F9892F992787FD9095E81BF90B2C
:101F600042CF1F93182FA82FAF70A6502091930136
:101F700022306CF0332727FD30952150304081E02E
:101F800090E002C0880F991F2A95E2F7282FA83009
:101F900008F07FC08A2F8595682F70E0FB01EE0F57
:101FA000FF1FE050FF4F0190F081E02DB081222310
:101FB00011F0422F10C04B2F552747FD509557FF6A
:101FC00003C0509541955F4F242F47FD2D5F422F51
:101FD000459545954F5F20916A0130E02170307042
:101FE00082E090E0821B930B8617970711F050E078
:101FF0000CC0809192018F7011F450E002C044E057
:1020000051E080916C0180FD41958B2F992787FDD0
:102010009095242F332727FD3095A0FF03C0280F6C
:10202000391F04C0BC01621B730B9B0121153105D4
:1020300021F08B2F832787FF09C0552339F4BB2359
:1020400029F01082812F0E948F611CC0C901845821
:102050009F4F893F910560F4208386E00E94C75519
:1020600016FF03C081E080935604809165040EC082
:102070001216130614F083E801C08DE7808386E012
:102080000E94C755109256048091670480936304A0
:1020900010E0812F1F910895EF92FF920F931F93ED
:1020A000F89420918F0E3091900E789440E08091BA
:1020B000D8049091D9042817390709F041E04093DA
:1020C0007104F89480918F0E9091900E7894909373
:1020D000D9048093D8048EE095E060E00E94C71E8A
:1020E00080917104882309F426C18091770480FFD0
:1020F00014C090917804892F8F5F80937804843680
:1021000060F09356909378048091790490917A04CA
:10211000019690937A048093790480E00E94DA55C6
:102120000E946A600E9478600E94B10FE82E809140
:10213000720490917304009729F0019790937304AF
:1021400080937204EE2089F080916E0190E024EF7C
:1021500031E0AC01429FC001439F900D529F900D12
:10216000112490937304809372048091570160E06E
:1021700040E00E94880E882339F480917204909187
:102180007304892B09F4D5C0C79A2091E6043091D5
:10219000E70480916B0490916C04821B930B60E2C6
:1021A00070E00E94857070936E0460936D046115F9
:1021B000710591F08091D6049091D704821B930B06
:1021C00062E070E00E94857070936E0460936D040D
:1021D00030936C0420936B043093D7042093D6047F
:1021E000E0916204F0E0EE0FFF1FE85AFB4F019010
:1021F000F081E02D8E2D09950E9437600E94980B8A
:10220000882321F0809165008F7E03C08091650056
:10221000806180936500F89480918F0E9091900E6C
:1022200078948F7190708230910521F0039709F0B6
:1022300082C068C0E4EDF0E0E491F0E0EE0FFF1F33
:10224000EC56FB4F60817181882777FD8095982F30
:102250000E94336F2BE734E146ED50E40E94E36FB8
:102260007B018C01609156012AE06202B0011124C9
:1022700080E090E00E94316F9B01AC01C801B70182
:102280000E94306E0E94006FDC01CB0164E670E0BA
:102290000E94857080916F0490917004680F791F7F
:1022A000769567957093700460936F048091D50460
:1022B000805E8093D504882351F48091550190E08D
:1022C00068177907C0F562337105A8F10CC0803832
:1022D00091F58091BC0E882371F19091BE0E809192
:1022E0007601981740F5809168048093630480918B
:1022F0006C0183FF20C082E390E09093730480938D
:10230000720419C0809169018695869586958770BB
:1023100090E0BC01660F771F660F771F680F791F6B
:102320006B527F4F84E694E045E050E00E94D57008
:1023300002C0C7982ACF1F910F91FF90EF90089588
:1023400090918E0482B780918E049817C9F7E0911E
:102350006D01F0E0EE0FFF1FE85FFE4F0190F0818E
:10236000E02D09950E94EA0C0E944C1080916904AE
:10237000833019F4A8951092690490918E0482B765
:1023800080918E049817C9F708958F929F92AF920B
:10239000BF92CF92DF92EF92FF920F931F93CF9352
:1023A000DF93182F7B014A015901C02E84FD04C020
:1023B000E4E0DE2E05E005C01F70106675E0D72E44
:1023C00004E08D2D8066181761F08D2D806418173C
:1023D00041F090910905992361F0133611F01334FF
:1023E00041F4E70121968091640480936304802F77
:1023F00017C0802F8066181761F0802F806418172F
:1024000041F0992309F471C0123619F0123409F021
:102410006CC0E701219780916404809363048D2D43
:1024200090E00E940861882351F0CC27DD27CE1967
:10243000DF09802F0E948F618D2D0E948F61811492
:10244000910491F481E0A816B10471F4103661F49E
:1024500010920905C0E0D0E0E114F10411F4C1E0EC
:10246000D0E080E60E948F6180916D0490916E04AF
:10247000C81BD90BAC16BD064CF4812F0E948F618E
:102480008091670480936304E5010BC0C815D905EA
:1024900044F4812F0E948F618091670480936304CC
:1024A000E401CE15DF0589F0209739F4812F0E94D1
:1024B000806180916404809363048C2D83700E94FA
:1024C000C75581E080936A0402C010926A04CE016D
:1024D000DF91CF911F910F91FF90EF90DF90CF9000
:1024E000BF90AF909F908F900895E701A8CF0F9372
:1024F000772767FD7095552747FD5095332727FDB2
:1025000030950E94C5110F9108950F93772767FDAD
:102510007095552747FD5095332727FD309501E0ED
:102520000E94C5110F9108950F93772767FD70954D
:10253000552747FD5095332727FD309502E00E942F
:10254000C5110F9108950F931F938C010E946A602B
:1025500082E260E049E251E024E00E94DB5D80E03D
:1025600068E1A8010E94155E0E94376080915401C5
:102570000E942D601F910F91089586B380958E77EC
:10258000E1F70E9475600895FF920F931F938C01ED
:10259000F62E0E946A6082E260E043E251E024E0AD
:1025A0000E94DB5D80E068E1A8010E94155E8CE17D
:1025B00068E345E151E00E94155E0E943760FF200C
:1025C00011F08FE102C0809154010E942D60809132
:1025D0006804809363040E94BD1286B380958E7751
:1025E000C9F480916904833019F4A89510926904A4
:1025F0008091570160E040E00E94880E882331F40A
:1026000080916E01882311F4FF2011F0C79AE5CF65
:10261000C798E3CF1F910F91FF9008959C0180917F
:102620006204E82FEF5FE0936204E53040F08093AE
:1026300062048EEE90E060E00E94C41208958091E2
:10264000640480936304F0E0EE0FFF1FE85AFB4F31
:10265000318320838FEBF90109950895E09162049D
:10266000EE2319F4882329F416C0882311F4E150CD
:1026700001C0E0E0E093620480916404809363040D
:10268000F0E0EE0FFF1FE85AFB4F0190F081E02DC4
:102690008EEB0995089581E091E060E00E94C412FC
:1026A000089580915704882351F08CE591E060E013
:1026B0000E94C412809157048E7F8093570408951E
:1026C0008091690187FD07C0887329F487E891E04C
:1026D00060E00E94C41208958091690182FD0AC0E1
:1026E0000E940A59883C910528F484ED91E060E04D
:1026F0000E94C41208951F93CF93DF9386B38095F1
:102700008E7721E030E0682F70E0422FCB01022E5F
:1027100002C0959587950A94E2F780FD06C04F5F49
:102720002F5F3F4F2830310581F7142F115016309D
:10273000A8F5812F0E948056882381F110935301C0
:10274000812F0E94CE5781E00E94C7550E946A6087
:1027500086E160E041E351E024E00E94DB5DC1E8F6
:10276000D1E01AE0812F68E1499124E00E94EE5CFB
:10277000155F1837B9F70E943760809154010E94A5
:102780002D6080915701882321F480916E01882368
:1027900011F0C79A01C0C7980E94BD12DF91CF9176
:1027A0001F910895EF92FF920F931F938C017B016D
:1027B0000E946A6082E260E04EEC51E024E00E94F8
:1027C000DB5D80E060E2A8010E94155E80E068E2C7
:1027D000A7010E94155E80E060E348EB51E00E9493
:1027E000155E0E943760809154010E942D600E9406
:1027F000BD121F910F91FF90EF9008951F9380914C
:10280000690181FD2EC08BE491E069E371E00E94D3
:10281000D2131EE00BC0113141F0812F8D5060E0CA
:1028200040E00E94880E882329F41F5F163198F338
:102830001631B9F086B380958E7799F406C08091F1
:102840006E01882359F0C79A0AC08091570160E051
:1028500040E00E94880E8823B1F7F1CFC7981EE0B0
:10286000DCCF1F9108950F931F93CF93DF93809137
:10287000690180FD51C080916A0190E08170907083
:10288000C2E0D0E0C81BD90BFE01EE0FFF1FEA5DCE
:10289000FE4F01811281005F1F4F87859089081BC1
:1028A000190B0E94A90CEC2FF0E0E353FF4F849129
:1028B000C82FD0E0CC0FDD1FCC56DB4F888199812B
:1028C000081719074CF586B380958E7729F512C045
:1028D0000E94A90C8881998108171907ECF486B326
:1028E00080958E77C9F40DC080916E01882391F098
:1028F000C79AEECF86EA91E067E971E00E94D213B1
:10290000E7CF8091570160E040E00E94880E882365
:1029100079F7EACFC798DCCFDF91CF911F910F9164
:1029200008951F939FEF9ABB1BBA81E887BB8EE780
:1029300088BB8EE384BB81EC85BB11BA92BB88E077
:1029400082B987EF83B9109261001092620080E132
:1029500080936400909365000E94F25F80E487B9E1
:1029600085E886B987E083BF8CE981BF87B783603C
:1029700087BF1FBC8AE08EBD10928B0082E88093D7
:102980008A0080917D00806280937D00EDB7FEB764
:10299000329785E502C08083319740E1E638F4073D
:1029A00009F0C8F7789482EB9AE2909359048093E7
:1029B000580489E10E942D600E9433581091530100
:1029C0000E947B130E946C130E94A90C0E94331476
:1029D0000E94FE130E9460130E9451130E94BD12B8
:1029E00080EF90E090938D0480938C040E94BA1B3A
:1029F0002DE088E190E00FB6F894A89581BD0FBE58
:102A000021BD8EE095E060E00E94C71E89E691E45A
:102A10000E940E1381E00E942E13809154010E94A7
:102A20002D6080916E0190E024EF31E0AC01429F77
:102A3000C001439F900D529F900D112490937304F9
:102A40008093720480915301181729F081E00E944D
:102A5000C7550E9470560E94276E80ED97E09BBD7F
:102A60008ABD80E186BF87B7806187BF0E94A011C1
:102A7000FDCFEF92FF920F931F93082FF62E142F86
:102A8000E22E442329F0463139F04A3E81F408C051
:102A90008A5F4CE552E007C08A5F48E552E003C018
:102AA0008A5F44E552E02E2D0E94DB5D1CC0441F6E
:102AB0004427441F405E0E94EE5C802F8A5F212FD6
:102AC000332727FD309537FF03C0309521953F4FC1
:102AD00043E02402A00111244F5E5D4F6F2D23E0DF
:102AE0000E2D0E94A95D1F910F91FF90EF90089508
:102AF000DF92EF92FF920F931F93F82EE62ED42EC3
:102B000010918C01812F992787FD909597FF03C025
:102B1000909581959F4F80319CF443E08402A00101
:102B200011244D515E4F8F2D6E2D23E00D2D0E94EF
:102B3000A95D1F3F4CF58F2D86506E2D41E221C0BF
:102B4000853274F411161CF4412F4F5002C0412FEE
:102B5000415F8F2D86506E2D2D2D0E94391514C08A
:102B600011161CF4412F445202C0412F4C5D8F2D91
:102B700086506E2D2D2D0E9439158F2D8E5E6E2D57
:102B80004DE62D2D0E94EE5C1F910F91FF90EF906E
:102B9000DF9008950F93022F50E0440F551F440F0C
:102BA000551F405A5D4F24E00E94A95D0F91089582
:102BB0000F93782F342F022F442319F44EE253E061
:102BC00023C04530B8F480916A0190E0880F991FC6
:102BD000880F991F41E050E0481B590B431B5109D6
:102BE000440F551F440F551F509541955F4F445753
:102BF0005F4F09C0473258F450E0440F551F440F4F
:102C0000551F4F565D4F872F24E00E94A95D0F91FD
:102C100008950F931F93062F122F206250E00E94F9
:102C2000D25F17FD07C08091640E602F46E7212F09
:102C30000E94EE5C1F910F910895242F40916F0424
:102C40000E9409160895BF92CF92DF92EF92FF92F1
:102C50000F931F93CF93DF93D82EC62EEA01122F26
:102C6000B02E57FF10C022FD02C08FE001C08CE1E2
:102C70009D2D981B892F6C2D4DE2212F0E94EE5C1B
:102C8000D095C195DF4F2B2D21238D2D6C2D4AE33F
:102C90000E94EE5C812F90E0A4E0EA2EF12CE82265
:102CA000F92212FD02C020E001C022E0CE016CE357
:102CB00070E00E948570AB011061822F8D0D6C2D2C
:102CC000212F02E00E94E75EEF2811F421E101C00C
:102CD0002CE1CE016CE370E00E948570AC0180E1D4
:102CE000B82A822F8D0D6C2D2B2D02E00E94E75EFD
:102CF000DF91CF911F910F91FF90EF90DF90CF90D8
:102D0000BF90089599E28902900111243595279585
:102D10003595279587FD815C86FB880F880B80F9A8
:102D2000992787FD9095281B390BC9010895EBE978
:102D3000F1E090E080818150803108F49F5F3A9605
:102D400082E0EB3DF807B1F7892F08956F927F92EB
:102D50008F929F92AF92BF92CF92DF92EF92FF92AB
:102D60000F931F933B017C0100E010E0882499241D
:102D700064E670E080E090E06619770988099909B7
:102D8000A80197010E9446705B016C0182E390E00C
:102D9000A0E0B0E0A80EB91ECA1EDB1EC801B70134
:102DA0000E9446700E944670BC0188279927A401A2
:102DB00093010E94467024E09695879577956795D4
:102DC0002A95D1F7A60EB71EC81ED91EC601B50199
:102DD00024E630E040E050E00E949870C9011F9165
:102DE0000F91FF90EF90DF90CF90BF90AF909F90AA
:102DF0008F907F906F900895FF920F931F939C0187
:102E0000AB016115710531F1FF2497FF05C0FF2467
:102E1000F394309521953F4F57FF10C000E014E028
:102E200066277727641B750BC801821B930B0E94D2
:102E3000A6169801281B390BC90104C0C901BA01A3
:102E40000E94A616FF2011F49C0104C022273327FC
:102E5000281B390BC9011F910F91FF900895282F4E
:102E6000EEEDF7E080E09491921731F031969923DE
:102E700011F08F5FF8CF80E00895823410F080E287
:102E80000895E82FF0E0E252F84F849108951092EF
:102E9000610610925A061092590610925E06109220
:102EA0005D0610925C0610925B061092600610920E
:102EB0005F060895AF92BF92CF92DF92EF92FF929A
:102EC0000F931F93CF93DF935B016C0100E010E839
:102ED000C0E0D0E8EE24FF249E0140E050E0CA01AB
:102EE000B9010E944670A616B706C806D90610F4A6
:102EF000C027D127169507950894E11CF11C80E1A5
:102F0000E816F10461F4CE01DF91CF911F910F918A
:102F1000FF90EF90DF90CF90BF90AF900895C02BBF
:102F2000D12BDACF9C0140E0683008F041E070E03E
:102F3000442371F0CB010897FC0163E0EE0FFF1F03
:102F40006A95E1F7E80FF91FDF01A157BC4F0AC0EE
:102F5000FB01EE0FFF1FEE0FFF1FE60FF71FDF0154
:102F6000A959BC4FFD01808120503C4F37FD0EC058
:102F700068E02030360784F0442319F484E090E0C0
:102F800002C088E090E0A80FB91F8C91992787FDB7
:102F90009095582F442733C0442331F0432FB90173
:102FA0007070660F771F04C0432F4695B90171708A
:102FB000842F90E0FD01E80FF91F8181992787FD9B
:102FC00090959B0135952795829FA001839F500D79
:102FD000929F500D11242081332727FD309580E0EA
:102FE00092E0861B970B95958795BC01269FC001A3
:102FF000279F900D369F900D1124480F591FCA012D
:1030000069E170E00E948570CB0108956F927F9214
:103010008F929F92BF92CF92DF92EF92FF920F9387
:103020001F93CF93DF938091970181FD04C0C12C42
:1030300094E0D92E03C0C12C85E0D82EB090910128
:10304000BB0C88E0B80E9091940184E69802A00130
:103050001124485A5D4F66247724641A750A8091BA
:103060009A01992787FD909528EE33E0829FB00161
:10307000839F700D929F700D112468537045641BDF
:10308000750BCEE0D5E0EFEDF6E0AB2DB0E0AA0F8A
:10309000BB1FAC0FBD1F882499248C189D0808E520
:1030A00012E0041B150B1BC02881398176012C15F9
:1030B0003D050CF47901C701E814F9040CF4C401CE
:1030C000805A964F9301281B390B620F731F51834F
:1030D0004083800F911F9383828322963496CA1770
:1030E000DB0711F7EB2DEE0FAE2FB0E0AA0FBB1FE1
:1030F000A152B94F4D935C93EF5FAE2FB0E0AA0F92
:10310000BB1FA152B94F6D937C93EF5FF0E0EE0FC0
:10311000FF1FE152F94F11821082DF91CF911F9171
:103120000F91FF90EF90DF90CF90BF909F908F9086
:103130007F906F900895EF92FF920F931F93DF930C
:10314000CF93CDB7DEB760970FB6F894DEBF0FBE52
:10315000CDBF8091970181FD03C060E074E002C0A3
:1031600060E075E080EF8093DD088091FB03809341
:10317000DE081092E0081092DF0840E050E00027DF
:103180001127061B170B7E010894E11CF11CFA01A4
:10319000E25FFA4F0190F081E02D9B01E617F707FF
:1031A0000CF49F01F701E40FF51FC801A02F892F30
:1031B000021713071CF4C901A22F892FA083818352
:1031C0004E5F5F4F4E30510511F789818093E108C2
:1031D0008A819B81292F2295207F8F70822B80935B
:1031E000E2088C818295807F92959F70982B9093B6
:1031F000E3088D818093E4088E819F81292F229599
:10320000207F8F70822B8093E50888858295807F50
:1032100092959F70982B9093E60889858093E70894
:103220008A859B85292F2295207F8F70822B809302
:10323000E8088C858295807F92959F70982B90935B
:10324000E9088D858093EA088E859F85292F229530
:10325000207F8F70822B8093EB0888898295807FF6
:1032600092959F70982B9093EC08ADEDB8E070E0CC
:1032700060E040E050E004E110E03C91603111F486
:10328000372F01C0730FFA01EE0FFF1FE152F94F04
:1032900020E01183008330FD03C08AE090E002C08B
:1032A0008EE190E0938382832F5F3496283011F073
:1032B000330FEFCF405F5F4F6F5F613111F01196B9
:1032C000DCCF60960FB6F894DEBF0FBECDBFCF91B6
:1032D000DF911F910F91FF90EF900895A091EE085C
:1032E000B091EF08FD018193919313967C936E93B7
:1032F00012973296F093EF08E093EE080895882332
:1033000029F020E639E080E699E004C020EB34E0C3
:1033100080EB94E0A091EE08B091EF08FD0181935D
:10332000919313963C932E9312973296F093EF0855
:10333000E093EE0808951F93182F82700E947F1962
:10334000812F81700E947F191F910895CF92DF9283
:10335000FF920F931F93DF93CF9300D0CDB7DEB7CB
:1033600080919001823019F0833019F404C010E08C
:1033700003C011E001C012E020910E0530910F054D
:1033800020503C4F220F331F809110059091110562
:1033900080509C4F880F991F892F232F37FD20E0E5
:1033A00087FD80E0022F20310CF00FE0F82E2FE097
:1033B000281714F46FE0F62E2F2D332727FD3095B4
:1033C000802F992787FD909509968217930714F40B
:1033D0000F2D0950C02EDD24C7FCD094275F3F4F2E
:1033E0002C153D051CF457EFF52EF00E80E797E104
:1033F0009093E0068093DF0680EB94E09093E206E2
:103400008093E10683EE96E09093EF088093EE08B8
:1034100080E00E949B19A091EE08B091EF0880E631
:1034200099E0FD018193919320EB34E013963C9356
:103430002E931297DF0112969383828313963C9307
:103440002E9312971496B093EF08A093EE08812F55
:103450000E949B191195C60195958795959587951D
:103460008A830E949B193A81131B802F0E949B190B
:10347000101B8F2D992787FD90959595879595958C
:10348000879589830E949B198981181B8F2D0E9423
:103490009B19812F8F190E949B1980E00E947F1930
:1034A000E091EE08F091EF0880E69AEE9293829315
:1034B000329611921192F093EF08E093EE080F907C
:1034C0000F90CF91DF911F910F91FF90DF90CF90E0
:1034D0000895A091EE08B091EF08882341F0FD0116
:1034E00080E293E08193919380E496E007C0FD0130
:1034F00080E496E08193919380E293E013969C930D
:103500008E9312973296F093EF08E093EE080895A9
:103510000F931F93082F10E0802F81700E94691A6B
:103520001F5F06951830C1F71F910F910895482F1E
:1035300018161CF0109208050895282F332727FD30
:10354000309580910805281B3109862F90E082175D
:10355000930724F4461B40930805089506972817FF
:10356000390724F44A5F461B4093080508950F93DA
:10357000982F83E0489FA00111244D52554F00E041
:10358000211101E0892F23E00E94A95D0F91089588
:103590000F93982F83E0489FA00111244652554F66
:1035A00000E0211101E0892F23E00E94A95D0F9125
:1035B0000895FF920F931F93F82E162F042F80E883
:1035C00060E0412F50E0202F0E94D25F1A3010F4AB
:1035D00085E701C08FE660E04FE2202F0E94EE5C9D
:1035E0001A3010F485E701C08FE64F2D50E04F5F91
:1035F0005F4F60E0202F0E94D25F1F910F91FF90DC
:1036000008950F931F938FED96E09093EF088093AA
:10361000EE088091F40891E089278093F4088823CC
:1036200009F454C080910E0590910F05885F9B4F5F
:1036300044E0969587954A95E1F78038910510F01A
:103640008FE790E0182F209110053091110537FD7C
:103650000FC0C901409635E0969587953A95E1F7F8
:103660008034910510F08FE390E0082F00640FC0C4
:1036700080E190E0821B930B25E0969587952A9533
:10368000E1F78034910510F08FE390E0082F812F4F
:103690000E94881A802F0E94881A0127802F90E0AC
:1036A0009C0104E0359527950A95E1F714E0880F11
:1036B000991F1A95E1F7822B0E94881AA091EE08B3
:1036C000B091EF08FD0180E197E230C080911205D2
:1036D0009091130580509C4FB4E096958795BA95CC
:1036E000E1F78038910510F08FE790E0082F00682F
:1036F000802F0E94881A8EE80E94881A8EE8082778
:1037000010E0C801A4E095958795AA95E1F7F4E04B
:10371000000F111FFA95E1F7802B0E94881AA091E3
:10372000EE08B091EF08FD0180EB96E38193919351
:1037300080EA9FE013969C938E9312973296F093B3
:10374000EF08E093EE08E091EE08F091EF08119297
:103750001192F093EF08E093EE08EF5DF640EC383D
:10376000F1052CF080E094E060E00E94C4121F910B
:103770000F91089580919001853038F4823070F473
:10378000882331F0813079F406C0853061F409C0B6
:103790000E94061808950E949B1808950E94A61979
:1037A00008950E94011B0895FF920F931F93CF93DA
:1037B000DF93082F10918C01812F992787FD909519
:1037C00097FF03C0909581959F4FF82E24E228170C
:1037D0000CF03FC02091020930910309809100094B
:1037E00090910109282B392B8091040990910509AA
:1037F000282B392B8091FF0890E0282B392B8091C2
:10380000FC0890E0282B392B232B39F41092FC086C
:1038100017FF03C081E08093FC0811161CF4812F70
:10382000845202C0812F8C5D60E040E00E94880ECF
:10383000282F882361F08091FC08882341F490E0D0
:103840008091FF08882309F491E09093FF0820936A
:10385000FC08C0910209D09103092196D093030975
:10386000C0930209E0910009F0910109E00FF11DF8
:10387000F0930109E0930009F89480918F0E9091E4
:10388000900E78942091040930910509821B930BC6
:103890008436910508F441C12C593F4F30930509F6
:1038A00020930409CF01BE010E947170062F862F5C
:1038B00090E0AC014C9FC0014D9F900D5C9F900D1E
:1038C0001124E81BF90BF0930109E0930009109211
:1038D0000309109202095FE05F151CF01092FF08C7
:1038E00010C084E28F156CF011161CF4812F8F50DC
:1038F00002C0812F815F60E040E00E94880E8093CB
:10390000FF088091570690915806019690935806AB
:10391000809357066091590670915A066F5F7F4FEA
:1039200070935A0660935906002349F080915D0612
:1039300090915E06019690935E0680935D0680915D
:10394000FF08882349F080915B0690915C06019600
:1039500090935C0680935B06069540915F065091BC
:103960006006400F511D5093600640935F06E09142
:103970008E01F0918F01F0936306E093620630911F
:103980008C01832F992787FD909597FF03C0909511
:1039900081959F4F882319F41092610622C08130CF
:1039A00021F4CF01861B970B18C0803170F480FF83
:1039B00007C0CA0154E0969587955A95E1F709C06A
:1039C00080915D0690915E0604C080915B069091A7
:1039D0005C06AF01481B590BCA01909363068093A4
:1039E000620680916106813041F0813018F08230AA
:1039F000F1F40EC03323D9F017C080916206909184
:103A00006306181619069CF0309789F082E00DC005
:103A10008091620690916306855C9F4F1CF483E061
:103A200080936106309719F481E0809361062091BC
:103A30006206309163068091FD089091FE0882171E
:103A4000930709F45CC080916106813009F047C09A
:103A500040916C0142FF2BC0309749F12E31310566
:103A600011F482E003C02431310519F48093740409
:103A700006C02A30310519F02430310524F4809134
:103A800066048093630443FF12C02E31310549F070
:103A90002431310531F02A30310519F02430310557
:103AA00034F482E390E0909373048093720441FFB6
:103AB00026C080918D0180FF04C0CF01821B930B33
:103AC00001C0C9016CE370E00E947170892BB9F4E8
:103AD000809166048093630443FF11C00AC0823062
:103AE00071F4809167048093630480916C0183FF7B
:103AF00006C082E390E09093730480937204309345
:103B0000FE082093FD0880918D0180FF06C0E21B16
:103B1000F30BF0936306E0936206DF91CF911F9160
:103B20000F91FF90089580918C01992787FD9095C2
:103B300097FF03C0909581959F4F82304CF1803163
:103B40003CF5982F95958A3034F4892F0E94846231
:103B5000E82FF0E004C0E92FFF27E7FDF09531974B
:103B6000EE0FFF1FE652FB4F2081318180918C01C7
:103B700087FF05C080E094E0821B930B03C0C9015E
:103B800080509C4FE6E096958795EA95E1F702C054
:103B900080E090E00E94D41B83E00E948462E82FC2
:103BA000F0E0EE0FFF1FE852FB4F0190F081E02D97
:103BB000E050FC4F66E0F695E7956A95E1F7809155
:103BC0008D0182FF0AC0E530F10538F0809177045D
:103BD000882319F483E0809377046091F80870914A
:103BE000F9086F5F7F4F7093F9086093F808409170
:103BF000F6085091F7084E0F5F1F5093F708409357
:103C0000F608F89480918F0E9091900E7894209100
:103C1000FA083091FB08821B930B885E934060F199
:103C2000F89480918F0E9091900E78949093FB0869
:103C30008093FA081092F7081092F6081092F9088B
:103C40001092F8088091DD069091DE06019690931F
:103C5000DE068093DD062091DC06E22FF0E0EC59D1
:103C6000F94FCA010E94717060832F5F2093DC06B8
:103C7000283710F01092DC0608950F931F93CF930E
:103C8000DF9386E291E0EEE2F5E0DF019C011D9218
:103C900021503040E1F790915406CBE9D1E000E0AB
:103CA00010E051E060E04881442309F440E104174A
:103CB00050F5202F712F352F2F5F872F90E0FC01BB
:103CC000EE0FFF1FE80FF91FEE0FFF1FDF01A25DD0
:103CD000BA4F11962C9311978C9181608C93E05D73
:103CE000FA4F30833F5F14966C937F5F241720F365
:103CF000802F8095042F952F9F5F980F180F140F1A
:103D0000940F592F515078817723D1F1812F90E072
:103D10009C01220F331F280F391FD901AA0FBB1F87
:103D2000A25DBA4F11964C93119715966C93159707
:103D30008C9182608C9313965C9313975F5F8A8556
:103D4000F9013196781741F4EE0FFF1FE25DFA4F4B
:103D5000108214961C920AC0EE0FFF1FE25DFA4F0C
:103D600050835F5F6F5F14966C936150952F6F5F08
:103D70002A96603219F45093540604C01F5F93CF03
:103D800090935406DF91CF911F910F9108952F9238
:103D90003F924F925F926F927F928F929F92AF92DB
:103DA000BF92CF92DF92EF92FF920F931F93DF9318
:103DB000CF93CDB7DEB768970FB6F894DEBF0FBECE
:103DC000CDBF9F8B8E8B688F80917104882309F4FF
:103DD00078C080910A05882319F0815080930A05E4
:103DE00080916B01863F09F46CC080916F049091C3
:103DF0007004C29708F465C08091F7078F5F8093C5
:103E0000F707803158F08091F8079091F9070196F3
:103E10009093F9078093F8071092F70720916B07AA
:103E200030916C0780916D0790916E07280F391FB4
:103E300080916F0790917007280F391F809171074B
:103E400090917207280F391F8091FA079091FB0714
:103E5000A901481B590BCA0157FF03C090958195D2
:103E60009F4F8150914044F03093FB072093FA0715
:103E70001092F9071092F8074091F8075091F9074E
:103E800080916B01992787FD90950A9620E737E18D
:103E9000BC01629FC001639F900D729F900D112421
:103EA00034E0969587953A95E1F78417950748F49D
:103EB000437050704130510521F480916704809324
:103EC000630490909901992009F468C080916A0177
:103ED00090E0FC01E170F0703196EE0FFF1FE652AA
:103EE000FB4F0190F081E02D9C012270307081FD2C
:103EF00003C0A3E0B0E002C0A0E0B0E0AA0FBB1F87
:103F0000A652BB4FCD90DC90232B19F4A3E0B0E078
:103F100002C0A0E0B0E07F010027F7FC0095102F61
:103F2000AA0FBB1FA652BB4F6D917C91882777FDCE
:103F30008095982F9601442737FD4095542F0E9475
:103F400046705B016C01C801B701A80197010E948E
:103F50004670A60EB71EC81ED91E692D70E080E0FF
:103F600090E00AE0660F771F881F991F0A95D1F726
:103F700024E630E040E050E00E94BA70B901CA0186
:103F80000E9446706A157B058C059D0538F4C601B4
:103F9000B5010E945A17988B8F8702C0188A1F8616
:103FA000AF85B889BD0180E090E024E630E040E0D4
:103FB00050E00E9446706A8B7B8B8C8B9D8B17E246
:103FC000612E11E0712EB7E34B2EB3E05B2E198A00
:103FD000CC24DD2488249924B88D2B2E3324E1E0D1
:103FE0002E2233241C2D8C2D0E94C20B9C01D30148
:103FF0008D919C911197281B390B121613062CF4E6
:104000005C96ED91FC915D9705C0D3011E96ED91F4
:10401000FC911F97E436F10514F4E4E6F0E0B901F1
:10402000882777FD8095982FAAE0660F771F881F55
:10403000991FAA95D1F79F01442737FD4095542F2A
:104040000E94BA707901BCEF21303B0724F4E12CC7
:104050005CEFF52E07C0E4E020303E071CF0E12CB9
:1040600044E0F42EF401E652FB4FF182E082C701F6
:104070000F964F97F0F4F4E0CF16D1047CF4812F23
:104080008F5F0E94846290E0019721E030E002C0DF
:10409000220F331F8A95E2F7C90108C081E090E042
:1040A0000C2C02C0880F991F0A94E2F73989382B2B
:1040B000398B143008F08AC1222009F05EC080914B
:1040C0008D0181FF5AC08601000F111F005A1E4F3B
:1040D000D80111968C911197807C09F44EC08C9177
:1040E00085958595859561E040E00E94880E88233E
:1040F00009F443C0D801EC91E770F0E0EE0FFF1F28
:10410000DF01A85ABE4FE558FB4F808191812D9168
:104110003C91821B930B62E070E00E948570F60177
:10412000EE0FFF1FEF59FE4F4081842F880F880F3D
:1041300085958595992787FD9095FC016E9FC00117
:104140006F9F900D7E9F900D11246FE170E00E9493
:104150008570CB01880F991F880F991F429546954E
:104160004695437050E04130510529F042305105E9
:1041700021F47C0102C0E80EF91E2F853889232B1B
:1041800079F180916A01282F30E0C9018170907027
:104190000196C816D90651F021FD03C083E090E0D6
:1041A00002C080E090E0C816D906D1F46091990170
:1041B00070E080E090E01AE0660F771F881F991F7B
:1041C0001A95D1F79701442737FD4095542F0E9447
:1041D00046702A893B894C895D890E94BA707901B1
:1041E000D2018C9160E040E00E94880E882311F497
:1041F00000E00BC0F201818160E040E00E94880E87
:10420000882311F002E001C001E080916A0190E092
:1042100081709070B2E0AB2EB12CA81AB90AAC1420
:10422000BD0461F580919201807F41F1C70180500A
:104230009C4F62E070E00E948570CB01E02FF0E0BF
:10424000EE0FFF1FEE0FFF1FA601440F551F9A012F
:1042500063E0220F331F6A95E1F7241B350BE20F51
:10426000F31FE55DFC4F6081772767FD70950E9425
:10427000FC16DC01AA0FBB1F10E026C010E01E14C4
:104280001F040CF011E0802F90E09601220F331FE5
:10429000F901A3E0EE0FFF1FAA95E1F7E21BF30B74
:1042A000880F991F880F991FE80FF91FEF57FE4FCE
:1042B000E10FF11DE655FE4F6081772767FD709590
:1042C000C7010E94FC16DC01E02FF0E0EE0FFF1F9B
:1042D000EE0FFF1F9601220F331FC90143E0880F25
:1042E000991F4A95E1F7821B930BE80FF91FEF57CF
:1042F000FE4FE10FF11DE455FE4F6081772767FD0A
:1043000070956C597F4F882777FD8095982F9D0178
:10431000442737FD4095542F0E94467024E630E034
:1043200040E050E00E94BA707901AC14BD04B9F5C8
:1043300090919201892F807F09F465C720E03CEFBE
:10434000E20EF31E60C760E074E06E197F098827F3
:1043500077FD8095982FF501EE0FFF1FE050FF4F7E
:104360000190F081E02D2081332727FD3095432FE8
:10437000532F23583F4F4F4F5F4F0E94467020E00E
:1043800038E040E050E00E94BA70C901DA018030A4
:1043900038E0930730E0A30730E0B30761F4F4019D
:1043A000E050FF4F0190F081E02D8081282F3327CE
:1043B00027FD309501C09C01220F331FE1E0F0E0A2
:1043C000EC0FFD1FE80DF91D31832083F401E55941
:1043D000F84FF182E0820894C11CD11C42E050E009
:1043E000640E751E840E951E6EE070E0460E571E1C
:1043F00077E0C716D10409F0F5CD4091960189897F
:104400004823242F30E08091FC0790E082279327F7
:1044100082239323892B21F0809165048093630488
:104420004093FC0780E094E090937A0780937907AB
:1044300090937C0780937B0713E8412E17E0512E61
:10444000B20140E050E0FA01E558FB4FDA01AA5D05
:10445000BE4F80819181D2962D913C91D397821B42
:10446000930B880F991FDB018D939D93BD014E5FC8
:104470005F4F4830510539F780918304909184044F
:10448000880F991F90938C0780938B0780918504E8
:1044900090918604880F991F90938E0780938D07C3
:1044A0008091870490918804880F991F90939007BA
:1044B00080938F078091890490918A04880F991FB7
:1044C0009093920780939107E7EBF7E0FA87E987EB
:1044D000A3E9B7E0808191818D939D93349627E085
:1044E000E73FF207B9F790909901992009F4C1C00C
:1044F00080916A0190E0FC01E170F0703196EE0F5E
:10450000FF1FE559F84F0190F081E02D9C012270CA
:10451000307081FD03C0A3E0B0E002C0A0E0B0E0D5
:10452000AA0FBB1FA559B84FCD90DC90232B19F4CF
:10453000A3E0B0E002C0A0E0B0E07F010027F7FCFC
:104540000095102FAA0FBB1FA559B84F6D917C91F4
:10455000882777FD8095982F9601442737FD409551
:10456000542F0E9446705B016C01C801B701A8017D
:1045700097010E944670A60EB71EC81ED91E692D4F
:1045800070E080E090E03AE0660F771F881F991F87
:104590003A95D1F724E630E040E050E00E94BA704E
:1045A000B901CA010E9446706A157B058C059D05FC
:1045B00008F05FC0C601B5010E945A17E0906A0179
:1045C000FF248701017010700F5F1F4F2091990128
:1045D000A22EBB24CC24DD242AE0AA0CBB1CCC1CBC
:1045E000DD1C2A95D1F7A0E0B0E0BC01CD0124E6A6
:1045F00030E040E050E00E9446703B014C01000F6B
:10460000111F0559184FD8012D913C91442737FDB2
:104610004095542FC601B5010E944670A401930134
:104620000E94BA70F80131832083E1FC05C0E3E009
:10463000F0E003E010E004C0E0E0F0E000E010E0B3
:10464000000F111F0559184FEE0FFF1FE559F84FC6
:1046500020813181442737FD4095542FC601B50193
:104660000E944670A40193010E94BA70D8012D9354
:104670003C9340919701842F807E09F4EFC02091F4
:104680006A0130E0F901E170F0703196EE0FFF1F22
:10469000DE01AE0FBF1FE559F84F1196CD90DC90AB
:1046A000129780819181C80ED91EC90182709070C5
:1046B00021FD03C0E3E0F0E002C0E0E0F0E0EE0F37
:1046C000FF1FE559F84F20813181892B19F4E3E070
:1046D000F0E002C0E0E0F0E0EE0FFF1FEC0FFD1F86
:1046E00001811281020F131FE0919801EE2319F44A
:1046F000EE24FF2407C0F0E0EE0FFF1FE759F84F4C
:10470000E080F18042FF04C0D094C194D108D394DA
:1047100043FF03C0109501951F4F44FF04C0F09460
:10472000E194F108F39480919701829586958770C2
:1047300090E08230910589F18330910524F401974E
:1047400009F08CC008C08330910509F45BC0049760
:1047500009F084C06FC0C80160E072E00E948570FB
:10476000FB01C80168E070E00E9485709B01C801F0
:1047700060E870E00E948570A801421B530B9A010B
:10478000261B370B2E1B3F0BC7018C199D099093DD
:104790007E0780937D07C60121C0C60160E072E0FC
:1047A0000E948570FB01C60168E070E00E94857080
:1047B0009B01C60160E870E00E948570C601821B03
:1047C000930B9C01261B370B2E1B3F0BC701801B35
:1047D000910B90937E0780937D07C80162E070E0A3
:1047E0000E9485706E0D7F1DCB01820F931F9093E9
:1047F000800780937F07621B730B7093820760931F
:1048000081072CC0C7018C199D0990937E07809366
:104810007D07C7018C0D9D1D9C01200F311F30931A
:10482000800720937F07801B910B909382078093D2
:10483000810714C0C7018C199D0990937E0780934E
:104840007D07C701800F911F9093800780937F079A
:10485000E01AF10AF0928207E092810780917104D8
:10486000882311F00E94931D80E4E7EBF7E0DF015D
:104870001D928A95E9F7B88DB1FF28C0ABE6B7E085
:10488000FE01319620E030E042E050E080916A0184
:1048900090E081709070BA01681B790B6217730702
:1048A00029F011961C921E92118210822F5F3F4FA9
:1048B000129632962430310549F7D2011D921D928D
:1048C0002D01BBE84B16B7E05B06B9F783E693E032
:1048D00090930101809300010196909303018093CE
:1048E0000201019690930501809304010196909333
:1048F0000701809306013DE3632E38E0732E2DEF10
:10490000222E27E0322E9DEB492E98E0592E1E864E
:104910001D868D850E942F0B5C01FC0180818150DA
:10492000803108F021C3838161E040E00E94880E5D
:10493000D2019C918823E9F4192F1C92F5019181F1
:10494000892F8850823028F0953219F0963209F07C
:10495000FAC2D50117968C918E70843009F4F3C297
:10496000993019F0CC24DD2450C0C12C8CEFD82E06
:104970004CC010E0992309F411E081E0F20180833A
:10498000D50111963C91832F8150A82FB0E0FD01F5
:10499000EE0FFF1FE559F84FC080D180843158F0E9
:1049A000ED858E1740F4AA0FBB1FAA0FBB1FA95499
:1049B000B84FCD90DC90D50117962C91822F807343
:1049C00081F0822F8295837090E00197E1E0F0E022
:1049D00002C0EE0FFF1F8A95E2F7CF01FE85F82B8C
:1049E000FE8726FF12C0353080F4E32FF0E0EE0F93
:1049F000FF1FE250FF4F28E030E0A20EB31EB1824D
:104A0000A08248EF5FEFA40EB51ED50111969C91D0
:104A1000892F8552823008F054C0F20180818823AA
:104A200011F0112321F4809118018F3F21F520917D
:104A30001801953211F04FEF01C041E030E0240F32
:104A40002770822F992787FD9095FC01EE0FFF1F9D
:104A5000E80FF91FEE0FFF1FEA5DFB4F8081807F9B
:104A600021F0822F0E943E640AC03F5F383039F740
:104A70008FEF0E943E648091180187FD64C280918F
:104A80001801992787FD9095FC01EE0FFF1FE80F95
:104A9000F91FEE0FFF1FEF57FE4FEB55FD4F8081C3
:104AA000E55AF24086FF05C0E655FD4F80818093B0
:104AB000BA0E80E09091BA0E69E170E00E948570B4
:104AC0006B01D50117968C91179786FD08C0189633
:104AD0008C91882321F00E948216C80ED91EF50100
:104AE0008681882321F48581882309F443C1D30179
:104AF0006D917D918D919C91112389F420E031E09D
:104B000040E050E00E94BA70509540953095219554
:104B10003F4F4F4F5F4F4601820E931E5AC0F50123
:104B200087818E70843049F5E081F0E0EE0FFF1F41
:104B3000EF56F84F60817181882777FD8095982F17
:104B400020E034E640E050E00E944670D3016D93CF
:104B50007D938D939C931397F5012281222369F015
:104B6000332727FD3095432F532F0E94BA70D3016E
:104B70002D933D934D935C931397F3016081718165
:104B80008281938120E031E040E050E00E94BA70E1
:104B900050954095309521953F4F4F4F5F4F4601BF
:104BA000820E931E81149104A1F0D50115968C916B
:104BB00097FE82958F7090E0FC0124E630E0E29F42
:104BC000C001E39F900DF29F900D1124D1018D93B0
:104BD0009C93F101208131812115310551F08091A3
:104BE0007104882309F4BAC02150304031832083F6
:104BF000B5C08114910409F4BDC0F50186818823F4
:104C000009F4B8C080917104882309F475C0228129
:104C1000222329F460E070E080E293E017C033279C
:104C200027FD309537FF03C0309521953F4F33273F
:104C300027FD3095432F532F60E070E080E293E032
:104C40000E94BA70C901DA01BC01CD01D5011696E6
:104C50002C91181419040CF52F70422F50E04115B7
:104C60005105D9F1E4E6F0E04E9F90014F9F300DE1
:104C70005E9F300D1124442737FD4095542F0E942C
:104C8000BA7079018A01F30180819181A281B38197
:104C9000E80EF91E0A1F1B1F29C022952F70422FF4
:104CA00050E041155105C9F0A4E6B0E04A9F9001DB
:104CB0004B9F300D5A9F300D1124442737FD4095EE
:104CC000542F0E94BA70F301E080F18002811381B9
:104CD000E21AF30A040B150B09C0C601AA2797FDB7
:104CE000A095BA2FEE24F82E092F1A2FD301ED929A
:104CF000FD920D931C931397F30160817181828162
:104D0000938176010027F7FC0095102F18141904E1
:104D100064F420E031E040E050E00E94BA70E21616
:104D2000F3060407150764F019C020E031E040E005
:104D300050E00E94BA702E153F054007510774F4E9
:104D4000C601AA2797FDA095BA2FBA2FA92F982F91
:104D50008827F30180839183A283B383D3016D916C
:104D60007D918D919C9120E031E040E050E00E94E7
:104D7000BA706901F5016481633071F1643028F41F
:104D8000613051F06230A8F448C0653081F165307F
:104D900050F16630B1F52EC0D50111968C91893055
:104DA00029F4D7FC2AC0E0E0FEEF0DC0D7FE35C0E5
:104DB0002EC0D50111968C91893051F41C141D041C
:104DC0004CF1E0E0F2E0CE0EDF1ECC0CDD1C25C085
:104DD0001C141D04E4F021C0D7FE1FC0D094C19460
:104DE000D108D3941AC01C141D04A4F010C0D7FE1F
:104DF0000EC003C01C141D046CF0C12C5CEFD52E3A
:104E00000CC06750C6010E9492176C0106C0CC24EA
:104E1000DD2403C0C12C44E0D42ED50117968C911B
:104E2000179780FD14C01196EC91EE2381F0E530C8
:104E300070F4F0E03197EE0FFF1F21E030E02C0F0F
:104E40003D1FE20FF31F80819181C80ED91EB6016C
:104E5000882777FD8095982FD50112962C913327BE
:104E600027FD3095432F532F0E9446706B017C0124
:104E7000F501878186958770282F30E02130310534
:104E800091F080812230310509F049C0E82FF0E02F
:104E9000EE0FFF1FEE0FFF1FED54F84FC082D182BF
:104EA000E282F38250C0D5012C91022F10E0000F56
:104EB000111F000F111F0D54184FC701B60124E632
:104EC00030E040E050E00E94BA70CA01B901F80138
:104ED00020813181428153810E944670D8016D93B7
:104EE0007D938D939C931397F5016081062F10E0BD
:104EF000000F111F000F111F0D54184FD8016D9195
:104F00007D918D919C9120E034E040E050E00E9442
:104F1000BA70F801208331834283538314C0E82F91
:104F2000F0E0EE0FFF1FEE0FFF1FED54F84F8081F2
:104F30009181A281B3818C0D9D1DAE1DBF1D80830B
:104F40009183A283B383FD85FF5FFD8724E030E07A
:104F5000620E731E42E050E0240E351E0894411C80
:104F6000511CF03209F0D5CCF89420918F0E30917D
:104F7000900E78944E8540FF06C0222321F4809144
:104F800065048093630441FF0CC0C90190708034B4
:104F9000910519F08834910521F48091650480937E
:104FA000630442FF0FC0C90190708038910531F051
:104FB0008838910519F08039910521F480916504B4
:104FC000809363041BED412E12E0512E6EEF73E0CF
:104FD0007C876B8722243324A985BA85AD90BD9048
:104FE000CD90DC90C601B50124E630E040E050E011
:104FF0000E94BA70E985FA85208331834283538306
:10500000F101E851FB4FC90120839183D20113962E
:105010002D913C91149711968C91BAE08B0240012E
:105020001124E8EEF3E08E0E9F1ED2018C91BAE0BF
:105030008B0230011124E8E1FCEF6E0E7F1EC401EB
:10504000582D492F281539051CF4C901522F492F15
:10505000852F942F8C01061517050CF48301A114DC
:10506000B104C104D10469F19801442737FD40958A
:10507000542F1A141B041C041D0454F4B401882773
:1050800077FD8095982F621B730B840B950B0BC0DB
:10509000C301AA2797FDA095BA2F281B390B4A0BED
:1050A0005B0BCA01B901A60195010E94467020EA76
:1050B00036E841E050E00E94BA70C901DA015C01B3
:1050C0006D01C801B5E095958795BA95E1F7800F18
:1050D000911F9801232F330F330B2595820F931FB8
:1050E000000F012F001F110B801B910B7C0100276B
:1050F000F7FC0095102FC401E5E095958795EA959A
:10510000E1F7880D991D930175E0359527957A95FE
:10511000E1F7F301EE0FEF2FEE1FFF0B260D371D0A
:10512000880C892C881C990888199909959487946A
:1051300095948794880D991DAC01662757FD60955D
:10514000762FEA0CFB1C0C1D1D1D4E155F0560071C
:10515000710714F47A018B012E1B3F0BF595E7952F
:10516000F595E7952E0F3F1FC901AA2797FDA0953A
:10517000BA2FE816F9060A071B0714F47C018D0103
:10518000D20112968C91882341F010950095F094ED
:10519000E094E11CF11C011D111DEB85FC85808153
:1051A000882389F060E040E00E94880E882359F04F
:1051B000AB85BC8511968C910E9482167C010027DC
:1051C000F7FC0095102FF894EE89FF89E20DF31D8E
:1051D000F182E0827894E985FA853496FA87E98746
:1051E00022E030E0220E331E45E050E0440E551E12
:1051F0006B857C856E5F7F4F7C876B87E75FF740B1
:1052000009F0EACE04C09F7009F09DC8C8C868962E
:105210000FB6F894DEBF0FBECDBFCF91DF911F91C7
:105220000F91FF90EF90DF90CF90BF90AF909F9045
:105230008F907F906F905F904F903F902F90089548
:105240000E949716803210F480E008958FEA9EE263
:105250000E940E1381E00895EF92FF920F931F9327
:10526000DF93CF93CDB7DEB7C054D0400FB6F894DC
:10527000DEBF0FBECDBF7E010894E11CF11CC7014B
:1052800063E00E94C71E8E010F5D1F4FC80161E0E1
:105290000E94C71EEDEDF2E0B70178010181128195
:1052A0008081DB014D915C91D7012D913C91882348
:1052B00021F0CA01821B930B03C0C901841B950B0B
:1052C000800F911FB3E0883E9B071CF088EE93E0AF
:1052D00006C02CEF8931920714F488E19CEF928389
:1052E000818335966E5F7F4F82E090E0E80EF91E75
:1052F00093E0ED32F90791F680916A0190E08170B8
:10530000907022E030E0281B390B16AA21303105BD
:1053100011F0109264032230310511F010926503F0
:105320001092660386E00E94C755809165048093C1
:105330006304C05CDF4F0FB6F894DEBF0FBECDBF75
:10534000CF91DF911F910F91FF90EF900895DF9221
:10535000EF92FF920F931F93CF93DF938FE161E260
:1053600047E10E94915E8FE167E347E10E948D5E15
:1053700085E361E247E10E94915E8FE161E247E1EE
:105380000E948D5E8BE461E247E10E94915E8BE4B6
:1053900067E347E10E948D5E81E661E247E10E949A
:1053A000915E8BE461E247E10E948D5E8AE26BE2EE
:1053B00043E00E94915E89E26CE243E00E948D5ED0
:1053C00086E56BE243E00E94915E85E56CE243E096
:1053D0000E948D5E8091DA049091DB04880F991F02
:1053E0009C0163E0220F331F6A95E1F7820F931F40
:1053F00060E078E00E948570D62E8091DC04909168
:10540000DD04880F991F9C0143E0220F331F4A954A
:10541000E1F7820F931F60E078E00E9485708B01B6
:10542000109501951F4F88E2F82EFD0C1AE2E12E2F
:10543000E00E8F2D6E2D45E00E94915E025D8F2D56
:10544000602F45E00E948D5E8D2D845D6E2D45E0C0
:105450000E94915E8F2D6E2D45E00E948D5E8091A1
:10546000E0049091E104880F991F9C01A3E0220FB2
:10547000331FAA95E1F7820F931F60E078E00E9446
:105480008570D62E8091DE049091DF04880F991FDD
:105490009C01E3E0220F331FEA95E1F7820F931F8F
:1054A00060E078E00E9485708B01109501951F4F98
:1054B00074E5F72EFD0C6AE2E62EE00E8F2D6E2DC0
:1054C00045E00E94915E025D8F2D602F45E00E94B5
:1054D0008D5E8D2D885A6E2D45E00E94915E8F2D38
:1054E0006E2D45E00E948D5EC2EED4E05AE3F52EAB
:1054F00048E3E42E69917991882777FD8095982F6C
:1055000026E130E040E050E00E9446706050784A6A
:105510008F4F9F4F20E038E040E050E00E94BA708B
:10552000122F1F5F0E2D011B8F2D602F412F0E9408
:10553000915E8F2D8F5F602F412F0E94915E8F2D86
:105540008E5F602F412F0E94915E85E0F80E89E406
:10555000F81681F6DF91CF911F910F91FF90EF9098
:10556000DF9008954F925F926F927F928F929F92F9
:10557000AF92BF92CF92DF92EF92FF920F931F9361
:10558000DF93CF930F92CDB7DEB7F09068019FE025
:10559000F922813809F473C0823890F4833209F417
:1055A0003FC0843230F48032E1F0823209F088C0AA
:1055B00047C0813609F457C0803809F081C01CC04B
:1055C000843801F1853838F4823809F446C08338CC
:1055D00009F076C040C08538E9F08F3B09F070C013
:1055E00063C0A5E0FA1609F06BC08091770491E0E2
:1055F0008927809377041FC00E947D0B0E940E13A1
:1056000080E805C089E691E40E940E1384E80E94B8
:105610008F6156C085E999E30E940E1385E8F7CFA4
:105620008F2D8F5F80936801863010F01092680193
:1056300081E00E94C755809164048093630440C058
:10564000FF2029F0FA94F0926801F394F1CF85E0FD
:1056500080936801EDCF83E8DACF8DE199E60E946F
:10566000870B82E8D4CF80916106823021F483E0F9
:1056700080936106E0CFB5E0FB1611F512C01092E1
:10568000610610925A061092590610925E06109208
:105690005D0610925C0610925B06109260061092F6
:1056A0005F060E94B90BC7CF81E00E948F6183E043
:1056B0000E948F6182E00E948F6181E08093F508F3
:1056C0008091950160E040E00E94880E882331F0CF
:1056D0008091F508882311F40E942C29809195016E
:1056E00060E040E00E94880E8093F5088091680198
:1056F000803108F090C061E8C62E61E0D62E1AE035
:10570000812F60E0F60141916F0124E00E94EE5C80
:10571000155F1837A9F78CE00E94AF6450E0C52EE2
:1057200051E0D52E882499244FE1B42EF401EC5E8B
:10573000FE4FE080D601ED91FC91E081E7FDED5F49
:10574000E595E595E43E0CF4E4EE0E2FED310CF01A
:105750000CE1F401E05FFE4F80818823F9F08E2D8B
:1057600064E046E30E94915E80916A0190E08825A2
:10577000992580FD04C0809192018F7061F48E2D77
:1057800081506EE143E00E94915E8E2D8F5F6EE14D
:1057900043E00E94915E9B2D901B14C08E2D8B5177
:1057A0006BE346E30E948D5E1E2D1150812F6AE34C
:1057B00043E00E948D5E812F6CE343E00E948D5E8A
:1057C000E00E9BE31E2D1350092F0350812F602FF5
:1057D00047E099830E94915E99819D5F812F692F97
:1057E00047E00E948D5E8E2D8D5F602F47E00E9406
:1057F000915E812F602F47E00E948D5E0894811C8E
:10580000911CE2E0F0E0CE0EDF1EF4E08F16910472
:1058100009F08CCF2BC080E060E041E851E02AE045
:1058200001E10E94A95D8091550190E020916F04F3
:10583000309170042817390710F040E001C042E0B1
:1058400084E560E00E941D1680916106882371F056
:10585000823011F000E001C002E0409162065091F8
:1058600063068FE660E0202F0E94231681E08F15EB
:1058700008F49AC03EE0A32E35E0B32ECC24DD24FC
:105880002BE1622E712C99E1892E912C2C2DD501C2
:105890004D905C90FF2029F0B1E0FB1609F077C035
:1058A0002BC0C60183709070869D8001879D100D6E
:1058B000969D100D11242695269530E02B5F3F4FC5
:1058C00083E0220F331F8A95E1F7C20160E270E0A6
:1058D0000E948570FB01C20160E870E00E94857043
:1058E0006E1B7F0B460E571E802F8F5D622FA2010D
:1058F00020E20E94D25F4BC0243010F01EE501C0B0
:1059000012E2960123703070C901880F991F880F29
:10591000991F820F931F082F0A5D920157FE04C042
:105920002227332724193509289DC001299D900D70
:10593000389D900D112480509E4F892F990F990BFF
:1059400085958595E82EE9E1E81714F4A9E1EA2E9A
:10595000812F8951602F43E325E50E945F5E602F10
:105960006250812F45E00E94915E1414150414F4D6
:105970001F5F01C01E190F5F812F602F4E2D0E94E7
:105980008D5E0250812F602F4E2D0E948D5E0894F7
:10599000C11CD11C82E090E0A80EB91E98E0C91687
:1059A000D10409F073CF62C0A4E0AF1508F454C06D
:1059B0000E94A729B2E0FB1621F4F6E0CF2E90E07A
:1059C00009C086E0F89E802D1124982F9950EAEFA7
:1059D000CE2EC80ED92E83E098025001112410E279
:1059E00016C00E943F0B7C018D2D60E040E00E94BC
:1059F000880E082FEA0CFB1C8AE0612FA70123E028
:105A00000E94A95DE3E0F0E0AE0EBF1E185FD394E4
:105A1000183339F7DC2C83E0FC2DF80250011124F7
:105A200010E216C00E943F0B7C018D2D60E040E02B
:105A30000E94880E082FEA0CFB1C85E6612FA70147
:105A400023E00E94A95D83E090E0A80EB91E185FD4
:105A5000D394183339F70AC04091790450917A04ED
:105A60008CE368E224E004E00E9423160F90CF91BB
:105A7000DF911F910F91FF90EF90DF90CF90BF903B
:105A8000AF909F908F907F906F905F904F90089510
:105A90006F927F928F929F92AF92BF92CF92DF923E
:105AA000EF92FF920F931F93DF93CF93CDB7DEB7A3
:105AB000682E862F742E122F302F6E2D0A2D222342
:105AC00029F0442309F436C122E035C120E0033631
:105AD00009F041C08C2D90E0880F991FFC0143E034
